{
  "_format": "hh-sol-artifact-1",
  "contractName": "AuctionHouse",
  "sourceName": "contracts/Auction.sol",
  "abi": [
    {
      "inputs": [
        {
          "internalType": "uint256",
          "name": "_fee",
          "type": "uint256"
        }
      ],
      "stateMutability": "nonpayable",
      "type": "constructor"
    },
    {
      "inputs": [
        {
          "internalType": "address",
          "name": "owner",
          "type": "address"
        }
      ],
      "name": "OwnableInvalidOwner",
      "type": "error"
    },
    {
      "inputs": [
        {
          "internalType": "address",
          "name": "account",
          "type": "address"
        }
      ],
      "name": "OwnableUnauthorizedAccount",
      "type": "error"
    },
    {
      "inputs": [
        {
          "internalType": "address",
          "name": "token",
          "type": "address"
        }
      ],
      "name": "SafeERC20FailedOperation",
      "type": "error"
    },
    {
      "anonymous": false,
      "inputs": [
        {
          "indexed": true,
          "internalType": "uint256",
          "name": "auctionId",
          "type": "uint256"
        },
        {
          "indexed": false,
          "internalType": "address",
          "name": "arbiter",
          "type": "address"
        }
      ],
      "name": "ArbiterSet",
      "type": "event"
    },
    {
      "anonymous": false,
      "inputs": [
        {
          "indexed": true,
          "internalType": "uint256",
          "name": "auctionId",
          "type": "uint256"
        },
        {
          "indexed": false,
          "internalType": "address",
          "name": "creator",
          "type": "address"
        }
      ],
      "name": "AuctionCreated",
      "type": "event"
    },
    {
      "anonymous": false,
      "inputs": [
        {
          "indexed": true,
          "internalType": "uint256",
          "name": "auctionId",
          "type": "uint256"
        },
        {
          "indexed": false,
          "internalType": "address",
          "name": "winner",
          "type": "address"
        },
        {
          "indexed": false,
          "internalType": "uint256",
          "name": "finalPrice",
          "type": "uint256"
        }
      ],
      "name": "AuctionFinalized",
      "type": "event"
    },
    {
      "anonymous": false,
      "inputs": [
        {
          "indexed": true,
          "internalType": "uint256",
          "name": "auctionId",
          "type": "uint256"
        },
        {
          "indexed": false,
          "internalType": "address",
          "name": "bidder",
          "type": "address"
        },
        {
          "indexed": false,
          "internalType": "uint256",
          "name": "refundedAmount",
          "type": "uint256"
        }
      ],
      "name": "AuctionRefunded",
      "type": "event"
    },
    {
      "anonymous": false,
      "inputs": [
        {
          "indexed": true,
          "internalType": "uint256",
          "name": "auctionId",
          "type": "uint256"
        },
        {
          "indexed": false,
          "internalType": "uint256",
          "name": "bidId",
          "type": "uint256"
        },
        {
          "indexed": false,
          "internalType": "address",
          "name": "bidder",
          "type": "address"
        },
        {
          "indexed": false,
          "internalType": "uint256",
          "name": "amount",
          "type": "uint256"
        }
      ],
      "name": "BidPlaced",
      "type": "event"
    },
    {
      "anonymous": false,
      "inputs": [
        {
          "indexed": true,
          "internalType": "uint256",
          "name": "auctionId",
          "type": "uint256"
        },
        {
          "indexed": false,
          "internalType": "uint256",
          "name": "bidId",
          "type": "uint256"
        },
        {
          "indexed": false,
          "internalType": "address",
          "name": "bidder",
          "type": "address"
        },
        {
          "indexed": false,
          "internalType": "uint256",
          "name": "amount",
          "type": "uint256"
        }
      ],
      "name": "BidWithdrawn",
      "type": "event"
    },
    {
      "anonymous": false,
      "inputs": [
        {
          "indexed": true,
          "internalType": "uint256",
          "name": "auctionId",
          "type": "uint256"
        },
        {
          "indexed": false,
          "internalType": "address",
          "name": "arbiter",
          "type": "address"
        }
      ],
      "name": "NewArbiterRequest",
      "type": "event"
    },
    {
      "anonymous": false,
      "inputs": [
        {
          "indexed": true,
          "internalType": "address",
          "name": "previousOwner",
          "type": "address"
        },
        {
          "indexed": true,
          "internalType": "address",
          "name": "newOwner",
          "type": "address"
        }
      ],
      "name": "OwnershipTransferred",
      "type": "event"
    },
    {
      "anonymous": false,
      "inputs": [
        {
          "indexed": true,
          "internalType": "uint256",
          "name": "auctionId",
          "type": "uint256"
        },
        {
          "indexed": false,
          "internalType": "address",
          "name": "to",
          "type": "address"
        },
        {
          "indexed": false,
          "internalType": "uint256",
          "name": "amount",
          "type": "uint256"
        },
        {
          "indexed": false,
          "internalType": "uint256",
          "name": "assetId",
          "type": "uint256"
        }
      ],
      "name": "WithdrawAssets",
      "type": "event"
    },
    {
      "inputs": [
        {
          "internalType": "uint256",
          "name": "auctionId",
          "type": "uint256"
        }
      ],
      "name": "approveRefund",
      "outputs": [],
      "stateMutability": "nonpayable",
      "type": "function"
    },
    {
      "inputs": [],
      "name": "auctionCount",
      "outputs": [
        {
          "internalType": "uint256",
          "name": "",
          "type": "uint256"
        }
      ],
      "stateMutability": "view",
      "type": "function"
    },
    {
      "inputs": [
        {
          "internalType": "uint256",
          "name": "",
          "type": "uint256"
        },
        {
          "internalType": "uint256",
          "name": "",
          "type": "uint256"
        }
      ],
      "name": "bids",
      "outputs": [
        {
          "internalType": "uint256",
          "name": "id",
          "type": "uint256"
        },
        {
          "internalType": "address",
          "name": "sender",
          "type": "address"
        },
        {
          "internalType": "uint256",
          "name": "price",
          "type": "uint256"
        },
        {
          "internalType": "uint256",
          "name": "date",
          "type": "uint256"
        },
        {
          "internalType": "bool",
          "name": "withdrawn",
          "type": "bool"
        }
      ],
      "stateMutability": "view",
      "type": "function"
    },
    {
      "inputs": [
        {
          "internalType": "uint256",
          "name": "amount",
          "type": "uint256"
        }
      ],
      "name": "calcFee",
      "outputs": [
        {
          "internalType": "uint256",
          "name": "",
          "type": "uint256"
        }
      ],
      "stateMutability": "view",
      "type": "function"
    },
    {
      "inputs": [
        {
          "internalType": "address",
          "name": "newOwner",
          "type": "address"
        }
      ],
      "name": "changeOwner",
      "outputs": [],
      "stateMutability": "nonpayable",
      "type": "function"
    },
    {
      "inputs": [
        {
          "internalType": "string",
          "name": "title",
          "type": "string"
        },
        {
          "internalType": "enum AuctionHouse.AssetType",
          "name": "assetType",
          "type": "uint8"
        },
        {
          "internalType": "uint256",
          "name": "startPrice",
          "type": "uint256"
        },
        {
          "internalType": "uint256",
          "name": "bidStep",
          "type": "uint256"
        },
        {
          "internalType": "uint256",
          "name": "endTime",
          "type": "uint256"
        },
        {
          "internalType": "address",
          "name": "assetContract",
          "type": "address"
        },
        {
          "internalType": "uint256",
          "name": "assetId",
          "type": "uint256"
        },
        {
          "internalType": "uint256",
          "name": "assetAmount",
          "type": "uint256"
        },
        {
          "internalType": "address",
          "name": "arbiter",
          "type": "address"
        }
      ],
      "name": "createAuction",
      "outputs": [],
      "stateMutability": "payable",
      "type": "function"
    },
    {
      "inputs": [],
      "name": "feeRate",
      "outputs": [
        {
          "internalType": "uint256",
          "name": "",
          "type": "uint256"
        }
      ],
      "stateMutability": "view",
      "type": "function"
    },
    {
      "inputs": [
        {
          "internalType": "uint256",
          "name": "auctionId",
          "type": "uint256"
        }
      ],
      "name": "getAuction",
      "outputs": [
        {
          "components": [
            {
              "internalType": "string",
              "name": "title",
              "type": "string"
            },
            {
              "internalType": "address",
              "name": "creator",
              "type": "address"
            },
            {
              "internalType": "uint256",
              "name": "bidsCount",
              "type": "uint256"
            },
            {
              "internalType": "uint256",
              "name": "endTime",
              "type": "uint256"
            },
            {
              "internalType": "uint256",
              "name": "startPrice",
              "type": "uint256"
            },
            {
              "internalType": "uint256",
              "name": "bidStep",
              "type": "uint256"
            },
            {
              "components": [
                {
                  "internalType": "uint256",
                  "name": "id",
                  "type": "uint256"
                },
                {
                  "internalType": "address",
                  "name": "sender",
                  "type": "address"
                },
                {
                  "internalType": "uint256",
                  "name": "price",
                  "type": "uint256"
                },
                {
                  "internalType": "uint256",
                  "name": "date",
                  "type": "uint256"
                },
                {
                  "internalType": "bool",
                  "name": "withdrawn",
                  "type": "bool"
                }
              ],
              "internalType": "struct AuctionHouse.Bid",
              "name": "bestBid",
              "type": "tuple"
            },
            {
              "components": [
                {
                  "internalType": "enum AuctionHouse.AssetType",
                  "name": "kind",
                  "type": "uint8"
                },
                {
                  "components": [
                    {
                      "internalType": "address",
                      "name": "arbiter",
                      "type": "address"
                    }
                  ],
                  "internalType": "struct AuctionHouse.RealAssetView",
                  "name": "real",
                  "type": "tuple"
                },
                {
                  "components": [
                    {
                      "internalType": "uint256",
                      "name": "amount",
                      "type": "uint256"
                    },
                    {
                      "internalType": "contract IERC20",
                      "name": "tokenContract",
                      "type": "address"
                    }
                  ],
                  "internalType": "struct AuctionHouse.ERC20Asset",
                  "name": "erc20",
                  "type": "tuple"
                },
                {
                  "components": [
                    {
                      "internalType": "uint256",
                      "name": "id",
                      "type": "uint256"
                    },
                    {
                      "internalType": "contract IERC721",
                      "name": "tokenContract",
                      "type": "address"
                    }
                  ],
                  "internalType": "struct AuctionHouse.ERC721Asset",
                  "name": "erc721",
                  "type": "tuple"
                },
                {
                  "components": [
                    {
                      "internalType": "uint256",
                      "name": "id",
                      "type": "uint256"
                    },
                    {
                      "internalType": "uint256",
                      "name": "amount",
                      "type": "uint256"
                    },
                    {
                      "internalType": "contract IERC1155",
                      "name": "tokenContract",
                      "type": "address"
                    }
                  ],
                  "internalType": "struct AuctionHouse.ERC1155Asset",
                  "name": "erc1155",
                  "type": "tuple"
                }
              ],
              "internalType": "struct AuctionHouse.AssetView",
              "name": "asset",
              "type": "tuple"
            },
            {
              "internalType": "enum AuctionHouse.AuctionStatus",
              "name": "status",
              "type": "uint8"
            }
          ],
          "internalType": "struct AuctionHouse.AuctionView",
          "name": "",
          "type": "tuple"
        }
      ],
      "stateMutability": "view",
      "type": "function"
    },
    {
      "inputs": [
        {
          "internalType": "address",
          "name": "",
          "type": "address"
        },
        {
          "internalType": "address",
          "name": "",
          "type": "address"
        },
        {
          "internalType": "uint256",
          "name": "",
          "type": "uint256"
        },
        {
          "internalType": "uint256",
          "name": "",
          "type": "uint256"
        },
        {
          "internalType": "bytes",
          "name": "",
          "type": "bytes"
        }
      ],
      "name": "onERC1155Received",
      "outputs": [
        {
          "internalType": "bytes4",
          "name": "",
          "type": "bytes4"
        }
      ],
      "stateMutability": "pure",
      "type": "function"
    },
    {
      "inputs": [],
      "name": "owner",
      "outputs": [
        {
          "internalType": "address",
          "name": "",
          "type": "address"
        }
      ],
      "stateMutability": "view",
      "type": "function"
    },
    {
      "inputs": [
        {
          "internalType": "uint256",
          "name": "auctionId",
          "type": "uint256"
        }
      ],
      "name": "placeBid",
      "outputs": [],
      "stateMutability": "payable",
      "type": "function"
    },
    {
      "inputs": [],
      "name": "renounceOwnership",
      "outputs": [],
      "stateMutability": "nonpayable",
      "type": "function"
    },
    {
      "inputs": [
        {
          "internalType": "uint256",
          "name": "auctionId",
          "type": "uint256"
        }
      ],
      "name": "requestWithdraw",
      "outputs": [],
      "stateMutability": "nonpayable",
      "type": "function"
    },
    {
      "inputs": [
        {
          "internalType": "uint256",
          "name": "auctionId",
          "type": "uint256"
        },
        {
          "internalType": "uint256",
          "name": "bidId",
          "type": "uint256"
        }
      ],
      "name": "takeMyBid",
      "outputs": [],
      "stateMutability": "nonpayable",
      "type": "function"
    },
    {
      "inputs": [
        {
          "internalType": "address",
          "name": "newOwner",
          "type": "address"
        }
      ],
      "name": "transferOwnership",
      "outputs": [],
      "stateMutability": "nonpayable",
      "type": "function"
    },
    {
      "inputs": [
        {
          "internalType": "uint256",
          "name": "auctionId",
          "type": "uint256"
        },
        {
          "internalType": "address",
          "name": "newArbiter",
          "type": "address"
        }
      ],
      "name": "verifyNewArbiter",
      "outputs": [],
      "stateMutability": "nonpayable",
      "type": "function"
    },
    {
      "inputs": [],
      "name": "withdrawFees",
      "outputs": [],
      "stateMutability": "nonpayable",
      "type": "function"
    }
  ],
  "bytecode": "0x608060405234801561001057600080fd5b50604051613f60380380613f6083398101604081905261002f91610116565b338061005657604051631e4fbdf760e01b8152600060048201526024015b60405180910390fd5b61005f816100c6565b5060648111158015610072575060018110155b6100be5760405162461bcd60e51b815260206004820152601d60248201527f466565206d757374206265206265747765656e203120616e6420313030000000604482015260640161004d565b60065561012f565b600080546001600160a01b038381166001600160a01b0319831681178455604051919092169283917f8be0079c531659141344cd1fd0a4f28419497f9722a3daafe3b4186f6b6457e09190a35050565b60006020828403121561012857600080fd5b5051919050565b613e228061013e6000396000f3fe60806040526004361061010e5760003560e01c80637b3c4baa116100a55780639ee4f47d11610074578063b61f559f11610059578063b61f559f146102eb578063f23a6e611461030b578063f2fde38b1461038257600080fd5b80639ee4f47d146102b8578063a6f9dae1146102cb57600080fd5b80637b3c4baa146102155780638da5cb5b14610267578063978bbdb91461028f5780639979ef45146102a557600080fd5b8063715018a6116100e1578063715018a614610193578063745400c9146101a857806375dc7d8c146101c857806378bd7935146101e857600080fd5b80630282399a146101135780632ad7157314610135578063348a71a61461015e578063476343ee1461017e575b600080fd5b34801561011f57600080fd5b5061013361012e366004613754565b6103a2565b005b34801561014157600080fd5b5061014b60045481565b6040519081526020015b60405180910390f35b34801561016a57600080fd5b50610133610179366004613776565b61079c565b34801561018a57600080fd5b50610133610b00565b34801561019f57600080fd5b50610133610b9d565b3480156101b457600080fd5b506101336101c3366004613776565b610bb1565b3480156101d457600080fd5b5061014b6101e3366004613776565b610e6d565b3480156101f457600080fd5b50610208610203366004613776565b610e8f565b60405161015591906138a8565b34801561022157600080fd5b50610235610230366004613754565b6110e2565b604080519586526001600160a01b0390941660208601529284019190915260608301521515608082015260a001610155565b34801561027357600080fd5b506000546040516001600160a01b039091168152602001610155565b34801561029b57600080fd5b5061014b60065481565b6101336102b3366004613776565b61113d565b6101336102c63660046139ce565b6116f0565b3480156102d757600080fd5b506101336102e6366004613aea565b611962565b3480156102f757600080fd5b50610133610306366004613b0e565b611976565b34801561031757600080fd5b50610351610326366004613b3e565b7ff23a6e61000000000000000000000000000000000000000000000000000000009695505050505050565b6040517fffffffff000000000000000000000000000000000000000000000000000000009091168152602001610155565b34801561038e57600080fd5b5061013361039d366004613aea565b611dcb565b6000828152600160208190526040909120015482906001600160a01b031633036104135760405162461bcd60e51b815260206004820152601c60248201527f41732063726561746f7220796f752063616e277420646f20746869730000000060448201526064015b60405180910390fd5b6000838152600160205260409020600201548211156104745760405162461bcd60e51b815260206004820152600e60248201527f496e76616c696420626964206964000000000000000000000000000000000000604482015260640161040a565b600083815260026020526040902080543391908490811061049757610497613beb565b60009182526020909120600160059092020101546001600160a01b0316146105275760405162461bcd60e51b815260206004820152602d60248201527f596f752063616e6e6f7420776974686472617720746f6b656e7320746861742060448201527f617265206e6f7420796f75727300000000000000000000000000000000000000606482015260840161040a565b600083815260026020526040902080548390811061054757610547613beb565b600091825260209091206004600590920201015460ff16156105d15760405162461bcd60e51b815260206004820152602260248201527f546f6b656e732068617665206265656e20616c7265616479207769746864726160448201527f776e000000000000000000000000000000000000000000000000000000000000606482015260840161040a565b6000838152600160205260409020600601548214158061061057506000838152600160205260409020600301546203f4809061060d9042613c17565b10155b61065c5760405162461bcd60e51b815260206004820152601860248201527f596f752063616e742074616b652061637475616c206269640000000000000000604482015260640161040a565b6000838152600260205260409020805433916108fc918590811061068257610682613beb565b9060005260206000209060050201600201549081150290604051600060405180830381858888f193505050501580156106bf573d6000803e3d6000fd5b506000838152600260205260409020805460019190849081106106e4576106e4613beb565b906000526020600020906005020160040160006101000a81548160ff021916908315150217905550827f343dbf7cf5952b78f69fd86b25d030d987e8efb40ff3bfac7cfcad1f1bc38666833360026000888152602001908152602001600020868154811061075457610754613beb565b90600052602060002090600502016002015460405161078f939291909283526001600160a01b03919091166020830152604082015260600190565b60405180910390a2505050565b600081815260016020526040902060030154819042116107fe5760405162461bcd60e51b815260206004820152601360248201527f41756374696f6e206e6f74206578706972656400000000000000000000000000604482015260640161040a565b600082815260016020526040902060020154829061085e5760405162461bcd60e51b815260206004820152601360248201527f41756374696f6e20686173206e6f206269647300000000000000000000000000604482015260640161040a565b8233158015906108cf5750600081815260016020819052604090912001546001600160a01b03163314806108ab57506000818152600160205260409020600701546001600160a01b031633145b806108cf57506000818152600160205260409020600c01546001600160a01b031633145b6109115760405162461bcd60e51b8152602060048201526013602482015272596f752063616e27742063616c6c207468697360681b604482015260640161040a565b6000848152600160205260409020600a0154849060ff16156109755760405162461bcd60e51b815260206004820152601f60248201527f42696420616c72656164792068617665206265656e2077697468647261776e00604482015260640161040a565b6000858152600160208181526040808420338552600f8101909252808420805460ff191684179055918101546001600160a01b031683529082205490919060ff16156109c957806109c581613c2a565b9150505b60078201546001600160a01b03166000908152600f8301602052604090205460ff16156109fe57806109fa81613c2a565b9150505b600c8201546001600160a01b03166000908152600f8301602052604090205460ff1615610a335780610a2f81613c2a565b9150505b60028110158015610a50575060078201546001600160a01b031633145b15610af757600782015460088301546040516001600160a01b039092169181156108fc0291906000818181858888f19350505050158015610a95573d6000803e3d6000fd5b5060178201805460ff1916600217905560078201546008830154604080516001600160a01b039093168352602083019190915288917f1fbb358145c3622775bcaea65f7176defe61eb7cec5e487e70486ae4083a37b491015b60405180910390a25b50505050505050565b610b08611e1f565b600060055411610b5a5760405162461bcd60e51b815260206004820152601260248201527f456d70747920666565732062616c616e63650000000000000000000000000000604482015260640161040a565b600080546005546040516001600160a01b039092169281156108fc029290818181858888f19350505050158015610b95573d6000803e3d6000fd5b506000600555565b610ba5611e1f565b610baf6000611e65565b565b803315801590610c225750600081815260016020819052604090912001546001600160a01b0316331480610bfe57506000818152600160205260409020600701546001600160a01b031633145b80610c2257506000818152600160205260409020600c01546001600160a01b031633145b610c645760405162461bcd60e51b8152602060048201526013602482015272596f752063616e27742063616c6c207468697360681b604482015260640161040a565b60008281526001602052604090206003810154421015610cc65760405162461bcd60e51b815260206004820152601560248201527f41756374696f6e206e6f742079657420656e6465640000000000000000000000604482015260640161040a565b6000601782015460ff166003811115610ce157610ce16137d5565b1480610d0557506003601782015460ff166003811115610d0357610d036137d5565b145b80610d2857506002601782015460ff166003811115610d2657610d266137d5565b145b610d745760405162461bcd60e51b815260206004820152601960248201527f41756374696f6e20616c72656164792066696e616c697a656400000000000000604482015260640161040a565b60078101546001600160a01b0316610da4576001810154610d9f9084906001600160a01b0316611eb5565b505050565b6002601782015460ff166003811115610dbf57610dbf6137d5565b03610e5f5760018101546001600160a01b03163314610e465760405162461bcd60e51b815260206004820152602560248201527f4f6e6c792063726561746f722063616e2077697468647261772069662072656660448201527f756e646564000000000000000000000000000000000000000000000000000000606482015260840161040a565b6001810154610d9f9084906001600160a01b0316611eb5565b610d9f818461200b565b5050565b6000606460065483610e7f9190613c43565b610e899190613c5a565b92915050565b610e97613657565b604080516101208101825260008481526001602052919091208054829190610ebe90613c7c565b80601f0160208091040260200160405190810160405280929190818152602001828054610eea90613c7c565b8015610f375780601f10610f0c57610100808354040283529160200191610f37565b820191906000526020600020905b815481529060010190602001808311610f1a57829003601f168201915b50505091835250506000848152600160208181526040808420808401546001600160a01b03908116848801526002820154838801526003808301546060808a019190915260048401546080808b0191909152600585015460a0808c01919091528651808201885260068701548152600787015490951685890152600886015485880152600986015492850192909252600a85015460ff90811615159185019190915260c08a01939093528451908101909452958a905293909252600b9091015460e090940193909283929190911690811115611015576110156137d5565b8152604080516020818101835260008981526001808352848220600c8101546001600160a01b0390811686528488019590955285518087018752601082015481526011820154861681860152868801528551808701875260128201548152601382015486168186015260608089019190915286519081018752601482015481526015820154818601526016820154909516958501959095526080909501929092529385528790529082526017015491019060ff1660038111156110da576110da6137d5565b905292915050565b600260205281600052604060002081815481106110fe57600080fd5b6000918252602090912060059091020180546001820154600283015460038401546004909401549295506001600160a01b039091169350919060ff1685565b6000818152600160208190526040909120015481906001600160a01b031633036111a95760405162461bcd60e51b815260206004820152601c60248201527f41732063726561746f7220796f752063616e277420646f207468697300000000604482015260640161040a565b816000808281526001602052604090206017015460ff1660038111156111d1576111d16137d5565b1461121e5760405162461bcd60e51b815260206004820152601260248201527f41756374696f6e206e6f74206163746976650000000000000000000000000000604482015260640161040a565b600081815260016020526040902060030154421061127e5760405162461bcd60e51b815260206004820152600f60248201527f41756374696f6e20657870697265640000000000000000000000000000000000604482015260640161040a565b6000838152600160205260409020600701546001600160a01b031633036112e75760405162461bcd60e51b815260206004820152601a60248201527f596f7520616c726561647920706c616365206265737420626964000000000000604482015260640161040a565b6000838152600160205260409020600c01546001600160a01b031633036113505760405162461bcd60e51b815260206004820152601760248201527f417262697465722063616e7420706c6163652062696473000000000000000000604482015260640161040a565b600083815260016020526040902060048101546008909101541561139457600084815260016020526040902060058101546008909101546113919190613cb6565b90505b3460006113a082610e6d565b90506113ac8183613c17565b9150828210156113fe5760405162461bcd60e51b815260206004820152601260248201527f496e76616c69642062696420616d6f756e740000000000000000000000000000604482015260640161040a565b600086815260016020526040812060020180549161141b83613c2a565b919050555080600560008282546114329190613cb6565b9250508190555060006040518060a00160405280600160008a8152602001908152602001600020600201548152602001336001600160a01b0316815260200184815260200142815260200160001515815250905080600160008981526020019081526020016000206006016000820151816000015560208201518160010160006101000a8154816001600160a01b0302191690836001600160a01b03160217905550604082015181600201556060820151816003015560808201518160040160006101000a81548160ff021916908315150217905550905050600260008881526020019081526020016000208190806001815401808255809150506001900390600052602060002090600502016000909190919091506000820151816000015560208201518160010160006101000a8154816001600160a01b0302191690836001600160a01b03160217905550604082015181600201556060820151816003015560808201518160040160006101000a81548160ff02191690831515021790555050506040518060a00160405280600160038111156115d3576115d36137d5565b8152600060208083018290526040808401839052606084018890526080909301829052338252600380825283832060045484529091529190208251815491929091839160ff19909116906001908490811115611631576116316137d5565b0217905550602082810151825474ffffffffffffffffffffffffffffffffffffffff0019166101006001600160a01b03909216919091021782556040808401516001808501919091556060808601516002808701919091556080909601516003909501805460ff19169515159590951790945560008c8152908352819020909301548351908152339181019190915291820185905288917f6f7e354ea3ab5c288aea37fce29c603f9a98a3b040f6d8f32f10e192ec47ff6a9101610aee565b60008951118015611702575060108951105b6117745760405162461bcd60e51b815260206004820152603460248201527f5469746c65206c656e677468206d75737420626520677265617465722074686160448201527f6e203020616e64206c657373207468616e203136000000000000000000000000606482015260840161040a565b6000871180156117845750600086115b6117f65760405162461bcd60e51b815260206004820152603060248201527f53746172742062696420616e64206269642073746570206d757374206265206760448201527f726561746572207468616e207a65726f00000000000000000000000000000000606482015260840161040a565b4285116118455760405162461bcd60e51b815260206004820152601660248201527f456e642074696d65206d7573742062652076616c696400000000000000000000604482015260640161040a565b336001600160a01b038216036118a95760405162461bcd60e51b8152602060048201526024808201527f4172626974657220616e642063726561746f722063616e74206265207468652060448201526373616d6560e01b606482015260840161040a565b600480549060006118b983613c2a565b9091555050600454600090815260016020819052604090912090810180546001600160a01b03191633179055806118f08b82613d10565b5060038101869055600481018890556005810187905560178101805460ff19169055611920818a87878787612055565b6004546040513381527f5d551e2a2cc977fd8c530317059b4f2d9f504fb82f7dfad736f8d56679bcdfd09060200160405180910390a250505050505050505050565b61196a611e1f565b61197381611dcb565b50565b806001600160a01b0381166119bf5760405162461bcd60e51b815260206004820152600f60248201526e496e76616c6964206164647265737360881b604482015260640161040a565b60008381526001602052604090206003015483904211611a215760405162461bcd60e51b815260206004820152601360248201527f41756374696f6e206e6f74206578706972656400000000000000000000000000604482015260640161040a565b833315801590611a925750600081815260016020819052604090912001546001600160a01b0316331480611a6e57506000818152600160205260409020600701546001600160a01b031633145b80611a9257506000818152600160205260409020600c01546001600160a01b031633145b611ad45760405162461bcd60e51b8152602060048201526013602482015272596f752063616e27742063616c6c207468697360681b604482015260640161040a565b600085815260016020526040812090600b82015460ff166003811115611afc57611afc6137d5565b14611b495760405162461bcd60e51b815260206004820152601260248201527f496e76616c696420617373657420747970650000000000000000000000000000604482015260640161040a565b600c810180546001600160a01b03163303611ba65760405162461bcd60e51b815260206004820152601660248201527f417262697465722063616e742063616c6c207468697300000000000000000000604482015260640161040a565b80546001600160a01b0390811690871603611c035760405162461bcd60e51b815260206004820152601960248201527f5468652073616d6520617262697465722070726f766964656400000000000000604482015260640161040a565b60018201546001600160a01b0390811690871603611c6f5760405162461bcd60e51b8152602060048201526024808201527f4172626974657220616e642063726561746f722063616e74206265207468652060448201526373616d6560e01b606482015260840161040a565b60078201546001600160a01b0390811690871603611cf55760405162461bcd60e51b815260206004820152602760248201527f4172626974657220616e6420626573744269646465722063616e74206265207460448201527f68652073616d6500000000000000000000000000000000000000000000000000606482015260840161040a565b3360009081526001828101602081815260408085206001600160a01b038c8116808852918452828720805460ff1916871790559488015490941685529181528184209284529190915290205460ff168015611d7c575060078201546001600160a01b0390811660009081526001830160209081526040808320938a168352929052205460ff165b15611d9057611d8b878761213a565b610af7565b6040516001600160a01b038716815287907f3c51619398f1abe48a942eb01a1340dbec59abec0feffa9127bce5a8abbda88b90602001610aee565b611dd3611e1f565b6001600160a01b038116611e16576040517f1e4fbdf70000000000000000000000000000000000000000000000000000000081526000600482015260240161040a565b61197381611e65565b6000546001600160a01b03163314610baf576040517f118cdaa700000000000000000000000000000000000000000000000000000000815233600482015260240161040a565b600080546001600160a01b038381166001600160a01b0319831681178455604051919092169283917f8be0079c531659141344cd1fd0a4f28419497f9722a3daafe3b4186f6b6457e09190a35050565b816004541015611f075760405162461bcd60e51b815260206004820152601260248201527f496e76616c69642061756374696f6e2069640000000000000000000000000000604482015260640161040a565b6000828152600160205260408120600b015460ff1690816003811115611f2f57611f2f6137d5565b03611fa25760405162461bcd60e51b815260206004820152602a60248201527f417373657420776974682074686973207479706520646f6e7420737570706f7260448201527f7420776974686472617700000000000000000000000000000000000000000000606482015260840161040a565b6001816003811115611fb657611fb66137d5565b03611fc557610d9f83836121e3565b6002816003811115611fd957611fd96137d5565b03611fe857610d9f83836123df565b6003816003811115611ffc57611ffc6137d5565b03610d9f57610d9f83836125f9565b6017820180546003919060ff191660018302179055506000600b83015460ff16600381111561203c5761203c6137d5565b1461204b57610e698282612838565b610e698282612a51565b6000856003811115612069576120696137d5565b0361207d576120788682612ce3565b612132565b6001856003811115612091576120916137d5565b036120a157612078868584612d5d565b60028560038111156120b5576120b56137d5565b036120c557612078868585612f95565b60038560038111156120d9576120d96137d5565b036120ea5761207886858585613288565b60405162461bcd60e51b815260206004820152601260248201527f496e76616c696420617373657420747970650000000000000000000000000000604482015260640161040a565b505050505050565b806001600160a01b0381166121835760405162461bcd60e51b815260206004820152600f60248201526e496e76616c6964206164647265737360881b604482015260640161040a565b600083815260016020908152604091829020600c0180546001600160a01b0319166001600160a01b038616908117909155915191825284917fc8d8ceeeb85b71e935c56c5b01b3172ac921f56f0174509be0c62f01e84c3905910161078f565b60016000838152600160205260409020600b015460ff16600381111561220b5761220b6137d5565b146122585760405162461bcd60e51b815260206004820152601260248201527f4e6f7420616e2045524332302061737365740000000000000000000000000000604482015260640161040a565b6000828152600160208181526040808420928301546001600160a01b0316845260038083528185208786529092529092209091015460109091019060ff161580156122a35750805415155b6122ef5760405162461bcd60e51b815260206004820152601a60248201527f4e6f20455243323020617373657420746f207769746864726177000000000000604482015260640161040a565b60018101546001600160a01b031661233d5780546040516001600160a01b0384169180156108fc02916000818181858888f19350505050158015612337573d6000803e3d6000fd5b5061235f565b600181015481546001600160a01b039091169061235d908290859061351a565b505b60008381526001602081815260408084208301546001600160a01b0390811685526003808452828620898752845282862001805460ff19169094179093558454815193871684529183019190915281019190915283907ff895d2e103603a54f3c09d322ea7b813007f4f3d4f609c3d17f04c737f39f2f89060600161078f565b60026000838152600160205260409020600b015460ff166003811115612407576124076137d5565b146124545760405162461bcd60e51b815260206004820152601360248201527f4e6f7420616e2045524337323120617373657400000000000000000000000000604482015260640161040a565b6000828152600160208181526040808420909201546001600160a01b0316835260038082528284208685529091529120015460ff16156124d65760405162461bcd60e51b815260206004820181905260248201527f546f6b656e20686173206265656e20616c72656164792077697468647261776e604482015260640161040a565b6000828152600160209081526040918290208251808401845260128201548082526013909201546001600160a01b0390811693820184905293516323b872dd60e01b8152306004820152938516602485015260448401919091529181906323b872dd90606401600060405180830381600087803b15801561255657600080fd5b505af115801561256a573d6000803e3d6000fd5b50505060008581526001602081815260408084208301546001600160a01b03908116855260038084528286208b8752845282862001805460ff191690941790935586518151938916845291830193909352918101919091528591507ff895d2e103603a54f3c09d322ea7b813007f4f3d4f609c3d17f04c737f39f2f8906060015b60405180910390a250505050565b60036000838152600160205260409020600b015460ff166003811115612621576126216137d5565b1461266e5760405162461bcd60e51b815260206004820152601460248201527f4e6f7420616e2045524331313535206173736574000000000000000000000000604482015260640161040a565b600082815260016020818152604080842081516060810183526014820154815260158201548185015260168201546001600160a01b0390811682850152919094015416845260038083528185208786529092529092209091015460ff161580156126dc575060008160200151115b6127285760405162461bcd60e51b815260206004820152601c60248201527f4e6f204552433131353520617373657420746f20776974686472617700000000604482015260640161040a565b604081810151825160208401519251637921219560e11b81523060048201526001600160a01b0386811660248301526044820192909252606481019390935260a06084840152600060a484015290919082169063f242432a9060c401600060405180830381600087803b15801561279e57600080fd5b505af11580156127b2573d6000803e3d6000fd5b50505060008581526001602081815260408084208301546001600160a01b03908116855260038084528286208b8752845294829020909401805460ff19169093179092558581015186518351948916855291840152908201528591507ff895d2e103603a54f3c09d322ea7b813007f4f3d4f609c3d17f04c737f39f2f8906060016125eb565b8033158015906128a95750600081815260016020819052604090912001546001600160a01b031633148061288557506000818152600160205260409020600701546001600160a01b031633145b806128a957506000818152600160205260409020600c01546001600160a01b031633145b6128eb5760405162461bcd60e51b8152602060048201526013602482015272596f752063616e27742063616c6c207468697360681b604482015260640161040a565b60018301546001600160a01b0316330361299a57600a83015460ff16156129545760405162461bcd60e51b815260206004820152601f60248201527f42696420616c72656164792068617665206265656e2077697468647261776e00604482015260640161040a565b600183015460088401546040516001600160a01b039092169181156108fc0291906000818181858888f19350505050158015612994573d6000803e3d6000fd5b506129b3565b60078301546129b39083906001600160a01b0316611eb5565b600a83015460ff1680156129f0575060018301546001600160a01b03166000908152600360208181526040808420868552909152909120015460ff165b15610d9f5760178301805460ff1916600117905560078301546008840154604080516001600160a01b039093168352602083019190915283917f4d9113a1377d665eaa1f9168a9c9080f2e488cb820b10149de3d6d2e0f2780c7910161078f565b6000818152600160205260409020600a0154819060ff1615612ab55760405162461bcd60e51b815260206004820152601f60248201527f42696420616c72656164792068617665206265656e2077697468647261776e00604482015260640161040a565b813315801590612b265750600081815260016020819052604090912001546001600160a01b0316331480612b0257506000818152600160205260409020600701546001600160a01b031633145b80612b2657506000818152600160205260409020600c01546001600160a01b031633145b612b685760405162461bcd60e51b8152602060048201526013602482015272596f752063616e27742063616c6c207468697360681b604482015260640161040a565b336000908152600e85016020526040808220805460ff191660019081179091558601546001600160a01b0316825281205460ff1615612baf5780612bab81613c2a565b9150505b60078501546001600160a01b03166000908152600e8601602052604090205460ff1615612be45780612be081613c2a565b9150505b600c8501546001600160a01b03166000908152600e8601602052604090205460ff1615612c195780612c1581613c2a565b9150505b60028110158015612c36575060018501546001600160a01b031633145b15612cdc57600185015460088601546040516001600160a01b039092169181156108fc0291906000818181858888f19350505050158015612c7b573d6000803e3d6000fd5b5060178501805460ff1916600117905560078501546008860154604080516001600160a01b039093168352602083019190915285917f4d9113a1377d665eaa1f9168a9c9080f2e488cb820b10149de3d6d2e0f2780c7910160405180910390a25b5050505050565b806001600160a01b038116612d2c5760405162461bcd60e51b815260206004820152600f60248201526e496e76616c6964206164647265737360881b604482015260640161040a565b50600b8201805460ff19169055600c90910180546001600160a01b0319166001600160a01b03909216919091179055565b60008111612dad5760405162461bcd60e51b815260206004820152601460248201527f496e76616c696420455243323020616d6f756e74000000000000000000000000604482015260640161040a565b6000612db882610e6d565b90506001600160a01b038316612e2b57348214612e175760405162461bcd60e51b815260206004820152601260248201527f496e76616c69642045544820616d6f756e740000000000000000000000000000604482015260640161040a565b612e218183613c17565b6010850155612e8c565b82612e416001600160a01b03821633308661358e565b60405180604001604052808385612e589190613c17565b81526001600160a01b039283166020918201528151601088015501516011860180546001600160a01b031916919092161790555b8060056000828254612e9e9190613cb6565b9091555050600b84018054600160ff1991821681179092556040805160a0810182528381526001600160a01b038716602080830191909152600082840181905260108a0154606084015260808301819052338152600380835284822060045483529092529290922081518154929591949093859390911691908490811115612f2857612f286137d5565b02179055506020820151815474ffffffffffffffffffffffffffffffffffffffff0019166101006001600160a01b039092169190910217815560408201516001820155606082015160028201556080909101516003909101805460ff191691151591909117905550505050565b816001600160a01b038116612fde5760405162461bcd60e51b815260206004820152600f60248201526e496e76616c6964206164647265737360881b604482015260640161040a565b828261302c5760405162461bcd60e51b815260206004820152600f60248201527f496e76616c696420617373657449640000000000000000000000000000000000604482015260640161040a565b6040517f081812fc0000000000000000000000000000000000000000000000000000000081526004810184905230906001600160a01b0383169063081812fc90602401602060405180830381865afa15801561308c573d6000803e3d6000fd5b505050506040513d601f19601f820116820180604052508101906130b09190613dcf565b6001600160a01b0316146131065760405162461bcd60e51b815260206004820152601d60248201527f4552433732313a20696e73756666696369656e7420617070726f76616c000000604482015260640161040a565b6040516323b872dd60e01b8152336004820152306024820152604481018490526001600160a01b038216906323b872dd90606401600060405180830381600087803b15801561315457600080fd5b505af1158015613168573d6000803e3d6000fd5b50505050600b85018054600260ff1991821681179092556040805180820182528681526001600160a01b03858116602092830181905260128b0189905560138b0180546001600160a01b0319169091179055825160a0810184529485528816848201528382018790526000606085018190526080850181905233815260038083528382206004548352909252919091208351815491939092849290911690600190849081111561321a5761321a6137d5565b02179055506020820151815474ffffffffffffffffffffffffffffffffffffffff0019166101006001600160a01b039092169190910217815560408201516001820155606082015160028201556080909101516003909101805460ff19169115159190911790555050505050565b826001600160a01b0381166132d15760405162461bcd60e51b815260206004820152600f60248201526e496e76616c6964206164647265737360881b604482015260640161040a565b600082116133215760405162461bcd60e51b815260206004820152601660248201527f496e76616c6964204552433131353520616d6f756e7400000000000000000000604482015260640161040a565b600083116133715760405162461bcd60e51b815260206004820152600f60248201527f496e76616c696420617373657449640000000000000000000000000000000000604482015260640161040a565b604051637921219560e11b8152336004820152306024820152604481018490526064810183905260a06084820152600060a482015284906001600160a01b0382169063f242432a9060c401600060405180830381600087803b1580156133d657600080fd5b505af11580156133ea573d6000803e3d6000fd5b50505050600b86018054600360ff199182168117909255604080516060808201835288825260208083018990526001600160a01b0387811693850184905260148d018b905560158d018a905560168d0180546001600160a01b031916909417909355835160a081018552868152928b16838201528284018a905290820188905260006080830181905233815285825283812060045482529091529190912081518154929491939092849291169060019084908111156134ab576134ab6137d5565b02179055506020820151815474ffffffffffffffffffffffffffffffffffffffff0019166101006001600160a01b039092169190910217815560408201516001820155606082015160028201556080909101516003909101805460ff1916911515919091179055505050505050565b6040516001600160a01b03838116602483015260448201839052610d9f91859182169063a9059cbb906064015b604051602081830303815290604052915060e01b6020820180517bffffffffffffffffffffffffffffffffffffffffffffffffffffffff83818316178352505050506135cd565b6040516001600160a01b0384811660248301528381166044830152606482018390526135c79186918216906323b872dd90608401613547565b50505050565b600080602060008451602086016000885af1806135f0576040513d6000823e3d81fd5b50506000513d91508115613608578060011415613615565b6001600160a01b0384163b155b156135c7576040517f5274afe70000000000000000000000000000000000000000000000000000000081526001600160a01b038516600482015260240161040a565b6040518061012001604052806060815260200160006001600160a01b03168152602001600081526020016000815260200160008152602001600081526020016136d36040518060a001604052806000815260200160006001600160a01b0316815260200160008152602001600081526020016000151581525090565b81526020016137486040805160a08101825260008082528251602080820185528282528084019190915283518085018552828152808201839052838501528351808501909452818452830152906060820190815260408051606081018252600080825260208281018290529282015291015290565b81526020016000905290565b6000806040838503121561376757600080fd5b50508035926020909101359150565b60006020828403121561378857600080fd5b5035919050565b6000815180845260005b818110156137b557602081850181015186830182015201613799565b506000602082860101526020601f19601f83011685010191505092915050565b634e487b7160e01b600052602160045260246000fd5b6004811061197357634e487b7160e01b600052602160045260246000fd5b8051613814816137eb565b808352506001600160a01b036020820151511660208301526040810151805160408401526001600160a01b036020820151166060840152506060810151805160808401526001600160a01b0360208201511660a0840152506080810151610d9f60c084018280518252602080820151908301526040908101516001600160a01b0316910152565b6138a4816137eb565b9052565b60208152600082516102a060208401526138c66102c084018261378f565b905060208401516138e260408501826001600160a01b03169052565b506040840151606084015260608401516080840152608084015160a084015260a084015160c084015260c084015161395360e0850182805182526001600160a01b03602082015116602083015260408101516040830152606081015160608301526080810151151560808301525050565b5060e0840151613967610180850182613809565b5061010084015161397c6102a085018261389b565b509392505050565b634e487b7160e01b600052604160045260246000fd5b8035600481106139a957600080fd5b919050565b6001600160a01b038116811461197357600080fd5b80356139a9816139ae565b60008060008060008060008060006101208a8c0312156139ed57600080fd5b893567ffffffffffffffff811115613a0457600080fd5b8a01601f81018c13613a1557600080fd5b803567ffffffffffffffff811115613a2f57613a2f613984565b604051601f8201601f19908116603f0116810167ffffffffffffffff81118282101715613a5e57613a5e613984565b6040528181528282016020018e1015613a7657600080fd5b81602084016020830137600060208383010152809b50505050613a9b60208b0161399a565b975060408a0135965060608a0135955060808a01359450613abe60a08b016139c3565b935060c08a0135925060e08a01359150613adb6101008b016139c3565b90509295985092959850929598565b600060208284031215613afc57600080fd5b8135613b07816139ae565b9392505050565b60008060408385031215613b2157600080fd5b823591506020830135613b33816139ae565b809150509250929050565b60008060008060008060a08789031215613b5757600080fd5b8635613b62816139ae565b95506020870135613b72816139ae565b94506040870135935060608701359250608087013567ffffffffffffffff811115613b9c57600080fd5b8701601f81018913613bad57600080fd5b803567ffffffffffffffff811115613bc457600080fd5b896020828401011115613bd657600080fd5b60208201935080925050509295509295509295565b634e487b7160e01b600052603260045260246000fd5b634e487b7160e01b600052601160045260246000fd5b81810381811115610e8957610e89613c01565b600060018201613c3c57613c3c613c01565b5060010190565b8082028115828204841417610e8957610e89613c01565b600082613c7757634e487b7160e01b600052601260045260246000fd5b500490565b600181811c90821680613c9057607f821691505b602082108103613cb057634e487b7160e01b600052602260045260246000fd5b50919050565b80820180821115610e8957610e89613c01565b601f821115610d9f57806000526020600020601f840160051c81016020851015613cf05750805b601f840160051c820191505b81811015612cdc5760008155600101613cfc565b815167ffffffffffffffff811115613d2a57613d2a613984565b613d3e81613d388454613c7c565b84613cc9565b6020601f821160018114613d725760008315613d5a5750848201515b600019600385901b1c1916600184901b178455612cdc565b600084815260208120601f198516915b82811015613da25787850151825560209485019460019092019101613d82565b5084821015613dc05786840151600019600387901b60f8161c191681555b50505050600190811b01905550565b600060208284031215613de157600080fd5b8151613b07816139ae56fea264697066735822122055d3ea1bf8fbb978d06c06c64e14ba27ccdb6a320519e91ebc790478ab9b078664736f6c634300081c0033",
  "linkReferences": {},
  "deployedLinkReferences": {}
}