{
  "_format": "hh-sol-artifact-1",
  "contractName": "AuctionHouse",
  "sourceName": "contracts/Auction.sol",
  "abi": [
    {
      "inputs": [
        {
          "internalType": "uint256",
          "name": "_fee",
          "type": "uint256"
        },
        {
          "internalType": "address",
          "name": "_owner",
          "type": "address"
        }
      ],
      "stateMutability": "nonpayable",
      "type": "constructor"
    },
    {
      "inputs": [
        {
          "internalType": "address",
          "name": "owner",
          "type": "address"
        }
      ],
      "name": "OwnableInvalidOwner",
      "type": "error"
    },
    {
      "inputs": [
        {
          "internalType": "address",
          "name": "account",
          "type": "address"
        }
      ],
      "name": "OwnableUnauthorizedAccount",
      "type": "error"
    },
    {
      "inputs": [
        {
          "internalType": "address",
          "name": "token",
          "type": "address"
        }
      ],
      "name": "SafeERC20FailedOperation",
      "type": "error"
    },
    {
      "anonymous": false,
      "inputs": [
        {
          "indexed": true,
          "internalType": "uint256",
          "name": "auctionId",
          "type": "uint256"
        },
        {
          "indexed": false,
          "internalType": "address",
          "name": "arbiter",
          "type": "address"
        }
      ],
      "name": "ArbiterSet",
      "type": "event"
    },
    {
      "anonymous": false,
      "inputs": [
        {
          "indexed": true,
          "internalType": "uint256",
          "name": "auctionId",
          "type": "uint256"
        },
        {
          "indexed": false,
          "internalType": "address",
          "name": "creator",
          "type": "address"
        }
      ],
      "name": "AuctionCreated",
      "type": "event"
    },
    {
      "anonymous": false,
      "inputs": [
        {
          "indexed": true,
          "internalType": "uint256",
          "name": "auctionId",
          "type": "uint256"
        },
        {
          "indexed": false,
          "internalType": "address",
          "name": "winner",
          "type": "address"
        },
        {
          "indexed": false,
          "internalType": "uint256",
          "name": "finalPrice",
          "type": "uint256"
        }
      ],
      "name": "AuctionFinalized",
      "type": "event"
    },
    {
      "anonymous": false,
      "inputs": [
        {
          "indexed": true,
          "internalType": "uint256",
          "name": "auctionId",
          "type": "uint256"
        },
        {
          "indexed": false,
          "internalType": "address",
          "name": "bidder",
          "type": "address"
        },
        {
          "indexed": false,
          "internalType": "uint256",
          "name": "refundedAmount",
          "type": "uint256"
        }
      ],
      "name": "AuctionRefunded",
      "type": "event"
    },
    {
      "anonymous": false,
      "inputs": [
        {
          "indexed": true,
          "internalType": "uint256",
          "name": "auctionId",
          "type": "uint256"
        },
        {
          "indexed": false,
          "internalType": "uint256",
          "name": "bidId",
          "type": "uint256"
        },
        {
          "indexed": false,
          "internalType": "address",
          "name": "bidder",
          "type": "address"
        },
        {
          "indexed": false,
          "internalType": "uint256",
          "name": "amount",
          "type": "uint256"
        }
      ],
      "name": "BidPlaced",
      "type": "event"
    },
    {
      "anonymous": false,
      "inputs": [
        {
          "indexed": true,
          "internalType": "uint256",
          "name": "auctionId",
          "type": "uint256"
        },
        {
          "indexed": false,
          "internalType": "uint256",
          "name": "bidId",
          "type": "uint256"
        },
        {
          "indexed": false,
          "internalType": "address",
          "name": "bidder",
          "type": "address"
        },
        {
          "indexed": false,
          "internalType": "uint256",
          "name": "amount",
          "type": "uint256"
        }
      ],
      "name": "BidWithdrawn",
      "type": "event"
    },
    {
      "anonymous": false,
      "inputs": [
        {
          "indexed": true,
          "internalType": "uint256",
          "name": "auctionId",
          "type": "uint256"
        },
        {
          "indexed": false,
          "internalType": "address",
          "name": "arbiter",
          "type": "address"
        }
      ],
      "name": "NewArbiterRequest",
      "type": "event"
    },
    {
      "anonymous": false,
      "inputs": [
        {
          "indexed": true,
          "internalType": "address",
          "name": "previousOwner",
          "type": "address"
        },
        {
          "indexed": true,
          "internalType": "address",
          "name": "newOwner",
          "type": "address"
        }
      ],
      "name": "OwnershipTransferred",
      "type": "event"
    },
    {
      "inputs": [
        {
          "internalType": "uint256",
          "name": "auctionId",
          "type": "uint256"
        }
      ],
      "name": "approveRefund",
      "outputs": [],
      "stateMutability": "nonpayable",
      "type": "function"
    },
    {
      "inputs": [],
      "name": "auctionCount",
      "outputs": [
        {
          "internalType": "uint256",
          "name": "",
          "type": "uint256"
        }
      ],
      "stateMutability": "view",
      "type": "function"
    },
    {
      "inputs": [
        {
          "internalType": "uint256",
          "name": "",
          "type": "uint256"
        },
        {
          "internalType": "uint256",
          "name": "",
          "type": "uint256"
        }
      ],
      "name": "bids",
      "outputs": [
        {
          "internalType": "uint256",
          "name": "id",
          "type": "uint256"
        },
        {
          "internalType": "address",
          "name": "sender",
          "type": "address"
        },
        {
          "internalType": "uint256",
          "name": "price",
          "type": "uint256"
        },
        {
          "internalType": "uint256",
          "name": "date",
          "type": "uint256"
        },
        {
          "internalType": "bool",
          "name": "withdrawn",
          "type": "bool"
        }
      ],
      "stateMutability": "view",
      "type": "function"
    },
    {
      "inputs": [
        {
          "internalType": "uint256",
          "name": "amount",
          "type": "uint256"
        }
      ],
      "name": "calcFee",
      "outputs": [
        {
          "internalType": "uint256",
          "name": "",
          "type": "uint256"
        }
      ],
      "stateMutability": "view",
      "type": "function"
    },
    {
      "inputs": [
        {
          "internalType": "address",
          "name": "newOwner",
          "type": "address"
        }
      ],
      "name": "changeOwner",
      "outputs": [],
      "stateMutability": "nonpayable",
      "type": "function"
    },
    {
      "inputs": [
        {
          "internalType": "string",
          "name": "title",
          "type": "string"
        },
        {
          "internalType": "enum AuctionHouse.AssetType",
          "name": "assetType",
          "type": "uint8"
        },
        {
          "internalType": "uint256",
          "name": "startPrice",
          "type": "uint256"
        },
        {
          "internalType": "uint256",
          "name": "bidStep",
          "type": "uint256"
        },
        {
          "internalType": "uint256",
          "name": "endTime",
          "type": "uint256"
        },
        {
          "internalType": "address",
          "name": "assetContract",
          "type": "address"
        },
        {
          "internalType": "uint256",
          "name": "assetId",
          "type": "uint256"
        },
        {
          "internalType": "uint256",
          "name": "assetAmount",
          "type": "uint256"
        },
        {
          "internalType": "address",
          "name": "arbiter",
          "type": "address"
        }
      ],
      "name": "createAuction",
      "outputs": [],
      "stateMutability": "payable",
      "type": "function"
    },
    {
      "inputs": [],
      "name": "feeRate",
      "outputs": [
        {
          "internalType": "uint256",
          "name": "",
          "type": "uint256"
        }
      ],
      "stateMutability": "view",
      "type": "function"
    },
    {
      "inputs": [
        {
          "internalType": "uint256",
          "name": "auctionId",
          "type": "uint256"
        }
      ],
      "name": "getAuction",
      "outputs": [
        {
          "components": [
            {
              "internalType": "string",
              "name": "title",
              "type": "string"
            },
            {
              "internalType": "address",
              "name": "creator",
              "type": "address"
            },
            {
              "internalType": "uint256",
              "name": "bidsCount",
              "type": "uint256"
            },
            {
              "internalType": "uint256",
              "name": "endTime",
              "type": "uint256"
            },
            {
              "internalType": "uint256",
              "name": "startPrice",
              "type": "uint256"
            },
            {
              "internalType": "uint256",
              "name": "bidStep",
              "type": "uint256"
            },
            {
              "components": [
                {
                  "internalType": "uint256",
                  "name": "id",
                  "type": "uint256"
                },
                {
                  "internalType": "address",
                  "name": "sender",
                  "type": "address"
                },
                {
                  "internalType": "uint256",
                  "name": "price",
                  "type": "uint256"
                },
                {
                  "internalType": "uint256",
                  "name": "date",
                  "type": "uint256"
                },
                {
                  "internalType": "bool",
                  "name": "withdrawn",
                  "type": "bool"
                }
              ],
              "internalType": "struct AuctionHouse.Bid",
              "name": "bestBid",
              "type": "tuple"
            },
            {
              "components": [
                {
                  "internalType": "enum AuctionHouse.AssetType",
                  "name": "kind",
                  "type": "uint8"
                },
                {
                  "components": [
                    {
                      "internalType": "address",
                      "name": "arbiter",
                      "type": "address"
                    }
                  ],
                  "internalType": "struct AuctionHouse.RealAssetView",
                  "name": "real",
                  "type": "tuple"
                },
                {
                  "components": [
                    {
                      "internalType": "uint256",
                      "name": "amount",
                      "type": "uint256"
                    },
                    {
                      "internalType": "contract IERC20",
                      "name": "tokenContract",
                      "type": "address"
                    }
                  ],
                  "internalType": "struct AuctionHouse.ERC20Asset",
                  "name": "erc20",
                  "type": "tuple"
                },
                {
                  "components": [
                    {
                      "internalType": "uint256",
                      "name": "id",
                      "type": "uint256"
                    },
                    {
                      "internalType": "contract IERC721",
                      "name": "tokenContract",
                      "type": "address"
                    }
                  ],
                  "internalType": "struct AuctionHouse.ERC721Asset",
                  "name": "erc721",
                  "type": "tuple"
                },
                {
                  "components": [
                    {
                      "internalType": "uint256",
                      "name": "id",
                      "type": "uint256"
                    },
                    {
                      "internalType": "uint256",
                      "name": "amount",
                      "type": "uint256"
                    },
                    {
                      "internalType": "contract IERC1155",
                      "name": "tokenContract",
                      "type": "address"
                    }
                  ],
                  "internalType": "struct AuctionHouse.ERC1155Asset",
                  "name": "erc1155",
                  "type": "tuple"
                }
              ],
              "internalType": "struct AuctionHouse.AssetView",
              "name": "asset",
              "type": "tuple"
            },
            {
              "internalType": "enum AuctionHouse.AuctionStatus",
              "name": "status",
              "type": "uint8"
            }
          ],
          "internalType": "struct AuctionHouse.AuctionView",
          "name": "",
          "type": "tuple"
        }
      ],
      "stateMutability": "view",
      "type": "function"
    },
    {
      "inputs": [
        {
          "internalType": "address",
          "name": "",
          "type": "address"
        },
        {
          "internalType": "address",
          "name": "",
          "type": "address"
        },
        {
          "internalType": "uint256",
          "name": "",
          "type": "uint256"
        },
        {
          "internalType": "uint256",
          "name": "",
          "type": "uint256"
        },
        {
          "internalType": "bytes",
          "name": "",
          "type": "bytes"
        }
      ],
      "name": "onERC1155Received",
      "outputs": [
        {
          "internalType": "bytes4",
          "name": "",
          "type": "bytes4"
        }
      ],
      "stateMutability": "pure",
      "type": "function"
    },
    {
      "inputs": [],
      "name": "owner",
      "outputs": [
        {
          "internalType": "address",
          "name": "",
          "type": "address"
        }
      ],
      "stateMutability": "view",
      "type": "function"
    },
    {
      "inputs": [
        {
          "internalType": "uint256",
          "name": "auctionId",
          "type": "uint256"
        }
      ],
      "name": "placeBid",
      "outputs": [],
      "stateMutability": "payable",
      "type": "function"
    },
    {
      "inputs": [],
      "name": "renounceOwnership",
      "outputs": [],
      "stateMutability": "nonpayable",
      "type": "function"
    },
    {
      "inputs": [
        {
          "internalType": "uint256",
          "name": "auctionId",
          "type": "uint256"
        }
      ],
      "name": "requestWithdraw",
      "outputs": [],
      "stateMutability": "nonpayable",
      "type": "function"
    },
    {
      "inputs": [
        {
          "internalType": "uint256",
          "name": "auctionId",
          "type": "uint256"
        },
        {
          "internalType": "uint256",
          "name": "bidId",
          "type": "uint256"
        }
      ],
      "name": "takeMyBid",
      "outputs": [],
      "stateMutability": "nonpayable",
      "type": "function"
    },
    {
      "inputs": [
        {
          "internalType": "address",
          "name": "newOwner",
          "type": "address"
        }
      ],
      "name": "transferOwnership",
      "outputs": [],
      "stateMutability": "nonpayable",
      "type": "function"
    },
    {
      "inputs": [
        {
          "internalType": "uint256",
          "name": "auctionId",
          "type": "uint256"
        },
        {
          "internalType": "address",
          "name": "newArbiter",
          "type": "address"
        }
      ],
      "name": "verifyNewArbiter",
      "outputs": [],
      "stateMutability": "nonpayable",
      "type": "function"
    },
    {
      "inputs": [],
      "name": "withdrawFees",
      "outputs": [],
      "stateMutability": "nonpayable",
      "type": "function"
    }
  ],
  "bytecode": "0x608060405234801561001057600080fd5b506040516179ce3803806179ce83398181016040528101906100329190610271565b80600073ffffffffffffffffffffffffffffffffffffffff168173ffffffffffffffffffffffffffffffffffffffff16036100a55760006040517f1e4fbdf700000000000000000000000000000000000000000000000000000000815260040161009c91906102c0565b60405180910390fd5b6100b48161011460201b60201c565b50606482111580156100c7575060018210155b610106576040517f08c379a00000000000000000000000000000000000000000000000000000000081526004016100fd90610338565b60405180910390fd5b816006819055505050610358565b60008060009054906101000a900473ffffffffffffffffffffffffffffffffffffffff169050816000806101000a81548173ffffffffffffffffffffffffffffffffffffffff021916908373ffffffffffffffffffffffffffffffffffffffff1602179055508173ffffffffffffffffffffffffffffffffffffffff168173ffffffffffffffffffffffffffffffffffffffff167f8be0079c531659141344cd1fd0a4f28419497f9722a3daafe3b4186f6b6457e060405160405180910390a35050565b600080fd5b6000819050919050565b6101f0816101dd565b81146101fb57600080fd5b50565b60008151905061020d816101e7565b92915050565b600073ffffffffffffffffffffffffffffffffffffffff82169050919050565b600061023e82610213565b9050919050565b61024e81610233565b811461025957600080fd5b50565b60008151905061026b81610245565b92915050565b60008060408385031215610288576102876101d8565b5b6000610296858286016101fe565b92505060206102a78582860161025c565b9150509250929050565b6102ba81610233565b82525050565b60006020820190506102d560008301846102b1565b92915050565b600082825260208201905092915050565b7f466565206d757374206265206265747765656e203120616e6420313030000000600082015250565b6000610322601d836102db565b915061032d826102ec565b602082019050919050565b6000602082019050818103600083015261035181610315565b9050919050565b617667806103676000396000f3fe6080604052600436106100fe5760003560e01c80637b3c4baa116100955780639ee4f47d116100645780639ee4f47d14610304578063a6f9dae114610320578063b61f559f14610349578063f23a6e6114610372578063f2fde38b146103af576100fe565b80637b3c4baa146102515780638da5cb5b14610292578063978bbdb9146102bd5780639979ef45146102e8576100fe565b8063715018a6116100d1578063715018a614610197578063745400c9146101ae57806375dc7d8c146101d757806378bd793514610214576100fe565b80630282399a146101035780632ad715731461012c578063348a71a614610157578063476343ee14610180575b600080fd5b34801561010f57600080fd5b5061012a60048036038101906101259190615408565b6103d8565b005b34801561013857600080fd5b506101416107ec565b60405161014e9190615457565b60405180910390f35b34801561016357600080fd5b5061017e60048036038101906101799190615472565b6107f2565b005b34801561018c57600080fd5b50610195610e71565b005b3480156101a357600080fd5b506101ac610f18565b005b3480156101ba57600080fd5b506101d560048036038101906101d09190615472565b610f2c565b005b3480156101e357600080fd5b506101fe60048036038101906101f99190615472565b61145e565b60405161020b9190615457565b60405180910390f35b34801561022057600080fd5b5061023b60048036038101906102369190615472565b611481565b604051610248919061594d565b60405180910390f35b34801561025d57600080fd5b5061027860048036038101906102739190615408565b611947565b60405161028995949392919061598d565b60405180910390f35b34801561029e57600080fd5b506102a76119c7565b6040516102b491906159e0565b60405180910390f35b3480156102c957600080fd5b506102d26119f0565b6040516102df9190615457565b60405180910390f35b61030260048036038101906102fd9190615472565b6119f6565b005b61031e60048036038101906103199190615b81565b61215e565b005b34801561032c57600080fd5b5061034760048036038101906103429190615c67565b6123d0565b005b34801561035557600080fd5b50610370600480360381019061036b9190615c94565b6123e4565b005b34801561037e57600080fd5b5061039960048036038101906103949190615d34565b612bac565b6040516103a69190615e09565b60405180910390f35b3480156103bb57600080fd5b506103d660048036038101906103d19190615c67565b612bc2565b005b816001600082815260200190815260200160002060010160009054906101000a900473ffffffffffffffffffffffffffffffffffffffff1673ffffffffffffffffffffffffffffffffffffffff163373ffffffffffffffffffffffffffffffffffffffff160361047d576040517f08c379a000000000000000000000000000000000000000000000000000000000815260040161047490615e81565b60405180910390fd5b81600160008581526020019081526020016000206002015410156104d6576040517f08c379a00000000000000000000000000000000000000000000000000000000081526004016104cd90615eed565b60405180910390fd5b3373ffffffffffffffffffffffffffffffffffffffff1660026000858152602001908152602001600020838154811061051257610511615f0d565b5b906000526020600020906005020160010160009054906101000a900473ffffffffffffffffffffffffffffffffffffffff1673ffffffffffffffffffffffffffffffffffffffff161461059a576040517f08c379a000000000000000000000000000000000000000000000000000000000815260040161059190615fae565b60405180910390fd5b6002600084815260200190815260200160002082815481106105bf576105be615f0d565b5b906000526020600020906005020160040160009054906101000a900460ff161561061e576040517f08c379a000000000000000000000000000000000000000000000000000000000815260040161061590616040565b60405180910390fd5b81600160008581526020019081526020016000206006016000015414158061066a57506203f480600160008581526020019081526020016000206003015442610667919061608f565b10155b6106a9576040517f08c379a00000000000000000000000000000000000000000000000000000000081526004016106a09061610f565b60405180910390fd5b3373ffffffffffffffffffffffffffffffffffffffff166108fc6002600086815260200190815260200160002084815481106106e8576106e7615f0d565b5b9060005260206000209060050201600201549081150290604051600060405180830381858888f19350505050158015610725573d6000803e3d6000fd5b50600160026000858152602001908152602001600020838154811061074d5761074c615f0d565b5b906000526020600020906005020160040160006101000a81548160ff021916908315150217905550827f343dbf7cf5952b78f69fd86b25d030d987e8efb40ff3bfac7cfcad1f1bc3866683336002600088815260200190815260200160002086815481106107be576107bd615f0d565b5b9060005260206000209060050201600201546040516107df9392919061612f565b60405180910390a2505050565b60045481565b804260016000838152602001908152602001600020600301541061084b576040517f08c379a0000000000000000000000000000000000000000000000000000000008152600401610842906161b2565b60405180910390fd5b8160006001600083815260200190815260200160002060020154116108a5576040517f08c379a000000000000000000000000000000000000000000000000000000000815260040161089c9061621e565b60405180910390fd5b82600073ffffffffffffffffffffffffffffffffffffffff163373ffffffffffffffffffffffffffffffffffffffff1614158015610a2557506001600082815260200190815260200160002060010160009054906101000a900473ffffffffffffffffffffffffffffffffffffffff1673ffffffffffffffffffffffffffffffffffffffff163373ffffffffffffffffffffffffffffffffffffffff1614806109b257506001600082815260200190815260200160002060060160010160009054906101000a900473ffffffffffffffffffffffffffffffffffffffff1673ffffffffffffffffffffffffffffffffffffffff163373ffffffffffffffffffffffffffffffffffffffff16145b80610a24575060016000828152602001908152602001600020600b0160010160000160009054906101000a900473ffffffffffffffffffffffffffffffffffffffff1673ffffffffffffffffffffffffffffffffffffffff163373ffffffffffffffffffffffffffffffffffffffff16145b5b610a64576040517f08c379a0000000000000000000000000000000000000000000000000000000008152600401610a5b9061628a565b60405180910390fd5b836001600082815260200190815260200160002060060160040160009054906101000a900460ff1615610acc576040517f08c379a0000000000000000000000000000000000000000000000000000000008152600401610ac3906162f6565b60405180910390fd5b6000600160008781526020019081526020016000209050600181600b0160010160030160003373ffffffffffffffffffffffffffffffffffffffff1673ffffffffffffffffffffffffffffffffffffffff16815260200190815260200160002060006101000a81548160ff021916908315150217905550600081600b0160010160030160008360010160009054906101000a900473ffffffffffffffffffffffffffffffffffffffff1673ffffffffffffffffffffffffffffffffffffffff1673ffffffffffffffffffffffffffffffffffffffff16815260200190815260200160002060009054906101000a900460ff1615610bd2578080610bce90616316565b9150505b81600b0160010160030160008360060160010160009054906101000a900473ffffffffffffffffffffffffffffffffffffffff1673ffffffffffffffffffffffffffffffffffffffff1673ffffffffffffffffffffffffffffffffffffffff16815260200190815260200160002060009054906101000a900460ff1615610c62578080610c5e90616316565b9150505b81600b01600101600301600083600b0160010160000160009054906101000a900473ffffffffffffffffffffffffffffffffffffffff1673ffffffffffffffffffffffffffffffffffffffff1673ffffffffffffffffffffffffffffffffffffffff16815260200190815260200160002060009054906101000a900460ff1615610cf5578080610cf190616316565b9150505b60028110158015610d5857508160060160010160009054906101000a900473ffffffffffffffffffffffffffffffffffffffff1673ffffffffffffffffffffffffffffffffffffffff163373ffffffffffffffffffffffffffffffffffffffff16145b15610e68578160060160010160009054906101000a900473ffffffffffffffffffffffffffffffffffffffff1673ffffffffffffffffffffffffffffffffffffffff166108fc83600601600201549081150290604051600060405180830381858888f19350505050158015610dd1573d6000803e3d6000fd5b5060028260170160006101000a81548160ff02191690836003811115610dfa57610df9615602565b5b0217905550867f1fbb358145c3622775bcaea65f7176defe61eb7cec5e487e70486ae4083a37b48360060160010160009054906101000a900473ffffffffffffffffffffffffffffffffffffffff168460060160020154604051610e5f92919061635e565b60405180910390a25b50505050505050565b610e79612c48565b600060055411610ebe576040517f08c379a0000000000000000000000000000000000000000000000000000000008152600401610eb5906163d3565b60405180910390fd5b610ec66119c7565b73ffffffffffffffffffffffffffffffffffffffff166108fc6005549081150290604051600060405180830381858888f19350505050158015610f0d573d6000803e3d6000fd5b506000600581905550565b610f20612c48565b610f2a6000612ccf565b565b80600073ffffffffffffffffffffffffffffffffffffffff163373ffffffffffffffffffffffffffffffffffffffff16141580156110ac57506001600082815260200190815260200160002060010160009054906101000a900473ffffffffffffffffffffffffffffffffffffffff1673ffffffffffffffffffffffffffffffffffffffff163373ffffffffffffffffffffffffffffffffffffffff16148061103957506001600082815260200190815260200160002060060160010160009054906101000a900473ffffffffffffffffffffffffffffffffffffffff1673ffffffffffffffffffffffffffffffffffffffff163373ffffffffffffffffffffffffffffffffffffffff16145b806110ab575060016000828152602001908152602001600020600b0160010160000160009054906101000a900473ffffffffffffffffffffffffffffffffffffffff1673ffffffffffffffffffffffffffffffffffffffff163373ffffffffffffffffffffffffffffffffffffffff16145b5b6110eb576040517f08c379a00000000000000000000000000000000000000000000000000000000081526004016110e29061628a565b60405180910390fd5b60006001600084815260200190815260200160002090508060030154421015611149576040517f08c379a00000000000000000000000000000000000000000000000000000000081526004016111409061643f565b60405180910390fd5b6000600381111561115d5761115c615602565b5b8160170160009054906101000a900460ff16600381111561118157611180615602565b5b14806111c1575060038081111561119b5761119a615602565b5b8160170160009054906101000a900460ff1660038111156111bf576111be615602565b5b145b806112015750600260038111156111db576111da615602565b5b8160170160009054906101000a900460ff1660038111156111ff576111fe615602565b5b145b611240576040517f08c379a0000000000000000000000000000000000000000000000000000000008152600401611237906164ab565b60405180910390fd5b600073ffffffffffffffffffffffffffffffffffffffff168160060160010160009054906101000a900473ffffffffffffffffffffffffffffffffffffffff1673ffffffffffffffffffffffffffffffffffffffff161461142a57600260038111156112af576112ae615602565b5b8160170160009054906101000a900460ff1660038111156112d3576112d2615602565b5b0361139d578060010160009054906101000a900473ffffffffffffffffffffffffffffffffffffffff1673ffffffffffffffffffffffffffffffffffffffff163373ffffffffffffffffffffffffffffffffffffffff161461136a576040517f08c379a00000000000000000000000000000000000000000000000000000000081526004016113619061653d565b60405180910390fd5b611398838260010160009054906101000a900473ffffffffffffffffffffffffffffffffffffffff16612d93565b611425565b60038160170160006101000a81548160ff021916908360038111156113c5576113c4615602565b5b0217905550600060038111156113de576113dd615602565b5b81600b0160000160009054906101000a900460ff16600381111561140557611404615602565b5b14611419576114148184612f1d565b611424565b6114238184613346565b5b5b611459565b611458838260010160009054906101000a900473ffffffffffffffffffffffffffffffffffffffff16612d93565b5b505050565b6000606460065483611470919061655d565b61147a91906165ce565b9050919050565b6114896151de565b6040518061012001604052806001600085815260200190815260200160002060000180546114b69061662e565b80601f01602080910402602001604051908101604052809291908181526020018280546114e29061662e565b801561152f5780601f106115045761010080835404028352916020019161152f565b820191906000526020600020905b81548152906001019060200180831161151257829003601f168201915b505050505081526020016001600085815260200190815260200160002060010160009054906101000a900473ffffffffffffffffffffffffffffffffffffffff1673ffffffffffffffffffffffffffffffffffffffff16815260200160016000858152602001908152602001600020600201548152602001600160008581526020019081526020016000206003015481526020016001600085815260200190815260200160002060040154815260200160016000858152602001908152602001600020600501548152602001600160008581526020019081526020016000206006016040518060a0016040529081600082015481526020016001820160009054906101000a900473ffffffffffffffffffffffffffffffffffffffff1673ffffffffffffffffffffffffffffffffffffffff1673ffffffffffffffffffffffffffffffffffffffff16815260200160028201548152602001600382015481526020016004820160009054906101000a900460ff16151515158152505081526020016040518060a0016040528060016000878152602001908152602001600020600b0160000160009054906101000a900460ff1660038111156116f4576116f3615602565b5b8152602001604051806020016040528060016000898152602001908152602001600020600b0160010160000160009054906101000a900473ffffffffffffffffffffffffffffffffffffffff1673ffffffffffffffffffffffffffffffffffffffff16815250815260200160016000878152602001908152602001600020600b01600501604051806040016040529081600082015481526020016001820160009054906101000a900473ffffffffffffffffffffffffffffffffffffffff1673ffffffffffffffffffffffffffffffffffffffff1673ffffffffffffffffffffffffffffffffffffffff1681525050815260200160016000878152602001908152602001600020600b01600701604051806040016040529081600082015481526020016001820160009054906101000a900473ffffffffffffffffffffffffffffffffffffffff1673ffffffffffffffffffffffffffffffffffffffff1673ffffffffffffffffffffffffffffffffffffffff1681525050815260200160016000878152602001908152602001600020600b0160090160405180606001604052908160008201548152602001600182015481526020016002820160009054906101000a900473ffffffffffffffffffffffffffffffffffffffff1673ffffffffffffffffffffffffffffffffffffffff1673ffffffffffffffffffffffffffffffffffffffff168152505081525081526020016001600085815260200190815260200160002060170160009054906101000a900460ff16600381111561193d5761193c615602565b5b8152509050919050565b6002602052816000526040600020818154811061196357600080fd5b9060005260206000209060050201600091509150508060000154908060010160009054906101000a900473ffffffffffffffffffffffffffffffffffffffff16908060020154908060030154908060040160009054906101000a900460ff16905085565b60008060009054906101000a900473ffffffffffffffffffffffffffffffffffffffff16905090565b60065481565b806001600082815260200190815260200160002060010160009054906101000a900473ffffffffffffffffffffffffffffffffffffffff1673ffffffffffffffffffffffffffffffffffffffff163373ffffffffffffffffffffffffffffffffffffffff1603611a9b576040517f08c379a0000000000000000000000000000000000000000000000000000000008152600401611a9290615e81565b60405180910390fd5b8160006003811115611ab057611aaf615602565b5b6001600083815260200190815260200160002060170160009054906101000a900460ff166003811115611ae657611ae5615602565b5b14611b26576040517f08c379a0000000000000000000000000000000000000000000000000000000008152600401611b1d906166ab565b60405180910390fd5b42600160008381526020019081526020016000206003015411611b7e576040517f08c379a0000000000000000000000000000000000000000000000000000000008152600401611b7590616717565b60405180910390fd5b6001600084815260200190815260200160002060060160010160009054906101000a900473ffffffffffffffffffffffffffffffffffffffff1673ffffffffffffffffffffffffffffffffffffffff163373ffffffffffffffffffffffffffffffffffffffff1603611c25576040517f08c379a0000000000000000000000000000000000000000000000000000000008152600401611c1c90616783565b60405180910390fd5b60016000848152602001908152602001600020600b0160010160000160009054906101000a900473ffffffffffffffffffffffffffffffffffffffff1673ffffffffffffffffffffffffffffffffffffffff163373ffffffffffffffffffffffffffffffffffffffff1603611ccf576040517f08c379a0000000000000000000000000000000000000000000000000000000008152600401611cc6906167ef565b60405180910390fd5b6000600160008581526020019081526020016000206004015490506000600160008681526020019081526020016000206006016002015414611d495760016000858152602001908152602001600020600501546001600086815260200190815260200160002060060160020154611d46919061680f565b90505b60003490506000611d593461145e565b90508082611d67919061608f565b915082821015611dac576040517f08c379a0000000000000000000000000000000000000000000000000000000008152600401611da39061688f565b60405180910390fd5b600160008781526020019081526020016000206002016000815480929190611dd390616316565b91905055508060056000828254611dea919061680f565b9250508190555060006040518060a00160405280600160008a81526020019081526020016000206002015481526020013373ffffffffffffffffffffffffffffffffffffffff16815260200184815260200142815260200160001515815250905080600160008981526020019081526020016000206006016000820151816000015560208201518160010160006101000a81548173ffffffffffffffffffffffffffffffffffffffff021916908373ffffffffffffffffffffffffffffffffffffffff160217905550604082015181600201556060820151816003015560808201518160040160006101000a81548160ff021916908315150217905550905050600260008881526020019081526020016000208190806001815401808255809150506001900390600052602060002090600502016000909190919091506000820151816000015560208201518160010160006101000a81548173ffffffffffffffffffffffffffffffffffffffff021916908373ffffffffffffffffffffffffffffffffffffffff160217905550604082015181600201556060820151816003015560808201518160040160006101000a81548160ff02191690831515021790555050506040518060a0016040528060016003811115611fcd57611fcc615602565b5b8152602001600073ffffffffffffffffffffffffffffffffffffffff1681526020016000815260200184815260200160001515815250600360003373ffffffffffffffffffffffffffffffffffffffff1673ffffffffffffffffffffffffffffffffffffffff1681526020019081526020016000206000600454815260200190815260200160002060008201518160000160006101000a81548160ff021916908360038111156120805761207f615602565b5b021790555060208201518160000160016101000a81548173ffffffffffffffffffffffffffffffffffffffff021916908373ffffffffffffffffffffffffffffffffffffffff160217905550604082015181600101556060820151816002015560808201518160030160006101000a81548160ff021916908315150217905550905050867f6f7e354ea3ab5c288aea37fce29c603f9a98a3b040f6d8f32f10e192ec47ff6a600160008a815260200190815260200160002060020154338660405161214d9392919061612f565b60405180910390a250505050505050565b60008951118015612170575060108951105b6121af576040517f08c379a00000000000000000000000000000000000000000000000000000000081526004016121a690616921565b60405180910390fd5b6000871180156121bf5750600086115b6121fe576040517f08c379a00000000000000000000000000000000000000000000000000000000081526004016121f5906169b3565b60405180910390fd5b428511612240576040517f08c379a000000000000000000000000000000000000000000000000000000000815260040161223790616a1f565b60405180910390fd5b3373ffffffffffffffffffffffffffffffffffffffff168173ffffffffffffffffffffffffffffffffffffffff16036122ae576040517f08c379a00000000000000000000000000000000000000000000000000000000081526004016122a590616ab1565b60405180910390fd5b600460008154809291906122c190616316565b919050555060006001600060045481526020019081526020016000209050338160010160006101000a81548173ffffffffffffffffffffffffffffffffffffffff021916908373ffffffffffffffffffffffffffffffffffffffff160217905550898160000190816123339190616c73565b5085816003018190555087816004018190555086816005018190555060008160170160006101000a81548160ff0219169083600381111561237757612376615602565b5b021790555061238a818a878787876138f3565b6004547f5d551e2a2cc977fd8c530317059b4f2d9f504fb82f7dfad736f8d56679bcdfd0336040516123bc91906159e0565b60405180910390a250505050505050505050565b6123d8612c48565b6123e181612bc2565b50565b80600073ffffffffffffffffffffffffffffffffffffffff168173ffffffffffffffffffffffffffffffffffffffff1603612454576040517f08c379a000000000000000000000000000000000000000000000000000000000815260040161244b90616d91565b60405180910390fd5b82426001600083815260200190815260200160002060030154106124ad576040517f08c379a00000000000000000000000000000000000000000000000000000000081526004016124a4906161b2565b60405180910390fd5b83600073ffffffffffffffffffffffffffffffffffffffff163373ffffffffffffffffffffffffffffffffffffffff161415801561262d57506001600082815260200190815260200160002060010160009054906101000a900473ffffffffffffffffffffffffffffffffffffffff1673ffffffffffffffffffffffffffffffffffffffff163373ffffffffffffffffffffffffffffffffffffffff1614806125ba57506001600082815260200190815260200160002060060160010160009054906101000a900473ffffffffffffffffffffffffffffffffffffffff1673ffffffffffffffffffffffffffffffffffffffff163373ffffffffffffffffffffffffffffffffffffffff16145b8061262c575060016000828152602001908152602001600020600b0160010160000160009054906101000a900473ffffffffffffffffffffffffffffffffffffffff1673ffffffffffffffffffffffffffffffffffffffff163373ffffffffffffffffffffffffffffffffffffffff16145b5b61266c576040517f08c379a00000000000000000000000000000000000000000000000000000000081526004016126639061628a565b60405180910390fd5b60006001600087815260200190815260200160002090506000600381111561269757612696615602565b5b81600b0160000160009054906101000a900460ff1660038111156126be576126bd615602565b5b146126fe576040517f08c379a00000000000000000000000000000000000000000000000000000000081526004016126f590616dfd565b60405180910390fd5b600081600b0160010190508060000160009054906101000a900473ffffffffffffffffffffffffffffffffffffffff1673ffffffffffffffffffffffffffffffffffffffff163373ffffffffffffffffffffffffffffffffffffffff160361279b576040517f08c379a000000000000000000000000000000000000000000000000000000000815260040161279290616e69565b60405180910390fd5b8060000160009054906101000a900473ffffffffffffffffffffffffffffffffffffffff1673ffffffffffffffffffffffffffffffffffffffff168673ffffffffffffffffffffffffffffffffffffffff160361282d576040517f08c379a000000000000000000000000000000000000000000000000000000000815260040161282490616ed5565b60405180910390fd5b8160010160009054906101000a900473ffffffffffffffffffffffffffffffffffffffff1673ffffffffffffffffffffffffffffffffffffffff168673ffffffffffffffffffffffffffffffffffffffff16036128bf576040517f08c379a00000000000000000000000000000000000000000000000000000000081526004016128b690616ab1565b60405180910390fd5b8160060160010160009054906101000a900473ffffffffffffffffffffffffffffffffffffffff1673ffffffffffffffffffffffffffffffffffffffff168673ffffffffffffffffffffffffffffffffffffffff1603612954576040517f08c379a000000000000000000000000000000000000000000000000000000000815260040161294b90616f67565b60405180910390fd5b60018160010160003373ffffffffffffffffffffffffffffffffffffffff1673ffffffffffffffffffffffffffffffffffffffff16815260200190815260200160002060008873ffffffffffffffffffffffffffffffffffffffff1673ffffffffffffffffffffffffffffffffffffffff16815260200190815260200160002060006101000a81548160ff0219169083151502179055508060010160008360010160009054906101000a900473ffffffffffffffffffffffffffffffffffffffff1673ffffffffffffffffffffffffffffffffffffffff1673ffffffffffffffffffffffffffffffffffffffff16815260200190815260200160002060008773ffffffffffffffffffffffffffffffffffffffff1673ffffffffffffffffffffffffffffffffffffffff16815260200190815260200160002060009054906101000a900460ff168015612b5657508060010160008360060160010160009054906101000a900473ffffffffffffffffffffffffffffffffffffffff1673ffffffffffffffffffffffffffffffffffffffff1673ffffffffffffffffffffffffffffffffffffffff16815260200190815260200160002060008773ffffffffffffffffffffffffffffffffffffffff1673ffffffffffffffffffffffffffffffffffffffff16815260200190815260200160002060009054906101000a900460ff165b15612b6a57612b658787613a28565b612ba3565b867f3c51619398f1abe48a942eb01a1340dbec59abec0feffa9127bce5a8abbda88b87604051612b9a91906159e0565b60405180910390a25b50505050505050565b600063f23a6e6160e01b90509695505050505050565b612bca612c48565b600073ffffffffffffffffffffffffffffffffffffffff168173ffffffffffffffffffffffffffffffffffffffff1603612c3c5760006040517f1e4fbdf7000000000000000000000000000000000000000000000000000000008152600401612c3391906159e0565b60405180910390fd5b612c4581612ccf565b50565b612c50613b73565b73ffffffffffffffffffffffffffffffffffffffff16612c6e6119c7565b73ffffffffffffffffffffffffffffffffffffffff1614612ccd57612c91613b73565b6040517f118cdaa7000000000000000000000000000000000000000000000000000000008152600401612cc491906159e0565b60405180910390fd5b565b60008060009054906101000a900473ffffffffffffffffffffffffffffffffffffffff169050816000806101000a81548173ffffffffffffffffffffffffffffffffffffffff021916908373ffffffffffffffffffffffffffffffffffffffff1602179055508173ffffffffffffffffffffffffffffffffffffffff168173ffffffffffffffffffffffffffffffffffffffff167f8be0079c531659141344cd1fd0a4f28419497f9722a3daafe3b4186f6b6457e060405160405180910390a35050565b816004541015612dd8576040517f08c379a0000000000000000000000000000000000000000000000000000000008152600401612dcf90616fd3565b60405180910390fd5b600060016000848152602001908152602001600020600b0160000160009054906101000a900460ff16905060006003811115612e1757612e16615602565b5b816003811115612e2a57612e29615602565b5b03612e6a576040517f08c379a0000000000000000000000000000000000000000000000000000000008152600401612e6190617065565b60405180910390fd5b60016003811115612e7e57612e7d615602565b5b816003811115612e9157612e90615602565b5b03612ea557612ea08383613b7b565b612f18565b60026003811115612eb957612eb8615602565b5b816003811115612ecc57612ecb615602565b5b03612ee057612edb8383613e0c565b612f17565b600380811115612ef357612ef2615602565b5b816003811115612f0657612f05615602565b5b03612f1657612f15838361411c565b5b5b5b505050565b80600073ffffffffffffffffffffffffffffffffffffffff163373ffffffffffffffffffffffffffffffffffffffff161415801561309d57506001600082815260200190815260200160002060010160009054906101000a900473ffffffffffffffffffffffffffffffffffffffff1673ffffffffffffffffffffffffffffffffffffffff163373ffffffffffffffffffffffffffffffffffffffff16148061302a57506001600082815260200190815260200160002060060160010160009054906101000a900473ffffffffffffffffffffffffffffffffffffffff1673ffffffffffffffffffffffffffffffffffffffff163373ffffffffffffffffffffffffffffffffffffffff16145b8061309c575060016000828152602001908152602001600020600b0160010160000160009054906101000a900473ffffffffffffffffffffffffffffffffffffffff1673ffffffffffffffffffffffffffffffffffffffff163373ffffffffffffffffffffffffffffffffffffffff16145b5b6130dc576040517f08c379a00000000000000000000000000000000000000000000000000000000081526004016130d39061628a565b60405180910390fd5b8260010160009054906101000a900473ffffffffffffffffffffffffffffffffffffffff1673ffffffffffffffffffffffffffffffffffffffff163373ffffffffffffffffffffffffffffffffffffffff16036131ff578260060160040160009054906101000a900460ff1615613188576040517f08c379a000000000000000000000000000000000000000000000000000000000815260040161317f906162f6565b60405180910390fd5b8260010160009054906101000a900473ffffffffffffffffffffffffffffffffffffffff1673ffffffffffffffffffffffffffffffffffffffff166108fc84600601600201549081150290604051600060405180830381858888f193505050501580156131f9573d6000803e3d6000fd5b50613231565b613230828460060160010160009054906101000a900473ffffffffffffffffffffffffffffffffffffffff16612d93565b5b8260060160040160009054906101000a900460ff1680156132d35750600360008460010160009054906101000a900473ffffffffffffffffffffffffffffffffffffffff1673ffffffffffffffffffffffffffffffffffffffff1673ffffffffffffffffffffffffffffffffffffffff168152602001908152602001600020600083815260200190815260200160002060030160009054906101000a900460ff165b1561334157817f4d9113a1377d665eaa1f9168a9c9080f2e488cb820b10149de3d6d2e0f2780c78460060160010160009054906101000a900473ffffffffffffffffffffffffffffffffffffffff16856006016002015460405161333892919061635e565b60405180910390a25b505050565b806001600082815260200190815260200160002060060160040160009054906101000a900460ff16156133ae576040517f08c379a00000000000000000000000000000000000000000000000000000000081526004016133a5906162f6565b60405180910390fd5b81600073ffffffffffffffffffffffffffffffffffffffff163373ffffffffffffffffffffffffffffffffffffffff161415801561352e57506001600082815260200190815260200160002060010160009054906101000a900473ffffffffffffffffffffffffffffffffffffffff1673ffffffffffffffffffffffffffffffffffffffff163373ffffffffffffffffffffffffffffffffffffffff1614806134bb57506001600082815260200190815260200160002060060160010160009054906101000a900473ffffffffffffffffffffffffffffffffffffffff1673ffffffffffffffffffffffffffffffffffffffff163373ffffffffffffffffffffffffffffffffffffffff16145b8061352d575060016000828152602001908152602001600020600b0160010160000160009054906101000a900473ffffffffffffffffffffffffffffffffffffffff1673ffffffffffffffffffffffffffffffffffffffff163373ffffffffffffffffffffffffffffffffffffffff16145b5b61356d576040517f08c379a00000000000000000000000000000000000000000000000000000000081526004016135649061628a565b60405180910390fd5b600184600b0160010160020160003373ffffffffffffffffffffffffffffffffffffffff1673ffffffffffffffffffffffffffffffffffffffff16815260200190815260200160002060006101000a81548160ff021916908315150217905550600084600b0160010160020160008660010160009054906101000a900473ffffffffffffffffffffffffffffffffffffffff1673ffffffffffffffffffffffffffffffffffffffff1673ffffffffffffffffffffffffffffffffffffffff16815260200190815260200160002060009054906101000a900460ff161561365c57808061365890616316565b9150505b84600b0160010160020160008660060160010160009054906101000a900473ffffffffffffffffffffffffffffffffffffffff1673ffffffffffffffffffffffffffffffffffffffff1673ffffffffffffffffffffffffffffffffffffffff16815260200190815260200160002060009054906101000a900460ff16156136ec5780806136e890616316565b9150505b84600b01600101600201600086600b0160010160000160009054906101000a900473ffffffffffffffffffffffffffffffffffffffff1673ffffffffffffffffffffffffffffffffffffffff1673ffffffffffffffffffffffffffffffffffffffff16815260200190815260200160002060009054906101000a900460ff161561377f57808061377b90616316565b9150505b600281101580156137df57508460010160009054906101000a900473ffffffffffffffffffffffffffffffffffffffff1673ffffffffffffffffffffffffffffffffffffffff163373ffffffffffffffffffffffffffffffffffffffff16145b156138ec578460010160009054906101000a900473ffffffffffffffffffffffffffffffffffffffff1673ffffffffffffffffffffffffffffffffffffffff166108fc86600601600201549081150290604051600060405180830381858888f19350505050158015613855573d6000803e3d6000fd5b5060018560170160006101000a81548160ff0219169083600381111561387e5761387d615602565b5b0217905550837f4d9113a1377d665eaa1f9168a9c9080f2e488cb820b10149de3d6d2e0f2780c78660060160010160009054906101000a900473ffffffffffffffffffffffffffffffffffffffff1687600601600201546040516138e392919061635e565b60405180910390a25b5050505050565b6000600381111561390757613906615602565b5b85600381111561391a57613919615602565b5b0361392e57613929868261444b565b613a20565b6001600381111561394257613941615602565b5b85600381111561395557613954615602565b5b0361396a57613965868584614539565b613a1f565b6002600381111561397e5761397d615602565b5b85600381111561399157613990615602565b5b036139a6576139a1868585614890565b613a1e565b6003808111156139b9576139b8615602565b5b8560038111156139cc576139cb615602565b5b036139e2576139dd86858585614caf565b613a1d565b6040517f08c379a0000000000000000000000000000000000000000000000000000000008152600401613a1490616dfd565b60405180910390fd5b5b5b5b505050505050565b80600073ffffffffffffffffffffffffffffffffffffffff168173ffffffffffffffffffffffffffffffffffffffff1603613a98576040517f08c379a0000000000000000000000000000000000000000000000000000000008152600401613a8f90616d91565b60405180910390fd5b60016000848152602001908152602001600020600b01600101600080820160006101000a81549073ffffffffffffffffffffffffffffffffffffffff021916905550508160016000858152602001908152602001600020600b0160010160000160006101000a81548173ffffffffffffffffffffffffffffffffffffffff021916908373ffffffffffffffffffffffffffffffffffffffff160217905550827fc8d8ceeeb85b71e935c56c5b01b3172ac921f56f0174509be0c62f01e84c390583604051613b6691906159e0565b60405180910390a2505050565b600033905090565b60016003811115613b8f57613b8e615602565b5b60016000848152602001908152602001600020600b0160000160009054906101000a900460ff166003811115613bc857613bc7615602565b5b14613c08576040517f08c379a0000000000000000000000000000000000000000000000000000000008152600401613bff906170d1565b60405180910390fd5b600060016000848152602001908152602001600020600b016005019050600360006001600086815260200190815260200160002060010160009054906101000a900473ffffffffffffffffffffffffffffffffffffffff1673ffffffffffffffffffffffffffffffffffffffff1673ffffffffffffffffffffffffffffffffffffffff168152602001908152602001600020600084815260200190815260200160002060030160009054906101000a900460ff16158015613ccd575060008160000154115b613d0c576040517f08c379a0000000000000000000000000000000000000000000000000000000008152600401613d039061713d565b60405180910390fd5b60008160010160009054906101000a900473ffffffffffffffffffffffffffffffffffffffff169050613d648383600001548373ffffffffffffffffffffffffffffffffffffffff1661503b9092919063ffffffff16565b6001600360006001600088815260200190815260200160002060010160009054906101000a900473ffffffffffffffffffffffffffffffffffffffff1673ffffffffffffffffffffffffffffffffffffffff1673ffffffffffffffffffffffffffffffffffffffff168152602001908152602001600020600086815260200190815260200160002060030160006101000a81548160ff02191690831515021790555050505050565b60026003811115613e2057613e1f615602565b5b60016000848152602001908152602001600020600b0160000160009054906101000a900460ff166003811115613e5957613e58615602565b5b14613e99576040517f08c379a0000000000000000000000000000000000000000000000000000000008152600401613e90906171a9565b60405180910390fd5b600360006001600085815260200190815260200160002060010160009054906101000a900473ffffffffffffffffffffffffffffffffffffffff1673ffffffffffffffffffffffffffffffffffffffff1673ffffffffffffffffffffffffffffffffffffffff168152602001908152602001600020600083815260200190815260200160002060030160009054906101000a900460ff1615613f70576040517f08c379a0000000000000000000000000000000000000000000000000000000008152600401613f6790617215565b60405180910390fd5b600060016000848152602001908152602001600020600b01600701604051806040016040529081600082015481526020016001820160009054906101000a900473ffffffffffffffffffffffffffffffffffffffff1673ffffffffffffffffffffffffffffffffffffffff1673ffffffffffffffffffffffffffffffffffffffff168152505090506000816020015190508073ffffffffffffffffffffffffffffffffffffffff166323b872dd308585600001516040518463ffffffff1660e01b815260040161404293929190617235565b600060405180830381600087803b15801561405c57600080fd5b505af1158015614070573d6000803e3d6000fd5b505050506001600360006001600088815260200190815260200160002060010160009054906101000a900473ffffffffffffffffffffffffffffffffffffffff1673ffffffffffffffffffffffffffffffffffffffff1673ffffffffffffffffffffffffffffffffffffffff168152602001908152602001600020600086815260200190815260200160002060030160006101000a81548160ff02191690831515021790555050505050565b60038081111561412f5761412e615602565b5b60016000848152602001908152602001600020600b0160000160009054906101000a900460ff16600381111561416857614167615602565b5b146141a8576040517f08c379a000000000000000000000000000000000000000000000000000000000815260040161419f906172b8565b60405180910390fd5b600060016000848152602001908152602001600020600b0160090160405180606001604052908160008201548152602001600182015481526020016002820160009054906101000a900473ffffffffffffffffffffffffffffffffffffffff1673ffffffffffffffffffffffffffffffffffffffff1673ffffffffffffffffffffffffffffffffffffffff16815250509050600360006001600086815260200190815260200160002060010160009054906101000a900473ffffffffffffffffffffffffffffffffffffffff1673ffffffffffffffffffffffffffffffffffffffff1673ffffffffffffffffffffffffffffffffffffffff168152602001908152602001600020600084815260200190815260200160002060030160009054906101000a900460ff161580156142e2575060008160200151115b614321576040517f08c379a000000000000000000000000000000000000000000000000000000000815260040161431890617324565b60405180910390fd5b6000816040015190508073ffffffffffffffffffffffffffffffffffffffff1663f242432a3085856000015186602001516040518563ffffffff1660e01b8152600401614371949392919061737b565b600060405180830381600087803b15801561438b57600080fd5b505af115801561439f573d6000803e3d6000fd5b505050506001600360006001600088815260200190815260200160002060010160009054906101000a900473ffffffffffffffffffffffffffffffffffffffff1673ffffffffffffffffffffffffffffffffffffffff1673ffffffffffffffffffffffffffffffffffffffff168152602001908152602001600020600086815260200190815260200160002060030160006101000a81548160ff02191690831515021790555050505050565b80600073ffffffffffffffffffffffffffffffffffffffff168173ffffffffffffffffffffffffffffffffffffffff16036144bb576040517f08c379a00000000000000000000000000000000000000000000000000000000081526004016144b290616d91565b60405180910390fd5b600083600b0160000160006101000a81548160ff021916908360038111156144e6576144e5615602565b5b02179055508183600b0160010160000160006101000a81548173ffffffffffffffffffffffffffffffffffffffff021916908373ffffffffffffffffffffffffffffffffffffffff160217905550505050565b6000811161457c576040517f08c379a00000000000000000000000000000000000000000000000000000000081526004016145739061741f565b60405180910390fd5b60006145878261145e565b9050600073ffffffffffffffffffffffffffffffffffffffff168373ffffffffffffffffffffffffffffffffffffffff160361461e573482146145ff576040517f08c379a00000000000000000000000000000000000000000000000000000000081526004016145f69061748b565b60405180910390fd5b808261460b919061608f565b84600b01600501600001819055506146e3565b60008390506146503330858473ffffffffffffffffffffffffffffffffffffffff166150ba909392919063ffffffff16565b60405180604001604052808385614667919061608f565b81526020018273ffffffffffffffffffffffffffffffffffffffff1681525085600b016005016000820151816000015560208201518160010160006101000a81548173ffffffffffffffffffffffffffffffffffffffff021916908373ffffffffffffffffffffffffffffffffffffffff160217905550905050505b80600560008282546146f5919061680f565b92505081905550600184600b0160000160006101000a81548160ff0219169083600381111561472757614726615602565b5b02179055506040518060a001604052806001600381111561474b5761474a615602565b5b81526020018473ffffffffffffffffffffffffffffffffffffffff1681526020016000815260200185600b0160050160000154815260200160001515815250600360003373ffffffffffffffffffffffffffffffffffffffff1673ffffffffffffffffffffffffffffffffffffffff1681526020019081526020016000206000600454815260200190815260200160002060008201518160000160006101000a81548160ff0219169083600381111561480757614806615602565b5b021790555060208201518160000160016101000a81548173ffffffffffffffffffffffffffffffffffffffff021916908373ffffffffffffffffffffffffffffffffffffffff160217905550604082015181600101556060820151816002015560808201518160030160006101000a81548160ff02191690831515021790555090505050505050565b81600073ffffffffffffffffffffffffffffffffffffffff168173ffffffffffffffffffffffffffffffffffffffff1603614900576040517f08c379a00000000000000000000000000000000000000000000000000000000081526004016148f790616d91565b60405180910390fd5b600083905060008311614948576040517f08c379a000000000000000000000000000000000000000000000000000000000815260040161493f906174f7565b60405180910390fd5b3073ffffffffffffffffffffffffffffffffffffffff168173ffffffffffffffffffffffffffffffffffffffff1663081812fc856040518263ffffffff1660e01b81526004016149989190615457565b602060405180830381865afa1580156149b5573d6000803e3d6000fd5b505050506040513d601f19601f820116820180604052508101906149d9919061752c565b73ffffffffffffffffffffffffffffffffffffffff1614614a2f576040517f08c379a0000000000000000000000000000000000000000000000000000000008152600401614a26906175a5565b60405180910390fd5b8073ffffffffffffffffffffffffffffffffffffffff166323b872dd3330866040518463ffffffff1660e01b8152600401614a6c93929190617235565b600060405180830381600087803b158015614a8657600080fd5b505af1158015614a9a573d6000803e3d6000fd5b50505050600285600b0160000160006101000a81548160ff02191690836003811115614ac957614ac8615602565b5b021790555060405180604001604052808481526020018273ffffffffffffffffffffffffffffffffffffffff1681525085600b016007016000820151816000015560208201518160010160006101000a81548173ffffffffffffffffffffffffffffffffffffffff021916908373ffffffffffffffffffffffffffffffffffffffff1602179055509050506040518060a0016040528060026003811115614b7357614b72615602565b5b81526020018573ffffffffffffffffffffffffffffffffffffffff1681526020018481526020016000815260200160001515815250600360003373ffffffffffffffffffffffffffffffffffffffff1673ffffffffffffffffffffffffffffffffffffffff1681526020019081526020016000206000600454815260200190815260200160002060008201518160000160006101000a81548160ff02191690836003811115614c2557614c24615602565b5b021790555060208201518160000160016101000a81548173ffffffffffffffffffffffffffffffffffffffff021916908373ffffffffffffffffffffffffffffffffffffffff160217905550604082015181600101556060820151816002015560808201518160030160006101000a81548160ff0219169083151502179055509050505050505050565b82600073ffffffffffffffffffffffffffffffffffffffff168173ffffffffffffffffffffffffffffffffffffffff1603614d1f576040517f08c379a0000000000000000000000000000000000000000000000000000000008152600401614d1690616d91565b60405180910390fd5b60008211614d62576040517f08c379a0000000000000000000000000000000000000000000000000000000008152600401614d5990617611565b60405180910390fd5b60008311614da5576040517f08c379a0000000000000000000000000000000000000000000000000000000008152600401614d9c906174f7565b60405180910390fd5b60008490508073ffffffffffffffffffffffffffffffffffffffff1663f242432a333087876040518563ffffffff1660e01b8152600401614de9949392919061737b565b600060405180830381600087803b158015614e0357600080fd5b505af1158015614e17573d6000803e3d6000fd5b50505050600386600b0160000160006101000a81548160ff02191690836003811115614e4657614e45615602565b5b021790555060405180606001604052808581526020018481526020018273ffffffffffffffffffffffffffffffffffffffff1681525086600b01600901600082015181600001556020820151816001015560408201518160020160006101000a81548173ffffffffffffffffffffffffffffffffffffffff021916908373ffffffffffffffffffffffffffffffffffffffff1602179055509050506040518060a00160405280600380811115614eff57614efe615602565b5b81526020018673ffffffffffffffffffffffffffffffffffffffff16815260200185815260200184815260200160001515815250600360003373ffffffffffffffffffffffffffffffffffffffff1673ffffffffffffffffffffffffffffffffffffffff1681526020019081526020016000206000600454815260200190815260200160002060008201518160000160006101000a81548160ff02191690836003811115614fb057614faf615602565b5b021790555060208201518160000160016101000a81548173ffffffffffffffffffffffffffffffffffffffff021916908373ffffffffffffffffffffffffffffffffffffffff160217905550604082015181600101556060820151816002015560808201518160030160006101000a81548160ff021916908315150217905550905050505050505050565b6150b5838473ffffffffffffffffffffffffffffffffffffffff1663a9059cbb858560405160240161506e92919061635e565b604051602081830303815290604052915060e01b6020820180517bffffffffffffffffffffffffffffffffffffffffffffffffffffffff838183161783525050505061513c565b505050565b615136848573ffffffffffffffffffffffffffffffffffffffff166323b872dd8686866040516024016150ef93929190617235565b604051602081830303815290604052915060e01b6020820180517bffffffffffffffffffffffffffffffffffffffffffffffffffffffff838183161783525050505061513c565b50505050565b600080602060008451602086016000885af18061515f576040513d6000823e3d81fd5b3d92506000519150506000821461517a576001811415615196565b60008473ffffffffffffffffffffffffffffffffffffffff163b145b156151d857836040517f5274afe70000000000000000000000000000000000000000000000000000000081526004016151cf91906159e0565b60405180910390fd5b50505050565b60405180610120016040528060608152602001600073ffffffffffffffffffffffffffffffffffffffff1681526020016000815260200160008152602001600081526020016000815260200161523261525e565b815260200161523f6152a5565b81526020016000600381111561525857615257615602565b5b81525090565b6040518060a0016040528060008152602001600073ffffffffffffffffffffffffffffffffffffffff16815260200160008152602001600081526020016000151581525090565b6040518060a00160405280600060038111156152c4576152c3615602565b5b81526020016152d16152fe565b81526020016152de615327565b81526020016152eb615357565b81526020016152f8615387565b81525090565b6040518060200160405280600073ffffffffffffffffffffffffffffffffffffffff1681525090565b604051806040016040528060008152602001600073ffffffffffffffffffffffffffffffffffffffff1681525090565b604051806040016040528060008152602001600073ffffffffffffffffffffffffffffffffffffffff1681525090565b60405180606001604052806000815260200160008152602001600073ffffffffffffffffffffffffffffffffffffffff1681525090565b6000604051905090565b600080fd5b600080fd5b6000819050919050565b6153e5816153d2565b81146153f057600080fd5b50565b600081359050615402816153dc565b92915050565b6000806040838503121561541f5761541e6153c8565b5b600061542d858286016153f3565b925050602061543e858286016153f3565b9150509250929050565b615451816153d2565b82525050565b600060208201905061546c6000830184615448565b92915050565b600060208284031215615488576154876153c8565b5b6000615496848285016153f3565b91505092915050565b600081519050919050565b600082825260208201905092915050565b60005b838110156154d95780820151818401526020810190506154be565b60008484015250505050565b6000601f19601f8301169050919050565b60006155018261549f565b61550b81856154aa565b935061551b8185602086016154bb565b615524816154e5565b840191505092915050565b600073ffffffffffffffffffffffffffffffffffffffff82169050919050565b600061555a8261552f565b9050919050565b61556a8161554f565b82525050565b615579816153d2565b82525050565b60008115159050919050565b6155948161557f565b82525050565b60a0820160008201516155b06000850182615570565b5060208201516155c36020850182615561565b5060408201516155d66040850182615570565b5060608201516155e96060850182615570565b5060808201516155fc608085018261558b565b50505050565b7f4e487b7100000000000000000000000000000000000000000000000000000000600052602160045260246000fd5b6004811061564257615641615602565b5b50565b600081905061565382615631565b919050565b600061566382615645565b9050919050565b61567381615658565b82525050565b60208201600082015161568f6000850182615561565b50505050565b6000819050919050565b60006156ba6156b56156b08461552f565b615695565b61552f565b9050919050565b60006156cc8261569f565b9050919050565b60006156de826156c1565b9050919050565b6156ee816156d3565b82525050565b60408201600082015161570a6000850182615570565b50602082015161571d60208501826156e5565b50505050565b600061572e826156c1565b9050919050565b61573e81615723565b82525050565b60408201600082015161575a6000850182615570565b50602082015161576d6020850182615735565b50505050565b600061577e826156c1565b9050919050565b61578e81615773565b82525050565b6060820160008201516157aa6000850182615570565b5060208201516157bd6020850182615570565b5060408201516157d06040850182615785565b50505050565b610120820160008201516157ed600085018261566a565b5060208201516158006020850182615679565b50604082015161581360408501826156f4565b5060608201516158266080850182615744565b50608082015161583960c0850182615794565b50505050565b600481106158505761584f615602565b5b50565b60008190506158618261583f565b919050565b600061587182615853565b9050919050565b61588181615866565b82525050565b60006102a08301600083015184820360008601526158a582826154f6565b91505060208301516158ba6020860182615561565b5060408301516158cd6040860182615570565b5060608301516158e06060860182615570565b5060808301516158f36080860182615570565b5060a083015161590660a0860182615570565b5060c083015161591960c086018261559a565b5060e083015161592d6101608601826157d6565b50610100830151615942610280860182615878565b508091505092915050565b600060208201905081810360008301526159678184615887565b905092915050565b6159788161554f565b82525050565b6159878161557f565b82525050565b600060a0820190506159a26000830188615448565b6159af602083018761596f565b6159bc6040830186615448565b6159c96060830185615448565b6159d6608083018461597e565b9695505050505050565b60006020820190506159f5600083018461596f565b92915050565b600080fd5b600080fd5b7f4e487b7100000000000000000000000000000000000000000000000000000000600052604160045260246000fd5b615a3d826154e5565b810181811067ffffffffffffffff82111715615a5c57615a5b615a05565b5b80604052505050565b6000615a6f6153be565b9050615a7b8282615a34565b919050565b600067ffffffffffffffff821115615a9b57615a9a615a05565b5b615aa4826154e5565b9050602081019050919050565b82818337600083830152505050565b6000615ad3615ace84615a80565b615a65565b905082815260208101848484011115615aef57615aee615a00565b5b615afa848285615ab1565b509392505050565b600082601f830112615b1757615b166159fb565b5b8135615b27848260208601615ac0565b91505092915050565b60048110615b3d57600080fd5b50565b600081359050615b4f81615b30565b92915050565b615b5e8161554f565b8114615b6957600080fd5b50565b600081359050615b7b81615b55565b92915050565b60008060008060008060008060006101208a8c031215615ba457615ba36153c8565b5b60008a013567ffffffffffffffff811115615bc257615bc16153cd565b5b615bce8c828d01615b02565b9950506020615bdf8c828d01615b40565b9850506040615bf08c828d016153f3565b9750506060615c018c828d016153f3565b9650506080615c128c828d016153f3565b95505060a0615c238c828d01615b6c565b94505060c0615c348c828d016153f3565b93505060e0615c458c828d016153f3565b925050610100615c578c828d01615b6c565b9150509295985092959850929598565b600060208284031215615c7d57615c7c6153c8565b5b6000615c8b84828501615b6c565b91505092915050565b60008060408385031215615cab57615caa6153c8565b5b6000615cb9858286016153f3565b9250506020615cca85828601615b6c565b9150509250929050565b600080fd5b600080fd5b60008083601f840112615cf457615cf36159fb565b5b8235905067ffffffffffffffff811115615d1157615d10615cd4565b5b602083019150836001820283011115615d2d57615d2c615cd9565b5b9250929050565b60008060008060008060a08789031215615d5157615d506153c8565b5b6000615d5f89828a01615b6c565b9650506020615d7089828a01615b6c565b9550506040615d8189828a016153f3565b9450506060615d9289828a016153f3565b935050608087013567ffffffffffffffff811115615db357615db26153cd565b5b615dbf89828a01615cde565b92509250509295509295509295565b60007fffffffff0000000000000000000000000000000000000000000000000000000082169050919050565b615e0381615dce565b82525050565b6000602082019050615e1e6000830184615dfa565b92915050565b600082825260208201905092915050565b7f41732063726561746f7220796f752063616e277420646f207468697300000000600082015250565b6000615e6b601c83615e24565b9150615e7682615e35565b602082019050919050565b60006020820190508181036000830152615e9a81615e5e565b9050919050565b7f496e76616c696420626964206964000000000000000000000000000000000000600082015250565b6000615ed7600e83615e24565b9150615ee282615ea1565b602082019050919050565b60006020820190508181036000830152615f0681615eca565b9050919050565b7f4e487b7100000000000000000000000000000000000000000000000000000000600052603260045260246000fd5b7f596f752063616e6e6f7420776974686472617720746f6b656e7320746861742060008201527f617265206e6f7420796f75727300000000000000000000000000000000000000602082015250565b6000615f98602d83615e24565b9150615fa382615f3c565b604082019050919050565b60006020820190508181036000830152615fc781615f8b565b9050919050565b7f546f6b656e732068617665206265656e20616c7265616479207769746864726160008201527f776e000000000000000000000000000000000000000000000000000000000000602082015250565b600061602a602283615e24565b915061603582615fce565b604082019050919050565b600060208201905081810360008301526160598161601d565b9050919050565b7f4e487b7100000000000000000000000000000000000000000000000000000000600052601160045260246000fd5b600061609a826153d2565b91506160a5836153d2565b92508282039050818111156160bd576160bc616060565b5b92915050565b7f596f752063616e742074616b652061637475616c206269640000000000000000600082015250565b60006160f9601883615e24565b9150616104826160c3565b602082019050919050565b60006020820190508181036000830152616128816160ec565b9050919050565b60006060820190506161446000830186615448565b616151602083018561596f565b61615e6040830184615448565b949350505050565b7f41756374696f6e206e6f74206578706972656400000000000000000000000000600082015250565b600061619c601383615e24565b91506161a782616166565b602082019050919050565b600060208201905081810360008301526161cb8161618f565b9050919050565b7f41756374696f6e20686173206e6f206269647300000000000000000000000000600082015250565b6000616208601383615e24565b9150616213826161d2565b602082019050919050565b60006020820190508181036000830152616237816161fb565b9050919050565b7f596f752063616e27742063616c6c207468697300000000000000000000000000600082015250565b6000616274601383615e24565b915061627f8261623e565b602082019050919050565b600060208201905081810360008301526162a381616267565b9050919050565b7f42696420616c72656164792068617665206265656e2077697468647261776e00600082015250565b60006162e0601f83615e24565b91506162eb826162aa565b602082019050919050565b6000602082019050818103600083015261630f816162d3565b9050919050565b6000616321826153d2565b91507fffffffffffffffffffffffffffffffffffffffffffffffffffffffffffffffff820361635357616352616060565b5b600182019050919050565b6000604082019050616373600083018561596f565b6163806020830184615448565b9392505050565b7f456d70747920666565732062616c616e63650000000000000000000000000000600082015250565b60006163bd601283615e24565b91506163c882616387565b602082019050919050565b600060208201905081810360008301526163ec816163b0565b9050919050565b7f41756374696f6e206e6f742079657420656e6465640000000000000000000000600082015250565b6000616429601583615e24565b9150616434826163f3565b602082019050919050565b600060208201905081810360008301526164588161641c565b9050919050565b7f41756374696f6e20616c72656164792066696e616c697a656400000000000000600082015250565b6000616495601983615e24565b91506164a08261645f565b602082019050919050565b600060208201905081810360008301526164c481616488565b9050919050565b7f4f6e6c792063726561746f722063616e2072657175657374207769746864726160008201527f7720696620726566756e64656400000000000000000000000000000000000000602082015250565b6000616527602d83615e24565b9150616532826164cb565b604082019050919050565b600060208201905081810360008301526165568161651a565b9050919050565b6000616568826153d2565b9150616573836153d2565b9250828202616581816153d2565b9150828204841483151761659857616597616060565b5b5092915050565b7f4e487b7100000000000000000000000000000000000000000000000000000000600052601260045260246000fd5b60006165d9826153d2565b91506165e4836153d2565b9250826165f4576165f361659f565b5b828204905092915050565b7f4e487b7100000000000000000000000000000000000000000000000000000000600052602260045260246000fd5b6000600282049050600182168061664657607f821691505b602082108103616659576166586165ff565b5b50919050565b7f41756374696f6e206e6f74206163746976650000000000000000000000000000600082015250565b6000616695601283615e24565b91506166a08261665f565b602082019050919050565b600060208201905081810360008301526166c481616688565b9050919050565b7f41756374696f6e20657870697265640000000000000000000000000000000000600082015250565b6000616701600f83615e24565b915061670c826166cb565b602082019050919050565b60006020820190508181036000830152616730816166f4565b9050919050565b7f596f7520616c726561647920706c616365206265737420626964000000000000600082015250565b600061676d601a83615e24565b915061677882616737565b602082019050919050565b6000602082019050818103600083015261679c81616760565b9050919050565b7f417262697465722063616e7420706c6163652062696473000000000000000000600082015250565b60006167d9601783615e24565b91506167e4826167a3565b602082019050919050565b60006020820190508181036000830152616808816167cc565b9050919050565b600061681a826153d2565b9150616825836153d2565b925082820190508082111561683d5761683c616060565b5b92915050565b7f496e76616c69642062696420616d6f756e740000000000000000000000000000600082015250565b6000616879601283615e24565b915061688482616843565b602082019050919050565b600060208201905081810360008301526168a88161686c565b9050919050565b7f5469746c65206c656e677468206d75737420626520677265617465722074686160008201527f6e203020616e64206c657373207468616e203136000000000000000000000000602082015250565b600061690b603483615e24565b9150616916826168af565b604082019050919050565b6000602082019050818103600083015261693a816168fe565b9050919050565b7f53746172742062696420616e64206269642073746570206d757374206265206760008201527f726561746572207468616e207a65726f00000000000000000000000000000000602082015250565b600061699d603083615e24565b91506169a882616941565b604082019050919050565b600060208201905081810360008301526169cc81616990565b9050919050565b7f456e642074696d65206d7573742062652076616c696400000000000000000000600082015250565b6000616a09601683615e24565b9150616a14826169d3565b602082019050919050565b60006020820190508181036000830152616a38816169fc565b9050919050565b7f4172626974657220616e642063726561746f722063616e74206265207468652060008201527f73616d6500000000000000000000000000000000000000000000000000000000602082015250565b6000616a9b602483615e24565b9150616aa682616a3f565b604082019050919050565b60006020820190508181036000830152616aca81616a8e565b9050919050565b60008190508160005260206000209050919050565b60006020601f8301049050919050565b600082821b905092915050565b600060088302616b337fffffffffffffffffffffffffffffffffffffffffffffffffffffffffffffffff82616af6565b616b3d8683616af6565b95508019841693508086168417925050509392505050565b6000616b70616b6b616b66846153d2565b615695565b6153d2565b9050919050565b6000819050919050565b616b8a83616b55565b616b9e616b9682616b77565b848454616b03565b825550505050565b600090565b616bb3616ba6565b616bbe818484616b81565b505050565b5b81811015616be257616bd7600082616bab565b600181019050616bc4565b5050565b601f821115616c2757616bf881616ad1565b616c0184616ae6565b81016020851015616c10578190505b616c24616c1c85616ae6565b830182616bc3565b50505b505050565b600082821c905092915050565b6000616c4a60001984600802616c2c565b1980831691505092915050565b6000616c638383616c39565b9150826002028217905092915050565b616c7c8261549f565b67ffffffffffffffff811115616c9557616c94615a05565b5b616c9f825461662e565b616caa828285616be6565b600060209050601f831160018114616cdd5760008415616ccb578287015190505b616cd58582616c57565b865550616d3d565b601f198416616ceb86616ad1565b60005b82811015616d1357848901518255600182019150602085019450602081019050616cee565b86831015616d305784890151616d2c601f891682616c39565b8355505b6001600288020188555050505b505050505050565b7f496e76616c696420616464726573730000000000000000000000000000000000600082015250565b6000616d7b600f83615e24565b9150616d8682616d45565b602082019050919050565b60006020820190508181036000830152616daa81616d6e565b9050919050565b7f496e76616c696420617373657420747970650000000000000000000000000000600082015250565b6000616de7601283615e24565b9150616df282616db1565b602082019050919050565b60006020820190508181036000830152616e1681616dda565b9050919050565b7f417262697465722063616e742063616c6c207468697300000000000000000000600082015250565b6000616e53601683615e24565b9150616e5e82616e1d565b602082019050919050565b60006020820190508181036000830152616e8281616e46565b9050919050565b7f5468652073616d6520617262697465722070726f766964656400000000000000600082015250565b6000616ebf601983615e24565b9150616eca82616e89565b602082019050919050565b60006020820190508181036000830152616eee81616eb2565b9050919050565b7f4172626974657220616e6420626573744269646465722063616e74206265207460008201527f68652073616d6500000000000000000000000000000000000000000000000000602082015250565b6000616f51602783615e24565b9150616f5c82616ef5565b604082019050919050565b60006020820190508181036000830152616f8081616f44565b9050919050565b7f496e76616c69642061756374696f6e2069640000000000000000000000000000600082015250565b6000616fbd601283615e24565b9150616fc882616f87565b602082019050919050565b60006020820190508181036000830152616fec81616fb0565b9050919050565b7f417373657420776974682074686973207479706520646f6e7420737570706f7260008201527f7420776974686472617700000000000000000000000000000000000000000000602082015250565b600061704f602a83615e24565b915061705a82616ff3565b604082019050919050565b6000602082019050818103600083015261707e81617042565b9050919050565b7f4e6f7420616e2045524332302061737365740000000000000000000000000000600082015250565b60006170bb601283615e24565b91506170c682617085565b602082019050919050565b600060208201905081810360008301526170ea816170ae565b9050919050565b7f4e6f20455243323020617373657420746f207769746864726177000000000000600082015250565b6000617127601a83615e24565b9150617132826170f1565b602082019050919050565b600060208201905081810360008301526171568161711a565b9050919050565b7f4e6f7420616e2045524337323120617373657400000000000000000000000000600082015250565b6000617193601383615e24565b915061719e8261715d565b602082019050919050565b600060208201905081810360008301526171c281617186565b9050919050565b7f546f6b656e20686173206265656e20616c72656164792077697468647261776e600082015250565b60006171ff602083615e24565b915061720a826171c9565b602082019050919050565b6000602082019050818103600083015261722e816171f2565b9050919050565b600060608201905061724a600083018661596f565b617257602083018561596f565b6172646040830184615448565b949350505050565b7f4e6f7420616e2045524331313535206173736574000000000000000000000000600082015250565b60006172a2601483615e24565b91506172ad8261726c565b602082019050919050565b600060208201905081810360008301526172d181617295565b9050919050565b7f4e6f204552433131353520617373657420746f20776974686472617700000000600082015250565b600061730e601c83615e24565b9150617319826172d8565b602082019050919050565b6000602082019050818103600083015261733d81617301565b9050919050565b600082825260208201905092915050565b50565b6000617365600083617344565b915061737082617355565b600082019050919050565b600060a082019050617390600083018761596f565b61739d602083018661596f565b6173aa6040830185615448565b6173b76060830184615448565b81810360808301526173c881617358565b905095945050505050565b7f496e76616c696420455243323020616d6f756e74000000000000000000000000600082015250565b6000617409601483615e24565b9150617414826173d3565b602082019050919050565b60006020820190508181036000830152617438816173fc565b9050919050565b7f496e76616c69642045544820616d6f756e740000000000000000000000000000600082015250565b6000617475601283615e24565b91506174808261743f565b602082019050919050565b600060208201905081810360008301526174a481617468565b9050919050565b7f496e76616c696420617373657449640000000000000000000000000000000000600082015250565b60006174e1600f83615e24565b91506174ec826174ab565b602082019050919050565b60006020820190508181036000830152617510816174d4565b9050919050565b60008151905061752681615b55565b92915050565b600060208284031215617542576175416153c8565b5b600061755084828501617517565b91505092915050565b7f4552433732313a20696e73756666696369656e7420617070726f76616c000000600082015250565b600061758f601d83615e24565b915061759a82617559565b602082019050919050565b600060208201905081810360008301526175be81617582565b9050919050565b7f496e76616c6964204552433131353520616d6f756e7400000000000000000000600082015250565b60006175fb601683615e24565b9150617606826175c5565b602082019050919050565b6000602082019050818103600083015261762a816175ee565b905091905056fea2646970667358221220aa4ea16f5b18feb516cfdbfc8f9e008ede5e619947e915db1ddd0f4d2922850864736f6c634300081c0033",
  "linkReferences": {},
  "deployedLinkReferences": {}
}