{
  "_format": "hh-sol-artifact-1",
  "contractName": "AuctionHouse",
  "sourceName": "contracts/Auction.sol",
  "abi": [
    {
      "inputs": [],
      "stateMutability": "nonpayable",
      "type": "constructor"
    },
    {
      "inputs": [
        {
          "internalType": "address",
          "name": "owner",
          "type": "address"
        }
      ],
      "name": "OwnableInvalidOwner",
      "type": "error"
    },
    {
      "inputs": [
        {
          "internalType": "address",
          "name": "account",
          "type": "address"
        }
      ],
      "name": "OwnableUnauthorizedAccount",
      "type": "error"
    },
    {
      "inputs": [
        {
          "internalType": "address",
          "name": "token",
          "type": "address"
        }
      ],
      "name": "SafeERC20FailedOperation",
      "type": "error"
    },
    {
      "anonymous": false,
      "inputs": [
        {
          "indexed": true,
          "internalType": "uint256",
          "name": "auctionId",
          "type": "uint256"
        },
        {
          "indexed": false,
          "internalType": "address",
          "name": "arbiter",
          "type": "address"
        }
      ],
      "name": "ArbiterSet",
      "type": "event"
    },
    {
      "anonymous": false,
      "inputs": [
        {
          "indexed": true,
          "internalType": "uint256",
          "name": "auctionId",
          "type": "uint256"
        },
        {
          "indexed": false,
          "internalType": "address",
          "name": "creator",
          "type": "address"
        }
      ],
      "name": "AuctionCreated",
      "type": "event"
    },
    {
      "anonymous": false,
      "inputs": [
        {
          "indexed": true,
          "internalType": "uint256",
          "name": "auctionId",
          "type": "uint256"
        },
        {
          "indexed": false,
          "internalType": "address",
          "name": "winner",
          "type": "address"
        },
        {
          "indexed": false,
          "internalType": "uint256",
          "name": "finalPrice",
          "type": "uint256"
        }
      ],
      "name": "AuctionFinalized",
      "type": "event"
    },
    {
      "anonymous": false,
      "inputs": [
        {
          "indexed": true,
          "internalType": "uint256",
          "name": "auctionId",
          "type": "uint256"
        },
        {
          "indexed": false,
          "internalType": "address",
          "name": "bidder",
          "type": "address"
        },
        {
          "indexed": false,
          "internalType": "uint256",
          "name": "refundedAmount",
          "type": "uint256"
        }
      ],
      "name": "AuctionRefunded",
      "type": "event"
    },
    {
      "anonymous": false,
      "inputs": [
        {
          "indexed": true,
          "internalType": "uint256",
          "name": "auctionId",
          "type": "uint256"
        },
        {
          "indexed": false,
          "internalType": "uint256",
          "name": "bidId",
          "type": "uint256"
        },
        {
          "indexed": false,
          "internalType": "address",
          "name": "bidder",
          "type": "address"
        },
        {
          "indexed": false,
          "internalType": "uint256",
          "name": "amount",
          "type": "uint256"
        }
      ],
      "name": "BidPlaced",
      "type": "event"
    },
    {
      "anonymous": false,
      "inputs": [
        {
          "indexed": true,
          "internalType": "uint256",
          "name": "auctionId",
          "type": "uint256"
        },
        {
          "indexed": false,
          "internalType": "uint256",
          "name": "bidId",
          "type": "uint256"
        },
        {
          "indexed": false,
          "internalType": "address",
          "name": "bidder",
          "type": "address"
        },
        {
          "indexed": false,
          "internalType": "uint256",
          "name": "amount",
          "type": "uint256"
        }
      ],
      "name": "BidWithdrawn",
      "type": "event"
    },
    {
      "anonymous": false,
      "inputs": [
        {
          "indexed": true,
          "internalType": "uint256",
          "name": "auctionId",
          "type": "uint256"
        },
        {
          "indexed": false,
          "internalType": "address",
          "name": "arbiter",
          "type": "address"
        }
      ],
      "name": "NewSwapArbiterRequest",
      "type": "event"
    },
    {
      "anonymous": false,
      "inputs": [
        {
          "indexed": true,
          "internalType": "address",
          "name": "previousOwner",
          "type": "address"
        },
        {
          "indexed": true,
          "internalType": "address",
          "name": "newOwner",
          "type": "address"
        }
      ],
      "name": "OwnershipTransferred",
      "type": "event"
    },
    {
      "inputs": [
        {
          "internalType": "uint256",
          "name": "auctionId",
          "type": "uint256"
        }
      ],
      "name": "approveRefund",
      "outputs": [],
      "stateMutability": "nonpayable",
      "type": "function"
    },
    {
      "inputs": [],
      "name": "auctionCount",
      "outputs": [
        {
          "internalType": "uint256",
          "name": "",
          "type": "uint256"
        }
      ],
      "stateMutability": "view",
      "type": "function"
    },
    {
      "inputs": [
        {
          "internalType": "uint256",
          "name": "",
          "type": "uint256"
        },
        {
          "internalType": "uint256",
          "name": "",
          "type": "uint256"
        }
      ],
      "name": "bids",
      "outputs": [
        {
          "internalType": "uint256",
          "name": "id",
          "type": "uint256"
        },
        {
          "internalType": "address",
          "name": "sender",
          "type": "address"
        },
        {
          "internalType": "uint256",
          "name": "price",
          "type": "uint256"
        },
        {
          "internalType": "uint256",
          "name": "date",
          "type": "uint256"
        },
        {
          "internalType": "bool",
          "name": "withdrawn",
          "type": "bool"
        }
      ],
      "stateMutability": "view",
      "type": "function"
    },
    {
      "inputs": [
        {
          "internalType": "address",
          "name": "newOwner",
          "type": "address"
        }
      ],
      "name": "changeOwner",
      "outputs": [],
      "stateMutability": "nonpayable",
      "type": "function"
    },
    {
      "inputs": [
        {
          "internalType": "string",
          "name": "title",
          "type": "string"
        },
        {
          "internalType": "enum AuctionHouse.AssetType",
          "name": "assetType",
          "type": "uint8"
        },
        {
          "internalType": "uint256",
          "name": "startPrice",
          "type": "uint256"
        },
        {
          "internalType": "uint256",
          "name": "bidStep",
          "type": "uint256"
        },
        {
          "internalType": "uint256",
          "name": "endTime",
          "type": "uint256"
        },
        {
          "internalType": "address",
          "name": "assetContract",
          "type": "address"
        },
        {
          "internalType": "uint256",
          "name": "assetId",
          "type": "uint256"
        },
        {
          "internalType": "uint256",
          "name": "assetAmount",
          "type": "uint256"
        },
        {
          "internalType": "address",
          "name": "arbiter",
          "type": "address"
        }
      ],
      "name": "createAuction",
      "outputs": [],
      "stateMutability": "payable",
      "type": "function"
    },
    {
      "inputs": [],
      "name": "owner",
      "outputs": [
        {
          "internalType": "address",
          "name": "",
          "type": "address"
        }
      ],
      "stateMutability": "view",
      "type": "function"
    },
    {
      "inputs": [
        {
          "internalType": "uint256",
          "name": "auctionId",
          "type": "uint256"
        }
      ],
      "name": "placeBid",
      "outputs": [],
      "stateMutability": "payable",
      "type": "function"
    },
    {
      "inputs": [],
      "name": "renounceOwnership",
      "outputs": [],
      "stateMutability": "nonpayable",
      "type": "function"
    },
    {
      "inputs": [
        {
          "internalType": "uint256",
          "name": "auctionId",
          "type": "uint256"
        },
        {
          "internalType": "uint256",
          "name": "bidId",
          "type": "uint256"
        }
      ],
      "name": "takeMyBid",
      "outputs": [],
      "stateMutability": "nonpayable",
      "type": "function"
    },
    {
      "inputs": [
        {
          "internalType": "address",
          "name": "newOwner",
          "type": "address"
        }
      ],
      "name": "transferOwnership",
      "outputs": [],
      "stateMutability": "nonpayable",
      "type": "function"
    },
    {
      "inputs": [
        {
          "internalType": "uint256",
          "name": "auctionId",
          "type": "uint256"
        },
        {
          "internalType": "address",
          "name": "newArbiter",
          "type": "address"
        }
      ],
      "name": "verifyNewArbiter",
      "outputs": [],
      "stateMutability": "nonpayable",
      "type": "function"
    },
    {
      "inputs": [],
      "name": "withdrawFees",
      "outputs": [],
      "stateMutability": "nonpayable",
      "type": "function"
    }
  ],
  "bytecode": "0x608060405234801561001057600080fd5b5033600073ffffffffffffffffffffffffffffffffffffffff168173ffffffffffffffffffffffffffffffffffffffff16036100845760006040517f1e4fbdf700000000000000000000000000000000000000000000000000000000815260040161007b919061019e565b60405180910390fd5b6100938161009960201b60201c565b506101b9565b60008060009054906101000a900473ffffffffffffffffffffffffffffffffffffffff169050816000806101000a81548173ffffffffffffffffffffffffffffffffffffffff021916908373ffffffffffffffffffffffffffffffffffffffff1602179055508173ffffffffffffffffffffffffffffffffffffffff168173ffffffffffffffffffffffffffffffffffffffff167f8be0079c531659141344cd1fd0a4f28419497f9722a3daafe3b4186f6b6457e060405160405180910390a35050565b600073ffffffffffffffffffffffffffffffffffffffff82169050919050565b60006101888261015d565b9050919050565b6101988161017d565b82525050565b60006020820190506101b3600083018461018f565b92915050565b61409e806101c86000396000f3fe6080604052600436106100a75760003560e01c80638da5cb5b116100645780638da5cb5b146101985780639979ef45146101c35780639ee4f47d146101df578063a6f9dae1146101fb578063b61f559f14610224578063f2fde38b1461024d576100a7565b80630282399a146100ac5780632ad71573146100d5578063348a71a614610100578063476343ee14610129578063715018a6146101405780637b3c4baa14610157575b600080fd5b3480156100b857600080fd5b506100d360048036038101906100ce9190612bd2565b610276565b005b3480156100e157600080fd5b506100ea61068a565b6040516100f79190612c21565b60405180910390f35b34801561010c57600080fd5b5061012760048036038101906101229190612c3c565b610690565b005b34801561013557600080fd5b5061013e610d0f565b005b34801561014c57600080fd5b50610155610dae565b005b34801561016357600080fd5b5061017e60048036038101906101799190612bd2565b610dc2565b60405161018f959493929190612cc5565b60405180910390f35b3480156101a457600080fd5b506101ad610e42565b6040516101ba9190612d18565b60405180910390f35b6101dd60048036038101906101d89190612c3c565b610e6b565b005b6101f960048036038101906101f49190612eca565b61157d565b005b34801561020757600080fd5b50610222600480360381019061021d9190612fb0565b611781565b005b34801561023057600080fd5b5061024b60048036038101906102469190612fdd565b611795565b005b34801561025957600080fd5b50610274600480360381019061026f9190612fb0565b611bdd565b005b816001600082815260200190815260200160002060010160009054906101000a900473ffffffffffffffffffffffffffffffffffffffff1673ffffffffffffffffffffffffffffffffffffffff163373ffffffffffffffffffffffffffffffffffffffff160361031b576040517f08c379a00000000000000000000000000000000000000000000000000000000081526004016103129061307a565b60405180910390fd5b8160016000858152602001908152602001600020600201541015610374576040517f08c379a000000000000000000000000000000000000000000000000000000000815260040161036b906130e6565b60405180910390fd5b3373ffffffffffffffffffffffffffffffffffffffff166002600085815260200190815260200160002083815481106103b0576103af613106565b5b906000526020600020906005020160010160009054906101000a900473ffffffffffffffffffffffffffffffffffffffff1673ffffffffffffffffffffffffffffffffffffffff1614610438576040517f08c379a000000000000000000000000000000000000000000000000000000000815260040161042f906131a7565b60405180910390fd5b60026000848152602001908152602001600020828154811061045d5761045c613106565b5b906000526020600020906005020160040160009054906101000a900460ff16156104bc576040517f08c379a00000000000000000000000000000000000000000000000000000000081526004016104b390613239565b60405180910390fd5b81600160008581526020019081526020016000206006016000015414158061050857506203f4806001600085815260200190815260200160002060030154426105059190613288565b10155b610547576040517f08c379a000000000000000000000000000000000000000000000000000000000815260040161053e90613308565b60405180910390fd5b3373ffffffffffffffffffffffffffffffffffffffff166108fc60026000868152602001908152602001600020848154811061058657610585613106565b5b9060005260206000209060050201600201549081150290604051600060405180830381858888f193505050501580156105c3573d6000803e3d6000fd5b5060016002600085815260200190815260200160002083815481106105eb576105ea613106565b5b906000526020600020906005020160040160006101000a81548160ff021916908315150217905550827f343dbf7cf5952b78f69fd86b25d030d987e8efb40ff3bfac7cfcad1f1bc38666833360026000888152602001908152602001600020868154811061065c5761065b613106565b5b90600052602060002090600502016002015460405161067d93929190613328565b60405180910390a2505050565b60045481565b80426001600083815260200190815260200160002060030154106106e9576040517f08c379a00000000000000000000000000000000000000000000000000000000081526004016106e0906133ab565b60405180910390fd5b816000600160008381526020019081526020016000206002015411610743576040517f08c379a000000000000000000000000000000000000000000000000000000000815260040161073a90613417565b60405180910390fd5b82600073ffffffffffffffffffffffffffffffffffffffff163373ffffffffffffffffffffffffffffffffffffffff16141580156108c357506001600082815260200190815260200160002060010160009054906101000a900473ffffffffffffffffffffffffffffffffffffffff1673ffffffffffffffffffffffffffffffffffffffff163373ffffffffffffffffffffffffffffffffffffffff16148061085057506001600082815260200190815260200160002060060160010160009054906101000a900473ffffffffffffffffffffffffffffffffffffffff1673ffffffffffffffffffffffffffffffffffffffff163373ffffffffffffffffffffffffffffffffffffffff16145b806108c2575060016000828152602001908152602001600020600b0160010160000160009054906101000a900473ffffffffffffffffffffffffffffffffffffffff1673ffffffffffffffffffffffffffffffffffffffff163373ffffffffffffffffffffffffffffffffffffffff16145b5b610902576040517f08c379a00000000000000000000000000000000000000000000000000000000081526004016108f990613483565b60405180910390fd5b836001600082815260200190815260200160002060060160040160009054906101000a900460ff161561096a576040517f08c379a0000000000000000000000000000000000000000000000000000000008152600401610961906134ef565b60405180910390fd5b6000600160008781526020019081526020016000209050600181600b0160010160030160003373ffffffffffffffffffffffffffffffffffffffff1673ffffffffffffffffffffffffffffffffffffffff16815260200190815260200160002060006101000a81548160ff021916908315150217905550600081600b0160010160030160008360010160009054906101000a900473ffffffffffffffffffffffffffffffffffffffff1673ffffffffffffffffffffffffffffffffffffffff1673ffffffffffffffffffffffffffffffffffffffff16815260200190815260200160002060009054906101000a900460ff1615610a70578080610a6c9061350f565b9150505b81600b0160010160030160008360060160010160009054906101000a900473ffffffffffffffffffffffffffffffffffffffff1673ffffffffffffffffffffffffffffffffffffffff1673ffffffffffffffffffffffffffffffffffffffff16815260200190815260200160002060009054906101000a900460ff1615610b00578080610afc9061350f565b9150505b81600b01600101600301600083600b0160010160000160009054906101000a900473ffffffffffffffffffffffffffffffffffffffff1673ffffffffffffffffffffffffffffffffffffffff1673ffffffffffffffffffffffffffffffffffffffff16815260200190815260200160002060009054906101000a900460ff1615610b93578080610b8f9061350f565b9150505b60028110158015610bf657508160060160010160009054906101000a900473ffffffffffffffffffffffffffffffffffffffff1673ffffffffffffffffffffffffffffffffffffffff163373ffffffffffffffffffffffffffffffffffffffff16145b15610d06578160060160010160009054906101000a900473ffffffffffffffffffffffffffffffffffffffff1673ffffffffffffffffffffffffffffffffffffffff166108fc83600601600201549081150290604051600060405180830381858888f19350505050158015610c6f573d6000803e3d6000fd5b5060028260170160006101000a81548160ff02191690836003811115610c9857610c97613557565b5b0217905550867f1fbb358145c3622775bcaea65f7176defe61eb7cec5e487e70486ae4083a37b48360060160010160009054906101000a900473ffffffffffffffffffffffffffffffffffffffff168460060160020154604051610cfd929190613586565b60405180910390a25b50505050505050565b610d17611c63565b600060055411610d5c576040517f08c379a0000000000000000000000000000000000000000000000000000000008152600401610d53906135fb565b60405180910390fd5b610d64610e42565b73ffffffffffffffffffffffffffffffffffffffff166108fc6005549081150290604051600060405180830381858888f19350505050158015610dab573d6000803e3d6000fd5b50565b610db6611c63565b610dc06000611cea565b565b60026020528160005260406000208181548110610dde57600080fd5b9060005260206000209060050201600091509150508060000154908060010160009054906101000a900473ffffffffffffffffffffffffffffffffffffffff16908060020154908060030154908060040160009054906101000a900460ff16905085565b60008060009054906101000a900473ffffffffffffffffffffffffffffffffffffffff16905090565b806001600082815260200190815260200160002060010160009054906101000a900473ffffffffffffffffffffffffffffffffffffffff1673ffffffffffffffffffffffffffffffffffffffff163373ffffffffffffffffffffffffffffffffffffffff1603610f10576040517f08c379a0000000000000000000000000000000000000000000000000000000008152600401610f079061307a565b60405180910390fd5b8160006003811115610f2557610f24613557565b5b6001600083815260200190815260200160002060170160009054906101000a900460ff166003811115610f5b57610f5a613557565b5b14610f9b576040517f08c379a0000000000000000000000000000000000000000000000000000000008152600401610f9290613667565b60405180910390fd5b42600160008381526020019081526020016000206003015411610ff3576040517f08c379a0000000000000000000000000000000000000000000000000000000008152600401610fea906136d3565b60405180910390fd5b6001600084815260200190815260200160002060060160010160009054906101000a900473ffffffffffffffffffffffffffffffffffffffff1673ffffffffffffffffffffffffffffffffffffffff163373ffffffffffffffffffffffffffffffffffffffff160361109a576040517f08c379a00000000000000000000000000000000000000000000000000000000081526004016110919061373f565b60405180910390fd5b60006001600085815260200190815260200160002060040154905060006001600086815260200190815260200160002060060160020154146111145760016000858152602001908152602001600020600501546001600086815260200190815260200160002060060160020154611111919061375f565b90505b600060646005836111259190613793565b61112f9190613804565b90506000818361113f919061375f565b905080341015611184576040517f08c379a000000000000000000000000000000000000000000000000000000000815260040161117b90613881565b60405180910390fd5b6001600087815260200190815260200160002060020160008154809291906111ab9061350f565b919050555081600560008282546111c2919061375f565b925050819055503073ffffffffffffffffffffffffffffffffffffffff166108fc849081150290604051600060405180830381858888f1935050505015801561120f573d6000803e3d6000fd5b5060006040518060a00160405280600160008a81526020019081526020016000206002015481526020013373ffffffffffffffffffffffffffffffffffffffff16815260200185815260200142815260200160001515815250905080600160008981526020019081526020016000206006016000820151816000015560208201518160010160006101000a81548173ffffffffffffffffffffffffffffffffffffffff021916908373ffffffffffffffffffffffffffffffffffffffff160217905550604082015181600201556060820151816003015560808201518160040160006101000a81548160ff021916908315150217905550905050600260008881526020019081526020016000208190806001815401808255809150506001900390600052602060002090600502016000909190919091506000820151816000015560208201518160010160006101000a81548173ffffffffffffffffffffffffffffffffffffffff021916908373ffffffffffffffffffffffffffffffffffffffff160217905550604082015181600201556060820151816003015560808201518160040160006101000a81548160ff02191690831515021790555050506040518060a00160405280600160038111156113ec576113eb613557565b5b8152602001600073ffffffffffffffffffffffffffffffffffffffff1681526020016000815260200185815260200160001515815250600360003373ffffffffffffffffffffffffffffffffffffffff1673ffffffffffffffffffffffffffffffffffffffff1681526020019081526020016000206000600454815260200190815260200160002060008201518160000160006101000a81548160ff0219169083600381111561149f5761149e613557565b5b021790555060208201518160000160016101000a81548173ffffffffffffffffffffffffffffffffffffffff021916908373ffffffffffffffffffffffffffffffffffffffff160217905550604082015181600101556060820151816002015560808201518160030160006101000a81548160ff021916908315150217905550905050867f6f7e354ea3ab5c288aea37fce29c603f9a98a3b040f6d8f32f10e192ec47ff6a600160008a815260200190815260200160002060020154333460405161156c93929190613328565b60405180910390a250505050505050565b6000895111801561158f575060108951105b6115ce576040517f08c379a00000000000000000000000000000000000000000000000000000000081526004016115c590613913565b60405180910390fd5b6000871180156115de5750600086115b61161d576040517f08c379a0000000000000000000000000000000000000000000000000000000008152600401611614906139a5565b60405180910390fd5b42851161165f576040517f08c379a000000000000000000000000000000000000000000000000000000000815260040161165690613a11565b60405180910390fd5b600460008154809291906116729061350f565b919050555060006001600060045481526020019081526020016000209050338160010160006101000a81548173ffffffffffffffffffffffffffffffffffffffff021916908373ffffffffffffffffffffffffffffffffffffffff160217905550898160000190816116e49190613c48565b5085816003018190555087816004018190555086816005018190555060008160170160006101000a81548160ff0219169083600381111561172857611727613557565b5b021790555061173b818a87878787611dae565b6004547f5d551e2a2cc977fd8c530317059b4f2d9f504fb82f7dfad736f8d56679bcdfd03360405161176d9190612d18565b60405180910390a250505050505050505050565b611789611c63565b61179281611bdd565b50565b80600073ffffffffffffffffffffffffffffffffffffffff168173ffffffffffffffffffffffffffffffffffffffff1603611805576040517f08c379a00000000000000000000000000000000000000000000000000000000081526004016117fc90613d66565b60405180910390fd5b824260016000838152602001908152602001600020600301541061185e576040517f08c379a0000000000000000000000000000000000000000000000000000000008152600401611855906133ab565b60405180910390fd5b8360038081111561187257611871613557565b5b6001600083815260200190815260200160002060170160009054906101000a900460ff1660038111156118a8576118a7613557565b5b036118e8576040517f08c379a00000000000000000000000000000000000000000000000000000000081526004016118df90613dd2565b60405180910390fd5b60006001600087815260200190815260200160002090506000600381111561191357611912613557565b5b81600b0160000160009054906101000a900460ff16600381111561193a57611939613557565b5b1461197a576040517f08c379a000000000000000000000000000000000000000000000000000000000815260040161197190613e3e565b60405180910390fd5b600081600b01600101905060018160010160003373ffffffffffffffffffffffffffffffffffffffff1673ffffffffffffffffffffffffffffffffffffffff16815260200190815260200160002060008873ffffffffffffffffffffffffffffffffffffffff1673ffffffffffffffffffffffffffffffffffffffff16815260200190815260200160002060006101000a81548160ff0219169083151502179055508060010160008360010160009054906101000a900473ffffffffffffffffffffffffffffffffffffffff1673ffffffffffffffffffffffffffffffffffffffff1673ffffffffffffffffffffffffffffffffffffffff16815260200190815260200160002060008773ffffffffffffffffffffffffffffffffffffffff1673ffffffffffffffffffffffffffffffffffffffff16815260200190815260200160002060009054906101000a900460ff168015611b8757508060010160008360060160010160009054906101000a900473ffffffffffffffffffffffffffffffffffffffff1673ffffffffffffffffffffffffffffffffffffffff1673ffffffffffffffffffffffffffffffffffffffff16815260200190815260200160002060008773ffffffffffffffffffffffffffffffffffffffff1673ffffffffffffffffffffffffffffffffffffffff16815260200190815260200160002060009054906101000a900460ff165b15611b9b57611b968787611ee3565b611bd4565b867f72b40eee14e98bd8d2bc65c87ff20854b646e093022fb15f5ff20c0b98f8d8fe87604051611bcb9190612d18565b60405180910390a25b50505050505050565b611be5611c63565b600073ffffffffffffffffffffffffffffffffffffffff168173ffffffffffffffffffffffffffffffffffffffff1603611c575760006040517f1e4fbdf7000000000000000000000000000000000000000000000000000000008152600401611c4e9190612d18565b60405180910390fd5b611c6081611cea565b50565b611c6b61202e565b73ffffffffffffffffffffffffffffffffffffffff16611c89610e42565b73ffffffffffffffffffffffffffffffffffffffff1614611ce857611cac61202e565b6040517f118cdaa7000000000000000000000000000000000000000000000000000000008152600401611cdf9190612d18565b60405180910390fd5b565b60008060009054906101000a900473ffffffffffffffffffffffffffffffffffffffff169050816000806101000a81548173ffffffffffffffffffffffffffffffffffffffff021916908373ffffffffffffffffffffffffffffffffffffffff1602179055508173ffffffffffffffffffffffffffffffffffffffff168173ffffffffffffffffffffffffffffffffffffffff167f8be0079c531659141344cd1fd0a4f28419497f9722a3daafe3b4186f6b6457e060405160405180910390a35050565b60006003811115611dc257611dc1613557565b5b856003811115611dd557611dd4613557565b5b03611de957611de48682612036565b611edb565b60016003811115611dfd57611dfc613557565b5b856003811115611e1057611e0f613557565b5b03611e2557611e20868584612124565b611eda565b60026003811115611e3957611e38613557565b5b856003811115611e4c57611e4b613557565b5b03611e6157611e5c868585612426565b611ed9565b600380811115611e7457611e73613557565b5b856003811115611e8757611e86613557565b5b03611e9d57611e988685858561271b565b611ed8565b6040517f08c379a0000000000000000000000000000000000000000000000000000000008152600401611ecf90613e3e565b60405180910390fd5b5b5b5b505050505050565b80600073ffffffffffffffffffffffffffffffffffffffff168173ffffffffffffffffffffffffffffffffffffffff1603611f53576040517f08c379a0000000000000000000000000000000000000000000000000000000008152600401611f4a90613d66565b60405180910390fd5b60016000848152602001908152602001600020600b01600101600080820160006101000a81549073ffffffffffffffffffffffffffffffffffffffff021916905550508160016000858152602001908152602001600020600b0160010160000160006101000a81548173ffffffffffffffffffffffffffffffffffffffff021916908373ffffffffffffffffffffffffffffffffffffffff160217905550827fc8d8ceeeb85b71e935c56c5b01b3172ac921f56f0174509be0c62f01e84c3905836040516120219190612d18565b60405180910390a2505050565b600033905090565b80600073ffffffffffffffffffffffffffffffffffffffff168173ffffffffffffffffffffffffffffffffffffffff16036120a6576040517f08c379a000000000000000000000000000000000000000000000000000000000815260040161209d90613d66565b60405180910390fd5b600083600b0160000160006101000a81548160ff021916908360038111156120d1576120d0613557565b5b02179055508183600b0160010160000160006101000a81548173ffffffffffffffffffffffffffffffffffffffff021916908373ffffffffffffffffffffffffffffffffffffffff160217905550505050565b60008111612167576040517f08c379a000000000000000000000000000000000000000000000000000000000815260040161215e90613eaa565b60405180910390fd5b600073ffffffffffffffffffffffffffffffffffffffff168273ffffffffffffffffffffffffffffffffffffffff16036121e2573481146121dd576040517f08c379a00000000000000000000000000000000000000000000000000000000081526004016121d490613f16565b60405180910390fd5b61229c565b60008290506122143330848473ffffffffffffffffffffffffffffffffffffffff16612a64909392919063ffffffff16565b60405180604001604052808381526020018273ffffffffffffffffffffffffffffffffffffffff1681525084600b016005016000820151816000015560208201518160010160006101000a81548173ffffffffffffffffffffffffffffffffffffffff021916908373ffffffffffffffffffffffffffffffffffffffff160217905550905050505b600183600b0160000160006101000a81548160ff021916908360038111156122c7576122c6613557565b5b02179055506040518060a00160405280600160038111156122eb576122ea613557565b5b81526020018373ffffffffffffffffffffffffffffffffffffffff168152602001600081526020016000815260200160001515815250600360003373ffffffffffffffffffffffffffffffffffffffff1673ffffffffffffffffffffffffffffffffffffffff1681526020019081526020016000206000600454815260200190815260200160002060008201518160000160006101000a81548160ff0219169083600381111561239e5761239d613557565b5b021790555060208201518160000160016101000a81548173ffffffffffffffffffffffffffffffffffffffff021916908373ffffffffffffffffffffffffffffffffffffffff160217905550604082015181600101556060820151816002015560808201518160030160006101000a81548160ff021916908315150217905550905050505050565b81600073ffffffffffffffffffffffffffffffffffffffff168173ffffffffffffffffffffffffffffffffffffffff1603612496576040517f08c379a000000000000000000000000000000000000000000000000000000000815260040161248d90613d66565b60405180910390fd5b60008390508073ffffffffffffffffffffffffffffffffffffffff166323b872dd3330866040518463ffffffff1660e01b81526004016124d893929190613f36565b600060405180830381600087803b1580156124f257600080fd5b505af1158015612506573d6000803e3d6000fd5b50505050600285600b0160000160006101000a81548160ff0219169083600381111561253557612534613557565b5b021790555060405180604001604052808481526020018273ffffffffffffffffffffffffffffffffffffffff1681525085600b016007016000820151816000015560208201518160010160006101000a81548173ffffffffffffffffffffffffffffffffffffffff021916908373ffffffffffffffffffffffffffffffffffffffff1602179055509050506040518060a00160405280600260038111156125df576125de613557565b5b81526020018573ffffffffffffffffffffffffffffffffffffffff1681526020018481526020016000815260200160001515815250600360003373ffffffffffffffffffffffffffffffffffffffff1673ffffffffffffffffffffffffffffffffffffffff1681526020019081526020016000206000600454815260200190815260200160002060008201518160000160006101000a81548160ff0219169083600381111561269157612690613557565b5b021790555060208201518160000160016101000a81548173ffffffffffffffffffffffffffffffffffffffff021916908373ffffffffffffffffffffffffffffffffffffffff160217905550604082015181600101556060820151816002015560808201518160030160006101000a81548160ff0219169083151502179055509050505050505050565b82600073ffffffffffffffffffffffffffffffffffffffff168173ffffffffffffffffffffffffffffffffffffffff160361278b576040517f08c379a000000000000000000000000000000000000000000000000000000000815260040161278290613d66565b60405180910390fd5b600082116127ce576040517f08c379a00000000000000000000000000000000000000000000000000000000081526004016127c590613fb9565b60405180910390fd5b60008490508073ffffffffffffffffffffffffffffffffffffffff1663f242432a333087876040518563ffffffff1660e01b81526004016128129493929190614010565b600060405180830381600087803b15801561282c57600080fd5b505af1158015612840573d6000803e3d6000fd5b50505050600386600b0160000160006101000a81548160ff0219169083600381111561286f5761286e613557565b5b021790555060405180606001604052808581526020018481526020018273ffffffffffffffffffffffffffffffffffffffff1681525086600b01600901600082015181600001556020820151816001015560408201518160020160006101000a81548173ffffffffffffffffffffffffffffffffffffffff021916908373ffffffffffffffffffffffffffffffffffffffff1602179055509050506040518060a0016040528060038081111561292857612927613557565b5b81526020018673ffffffffffffffffffffffffffffffffffffffff16815260200185815260200184815260200160001515815250600360003373ffffffffffffffffffffffffffffffffffffffff1673ffffffffffffffffffffffffffffffffffffffff1681526020019081526020016000206000600454815260200190815260200160002060008201518160000160006101000a81548160ff021916908360038111156129d9576129d8613557565b5b021790555060208201518160000160016101000a81548173ffffffffffffffffffffffffffffffffffffffff021916908373ffffffffffffffffffffffffffffffffffffffff160217905550604082015181600101556060820151816002015560808201518160030160006101000a81548160ff021916908315150217905550905050505050505050565b612ae0848573ffffffffffffffffffffffffffffffffffffffff166323b872dd868686604051602401612a9993929190613f36565b604051602081830303815290604052915060e01b6020820180517bffffffffffffffffffffffffffffffffffffffffffffffffffffffff8381831617835250505050612ae6565b50505050565b600080602060008451602086016000885af180612b09576040513d6000823e3d81fd5b3d925060005191505060008214612b24576001811415612b40565b60008473ffffffffffffffffffffffffffffffffffffffff163b145b15612b8257836040517f5274afe7000000000000000000000000000000000000000000000000000000008152600401612b799190612d18565b60405180910390fd5b50505050565b6000604051905090565b600080fd5b600080fd5b6000819050919050565b612baf81612b9c565b8114612bba57600080fd5b50565b600081359050612bcc81612ba6565b92915050565b60008060408385031215612be957612be8612b92565b5b6000612bf785828601612bbd565b9250506020612c0885828601612bbd565b9150509250929050565b612c1b81612b9c565b82525050565b6000602082019050612c366000830184612c12565b92915050565b600060208284031215612c5257612c51612b92565b5b6000612c6084828501612bbd565b91505092915050565b600073ffffffffffffffffffffffffffffffffffffffff82169050919050565b6000612c9482612c69565b9050919050565b612ca481612c89565b82525050565b60008115159050919050565b612cbf81612caa565b82525050565b600060a082019050612cda6000830188612c12565b612ce76020830187612c9b565b612cf46040830186612c12565b612d016060830185612c12565b612d0e6080830184612cb6565b9695505050505050565b6000602082019050612d2d6000830184612c9b565b92915050565b600080fd5b600080fd5b6000601f19601f8301169050919050565b7f4e487b7100000000000000000000000000000000000000000000000000000000600052604160045260246000fd5b612d8682612d3d565b810181811067ffffffffffffffff82111715612da557612da4612d4e565b5b80604052505050565b6000612db8612b88565b9050612dc48282612d7d565b919050565b600067ffffffffffffffff821115612de457612de3612d4e565b5b612ded82612d3d565b9050602081019050919050565b82818337600083830152505050565b6000612e1c612e1784612dc9565b612dae565b905082815260208101848484011115612e3857612e37612d38565b5b612e43848285612dfa565b509392505050565b600082601f830112612e6057612e5f612d33565b5b8135612e70848260208601612e09565b91505092915050565b60048110612e8657600080fd5b50565b600081359050612e9881612e79565b92915050565b612ea781612c89565b8114612eb257600080fd5b50565b600081359050612ec481612e9e565b92915050565b60008060008060008060008060006101208a8c031215612eed57612eec612b92565b5b60008a013567ffffffffffffffff811115612f0b57612f0a612b97565b5b612f178c828d01612e4b565b9950506020612f288c828d01612e89565b9850506040612f398c828d01612bbd565b9750506060612f4a8c828d01612bbd565b9650506080612f5b8c828d01612bbd565b95505060a0612f6c8c828d01612eb5565b94505060c0612f7d8c828d01612bbd565b93505060e0612f8e8c828d01612bbd565b925050610100612fa08c828d01612eb5565b9150509295985092959850929598565b600060208284031215612fc657612fc5612b92565b5b6000612fd484828501612eb5565b91505092915050565b60008060408385031215612ff457612ff3612b92565b5b600061300285828601612bbd565b925050602061301385828601612eb5565b9150509250929050565b600082825260208201905092915050565b7f41732063726561746f7220796f752063616e277420646f207468697300000000600082015250565b6000613064601c8361301d565b915061306f8261302e565b602082019050919050565b6000602082019050818103600083015261309381613057565b9050919050565b7f496e76616c696420626964206964000000000000000000000000000000000000600082015250565b60006130d0600e8361301d565b91506130db8261309a565b602082019050919050565b600060208201905081810360008301526130ff816130c3565b9050919050565b7f4e487b7100000000000000000000000000000000000000000000000000000000600052603260045260246000fd5b7f596f752063616e6e6f7420776974686472617720746f6b656e7320746861742060008201527f617265206e6f7420796f75727300000000000000000000000000000000000000602082015250565b6000613191602d8361301d565b915061319c82613135565b604082019050919050565b600060208201905081810360008301526131c081613184565b9050919050565b7f546f6b656e732068617665206265656e20616c7265616479207769746864726160008201527f776e000000000000000000000000000000000000000000000000000000000000602082015250565b600061322360228361301d565b915061322e826131c7565b604082019050919050565b6000602082019050818103600083015261325281613216565b9050919050565b7f4e487b7100000000000000000000000000000000000000000000000000000000600052601160045260246000fd5b600061329382612b9c565b915061329e83612b9c565b92508282039050818111156132b6576132b5613259565b5b92915050565b7f596f752063616e742074616b652061637475616c206269640000000000000000600082015250565b60006132f260188361301d565b91506132fd826132bc565b602082019050919050565b60006020820190508181036000830152613321816132e5565b9050919050565b600060608201905061333d6000830186612c12565b61334a6020830185612c9b565b6133576040830184612c12565b949350505050565b7f41756374696f6e206e6f74206578706972656400000000000000000000000000600082015250565b600061339560138361301d565b91506133a08261335f565b602082019050919050565b600060208201905081810360008301526133c481613388565b9050919050565b7f41756374696f6e20686173206e6f206269647300000000000000000000000000600082015250565b600061340160138361301d565b915061340c826133cb565b602082019050919050565b60006020820190508181036000830152613430816133f4565b9050919050565b7f596f752063616e27742063616c6c207468697300000000000000000000000000600082015250565b600061346d60138361301d565b915061347882613437565b602082019050919050565b6000602082019050818103600083015261349c81613460565b9050919050565b7f42696420616c72656164792068617665206265656e2077697468647261776e00600082015250565b60006134d9601f8361301d565b91506134e4826134a3565b602082019050919050565b60006020820190508181036000830152613508816134cc565b9050919050565b600061351a82612b9c565b91507fffffffffffffffffffffffffffffffffffffffffffffffffffffffffffffffff820361354c5761354b613259565b5b600182019050919050565b7f4e487b7100000000000000000000000000000000000000000000000000000000600052602160045260246000fd5b600060408201905061359b6000830185612c9b565b6135a86020830184612c12565b9392505050565b7f456d70747920666565732062616c616e63650000000000000000000000000000600082015250565b60006135e560128361301d565b91506135f0826135af565b602082019050919050565b60006020820190508181036000830152613614816135d8565b9050919050565b7f41756374696f6e206e6f74206163746976650000000000000000000000000000600082015250565b600061365160128361301d565b915061365c8261361b565b602082019050919050565b6000602082019050818103600083015261368081613644565b9050919050565b7f41756374696f6e20657870697265640000000000000000000000000000000000600082015250565b60006136bd600f8361301d565b91506136c882613687565b602082019050919050565b600060208201905081810360008301526136ec816136b0565b9050919050565b7f596f7520616c726561647920706c616365206265737420626964000000000000600082015250565b6000613729601a8361301d565b9150613734826136f3565b602082019050919050565b600060208201905081810360008301526137588161371c565b9050919050565b600061376a82612b9c565b915061377583612b9c565b925082820190508082111561378d5761378c613259565b5b92915050565b600061379e82612b9c565b91506137a983612b9c565b92508282026137b781612b9c565b915082820484148315176137ce576137cd613259565b5b5092915050565b7f4e487b7100000000000000000000000000000000000000000000000000000000600052601260045260246000fd5b600061380f82612b9c565b915061381a83612b9c565b92508261382a576138296137d5565b5b828204905092915050565b7f496e73756666696369656e7420616d6f756e7400000000000000000000000000600082015250565b600061386b60138361301d565b915061387682613835565b602082019050919050565b6000602082019050818103600083015261389a8161385e565b9050919050565b7f5469746c65206c656e677468206d75737420626520677265617465722074686160008201527f6e203020616e64206c657373207468616e203136000000000000000000000000602082015250565b60006138fd60348361301d565b9150613908826138a1565b604082019050919050565b6000602082019050818103600083015261392c816138f0565b9050919050565b7f53746172742062696420616e64206269642073746570206d757374206265206760008201527f726561746572207468616e207a65726f00000000000000000000000000000000602082015250565b600061398f60308361301d565b915061399a82613933565b604082019050919050565b600060208201905081810360008301526139be81613982565b9050919050565b7f456e642074696d65206d7573742062652076616c696400000000000000000000600082015250565b60006139fb60168361301d565b9150613a06826139c5565b602082019050919050565b60006020820190508181036000830152613a2a816139ee565b9050919050565b600081519050919050565b7f4e487b7100000000000000000000000000000000000000000000000000000000600052602260045260246000fd5b60006002820490506001821680613a8357607f821691505b602082108103613a9657613a95613a3c565b5b50919050565b60008190508160005260206000209050919050565b60006020601f8301049050919050565b600082821b905092915050565b600060088302613afe7fffffffffffffffffffffffffffffffffffffffffffffffffffffffffffffffff82613ac1565b613b088683613ac1565b95508019841693508086168417925050509392505050565b6000819050919050565b6000613b45613b40613b3b84612b9c565b613b20565b612b9c565b9050919050565b6000819050919050565b613b5f83613b2a565b613b73613b6b82613b4c565b848454613ace565b825550505050565b600090565b613b88613b7b565b613b93818484613b56565b505050565b5b81811015613bb757613bac600082613b80565b600181019050613b99565b5050565b601f821115613bfc57613bcd81613a9c565b613bd684613ab1565b81016020851015613be5578190505b613bf9613bf185613ab1565b830182613b98565b50505b505050565b600082821c905092915050565b6000613c1f60001984600802613c01565b1980831691505092915050565b6000613c388383613c0e565b9150826002028217905092915050565b613c5182613a31565b67ffffffffffffffff811115613c6a57613c69612d4e565b5b613c748254613a6b565b613c7f828285613bbb565b600060209050601f831160018114613cb25760008415613ca0578287015190505b613caa8582613c2c565b865550613d12565b601f198416613cc086613a9c565b60005b82811015613ce857848901518255600182019150602085019450602081019050613cc3565b86831015613d055784890151613d01601f891682613c0e565b8355505b6001600288020188555050505b505050505050565b7f496e76616c696420616464726573730000000000000000000000000000000000600082015250565b6000613d50600f8361301d565b9150613d5b82613d1a565b602082019050919050565b60006020820190508181036000830152613d7f81613d43565b9050919050565b7f41756374696f6e206e6f7420776169742066696e616c697a6174696f6e000000600082015250565b6000613dbc601d8361301d565b9150613dc782613d86565b602082019050919050565b60006020820190508181036000830152613deb81613daf565b9050919050565b7f496e76616c696420617373657420747970650000000000000000000000000000600082015250565b6000613e2860128361301d565b9150613e3382613df2565b602082019050919050565b60006020820190508181036000830152613e5781613e1b565b9050919050565b7f496e76616c696420455243323020616d6f756e74000000000000000000000000600082015250565b6000613e9460148361301d565b9150613e9f82613e5e565b602082019050919050565b60006020820190508181036000830152613ec381613e87565b9050919050565b7f496e76616c69642045544820616d6f756e740000000000000000000000000000600082015250565b6000613f0060128361301d565b9150613f0b82613eca565b602082019050919050565b60006020820190508181036000830152613f2f81613ef3565b9050919050565b6000606082019050613f4b6000830186612c9b565b613f586020830185612c9b565b613f656040830184612c12565b949350505050565b7f496e76616c6964204552433131353520616d6f756e7400000000000000000000600082015250565b6000613fa360168361301d565b9150613fae82613f6d565b602082019050919050565b60006020820190508181036000830152613fd281613f96565b9050919050565b600082825260208201905092915050565b50565b6000613ffa600083613fd9565b915061400582613fea565b600082019050919050565b600060a0820190506140256000830187612c9b565b6140326020830186612c9b565b61403f6040830185612c12565b61404c6060830184612c12565b818103608083015261405d81613fed565b90509594505050505056fea26469706673582212205a44b11dd162919c3e67199c8ccf5bfb59230c3dae40eca9e04a440a2db181d564736f6c634300081c0033",
  "linkReferences": {},
  "deployedLinkReferences": {}
}