{
  "_format": "hh-sol-artifact-1",
  "contractName": "DEDUAssess",
  "sourceName": "contracts/DEDUAssess.sol",
  "abi": [
    {
      "anonymous": false,
      "inputs": [
        {
          "indexed": false,
          "internalType": "uint256",
          "name": "projectId",
          "type": "uint256"
        },
        {
          "indexed": false,
          "internalType": "string",
          "name": "name",
          "type": "string"
        },
        {
          "indexed": false,
          "internalType": "address",
          "name": "mentor",
          "type": "address"
        }
      ],
      "name": "ProjectCreated",
      "type": "event"
    },
    {
      "anonymous": false,
      "inputs": [
        {
          "indexed": false,
          "internalType": "uint256",
          "name": "projectId",
          "type": "uint256"
        },
        {
          "indexed": false,
          "internalType": "address",
          "name": "student",
          "type": "address"
        }
      ],
      "name": "TaskRejected",
      "type": "event"
    },
    {
      "anonymous": false,
      "inputs": [
        {
          "indexed": false,
          "internalType": "uint256",
          "name": "projectId",
          "type": "uint256"
        },
        {
          "indexed": false,
          "internalType": "address",
          "name": "student",
          "type": "address"
        },
        {
          "indexed": false,
          "internalType": "bytes32",
          "name": "taskHash",
          "type": "bytes32"
        }
      ],
      "name": "TaskSubmitted",
      "type": "event"
    },
    {
      "anonymous": false,
      "inputs": [
        {
          "indexed": false,
          "internalType": "uint256",
          "name": "projectId",
          "type": "uint256"
        },
        {
          "indexed": false,
          "internalType": "address",
          "name": "student",
          "type": "address"
        },
        {
          "indexed": false,
          "internalType": "bytes32",
          "name": "taskHash",
          "type": "bytes32"
        },
        {
          "indexed": false,
          "internalType": "uint8",
          "name": "grade",
          "type": "uint8"
        }
      ],
      "name": "TaskVerified",
      "type": "event"
    },
    {
      "inputs": [
        {
          "internalType": "string",
          "name": "name",
          "type": "string"
        },
        {
          "internalType": "string",
          "name": "description",
          "type": "string"
        },
        {
          "internalType": "uint256",
          "name": "deadline",
          "type": "uint256"
        },
        {
          "internalType": "bool",
          "name": "allowResubmission",
          "type": "bool"
        },
        {
          "internalType": "address[]",
          "name": "verifiers",
          "type": "address[]"
        },
        {
          "internalType": "address[]",
          "name": "allowedStudents",
          "type": "address[]"
        }
      ],
      "name": "createProject",
      "outputs": [],
      "stateMutability": "nonpayable",
      "type": "function"
    },
    {
      "inputs": [
        {
          "internalType": "uint256",
          "name": "projectId",
          "type": "uint256"
        }
      ],
      "name": "getProject",
      "outputs": [
        {
          "components": [
            {
              "internalType": "string",
              "name": "name",
              "type": "string"
            },
            {
              "internalType": "string",
              "name": "description",
              "type": "string"
            },
            {
              "internalType": "uint256",
              "name": "deadline",
              "type": "uint256"
            },
            {
              "internalType": "address",
              "name": "mentor",
              "type": "address"
            },
            {
              "internalType": "bool",
              "name": "isRestricted",
              "type": "bool"
            },
            {
              "internalType": "bool",
              "name": "allowResubmission",
              "type": "bool"
            }
          ],
          "internalType": "struct DEDUAssess.ProjectView",
          "name": "",
          "type": "tuple"
        }
      ],
      "stateMutability": "view",
      "type": "function"
    },
    {
      "inputs": [
        {
          "internalType": "uint256",
          "name": "projectId",
          "type": "uint256"
        },
        {
          "internalType": "address",
          "name": "student",
          "type": "address"
        }
      ],
      "name": "getSubmission",
      "outputs": [
        {
          "components": [
            {
              "internalType": "bytes32",
              "name": "taskHash",
              "type": "bytes32"
            },
            {
              "internalType": "bool",
              "name": "isVerified",
              "type": "bool"
            },
            {
              "internalType": "bool",
              "name": "isRejected",
              "type": "bool"
            },
            {
              "internalType": "uint8",
              "name": "grade",
              "type": "uint8"
            }
          ],
          "internalType": "struct DEDUAssess.Submission",
          "name": "",
          "type": "tuple"
        }
      ],
      "stateMutability": "view",
      "type": "function"
    },
    {
      "inputs": [
        {
          "internalType": "uint256",
          "name": "projectId",
          "type": "uint256"
        },
        {
          "internalType": "address",
          "name": "student",
          "type": "address"
        }
      ],
      "name": "isAllowedStudent",
      "outputs": [
        {
          "internalType": "bool",
          "name": "",
          "type": "bool"
        }
      ],
      "stateMutability": "view",
      "type": "function"
    },
    {
      "inputs": [
        {
          "internalType": "uint256",
          "name": "projectId",
          "type": "uint256"
        },
        {
          "internalType": "address",
          "name": "user",
          "type": "address"
        }
      ],
      "name": "isVerifier",
      "outputs": [
        {
          "internalType": "bool",
          "name": "",
          "type": "bool"
        }
      ],
      "stateMutability": "view",
      "type": "function"
    },
    {
      "inputs": [],
      "name": "projectCount",
      "outputs": [
        {
          "internalType": "uint256",
          "name": "",
          "type": "uint256"
        }
      ],
      "stateMutability": "view",
      "type": "function"
    },
    {
      "inputs": [
        {
          "internalType": "uint256",
          "name": "projectId",
          "type": "uint256"
        },
        {
          "internalType": "address",
          "name": "student",
          "type": "address"
        }
      ],
      "name": "rejectTask",
      "outputs": [],
      "stateMutability": "nonpayable",
      "type": "function"
    },
    {
      "inputs": [
        {
          "internalType": "uint256",
          "name": "projectId",
          "type": "uint256"
        },
        {
          "internalType": "bytes32",
          "name": "taskHash",
          "type": "bytes32"
        }
      ],
      "name": "submitTask",
      "outputs": [],
      "stateMutability": "nonpayable",
      "type": "function"
    },
    {
      "inputs": [
        {
          "internalType": "bytes32",
          "name": "",
          "type": "bytes32"
        }
      ],
      "name": "verifiedTasks",
      "outputs": [
        {
          "internalType": "uint8",
          "name": "",
          "type": "uint8"
        }
      ],
      "stateMutability": "view",
      "type": "function"
    },
    {
      "inputs": [
        {
          "internalType": "uint256",
          "name": "projectId",
          "type": "uint256"
        },
        {
          "internalType": "address",
          "name": "student",
          "type": "address"
        },
        {
          "internalType": "uint8",
          "name": "grade",
          "type": "uint8"
        }
      ],
      "name": "verifyTask",
      "outputs": [],
      "stateMutability": "nonpayable",
      "type": "function"
    }
  ],
  "bytecode": "0x6080604052348015600f57600080fd5b506126828061001f6000396000f3fe608060405234801561001057600080fd5b506004361061009e5760003560e01c80636eedc2c3116100665780636eedc2c3146101595780637b6ffbca14610189578063a3dc85d8146101a5578063ecdc73d8146101d5578063f0f3f2c8146101f15761009e565b80632df145e2146100a357806330709953146100bf57806336fbad26146100ef57806354a18c811461010d57806355f0e22114610129575b600080fd5b6100bd60048036038101906100b891906115a0565b610221565b005b6100d960048036038101906100d4919061163e565b6105a0565b6040516100e69190611699565b60405180910390f35b6100f7610657565b60405161010491906116c3565b60405180910390f35b6101276004803603810190610122919061163e565b61065d565b005b610143600480360381019061013e919061163e565b610905565b604051610150919061176d565b60405180910390f35b610173600480360381019061016e9190611788565b610abc565b60405161018091906117c4565b60405180910390f35b6101a3600480360381019061019e9190611a19565b610adc565b005b6101bf60048036038101906101ba919061163e565b610dcd565b6040516101cc9190611699565b60405180910390f35b6101ef60048036038101906101ea9190611b42565b610ea9565b005b61020b60048036038101906102069190611b95565b6111a0565b6040516102189190611cef565b60405180910390f35b8160018161022f9190611d40565b6003541015610273576040517f08c379a000000000000000000000000000000000000000000000000000000000815260040161026a90611dd1565b60405180910390fd5b8261027e81336105a0565b6102bd576040517f08c379a00000000000000000000000000000000000000000000000000000000081526004016102b490611e3d565b60405180910390fd5b60008085815260200190815260200160002060020154421115610315576040517f08c379a000000000000000000000000000000000000000000000000000000000815260040161030c90611ea9565b60405180910390fd5b60008085815260200190815260200160002060060160019054906101000a900460ff166103d5576000801b6001600086815260200190815260200160002060003373ffffffffffffffffffffffffffffffffffffffff1673ffffffffffffffffffffffffffffffffffffffff16815260200190815260200160002060000154146103d4576040517f08c379a00000000000000000000000000000000000000000000000000000000081526004016103cb90611f15565b60405180910390fd5b5b6001600085815260200190815260200160002060003373ffffffffffffffffffffffffffffffffffffffff1673ffffffffffffffffffffffffffffffffffffffff16815260200190815260200160002060010160009054906101000a900460ff1615610476576040517f08c379a000000000000000000000000000000000000000000000000000000000815260040161046d90611f81565b60405180910390fd5b6040518060800160405280848152602001600015158152602001600015158152602001600060ff168152506001600086815260200190815260200160002060003373ffffffffffffffffffffffffffffffffffffffff1673ffffffffffffffffffffffffffffffffffffffff1681526020019081526020016000206000820151816000015560208201518160010160006101000a81548160ff02191690831515021790555060408201518160010160016101000a81548160ff02191690831515021790555060608201518160010160026101000a81548160ff021916908360ff1602179055509050507f426c8a62b17e201c4e6c6b4364193ae08f72edc8f5e2aa0b9aa3848f5bb5d95484338560405161059293929190611fbf565b60405180910390a150505050565b60006001836105af9190611d40565b600354101580156105e0575060008084815260200190815260200160002060060160009054906101000a900460ff16155b156105ee5760019050610651565b60008084815260200190815260200160002060050160008373ffffffffffffffffffffffffffffffffffffffff1673ffffffffffffffffffffffffffffffffffffffff16815260200190815260200160002060009054906101000a900460ff1690505b92915050565b60035481565b8160018161066b9190611d40565b60035410156106af576040517f08c379a00000000000000000000000000000000000000000000000000000000081526004016106a690611dd1565b60405180910390fd5b826106ba8133610dcd565b6106f9576040517f08c379a00000000000000000000000000000000000000000000000000000000081526004016106f090612042565b60405180910390fd5b83836000801b6001600084815260200190815260200160002060008373ffffffffffffffffffffffffffffffffffffffff1673ffffffffffffffffffffffffffffffffffffffff1681526020019081526020016000206000015403610793576040517f08c379a000000000000000000000000000000000000000000000000000000000815260040161078a906120ae565b60405180910390fd5b60006001600088815260200190815260200160002060008773ffffffffffffffffffffffffffffffffffffffff1673ffffffffffffffffffffffffffffffffffffffff168152602001908152602001600020905061085881604051806080016040529081600082015481526020016001820160009054906101000a900460ff161515151581526020016001820160019054906101000a900460ff161515151581526020016001820160029054906101000a900460ff1660ff1660ff1681525050611411565b600180600089815260200190815260200160002060008873ffffffffffffffffffffffffffffffffffffffff1673ffffffffffffffffffffffffffffffffffffffff16815260200190815260200160002060010160016101000a81548160ff0219169083151502179055507fae1c93c6393c5abab2eaef81c691beeb381335c7913caabf8feaa0b24bd03cc087876040516108f49291906120ce565b60405180910390a150505050505050565b61090d61149e565b8260018161091b9190611d40565b600354101561095f576040517f08c379a000000000000000000000000000000000000000000000000000000000815260040161095690611dd1565b60405180910390fd5b83836000801b6001600084815260200190815260200160002060008373ffffffffffffffffffffffffffffffffffffffff1673ffffffffffffffffffffffffffffffffffffffff16815260200190815260200160002060000154036109f9576040517f08c379a00000000000000000000000000000000000000000000000000000000081526004016109f0906120ae565b60405180910390fd5b6001600087815260200190815260200160002060008673ffffffffffffffffffffffffffffffffffffffff1673ffffffffffffffffffffffffffffffffffffffff168152602001908152602001600020604051806080016040529081600082015481526020016001820160009054906101000a900460ff161515151581526020016001820160019054906101000a900460ff161515151581526020016001820160029054906101000a900460ff1660ff1660ff1681525050935050505092915050565b60026020528060005260406000206000915054906101000a900460ff1681565b834210610b1e576040517f08c379a0000000000000000000000000000000000000000000000000000000008152600401610b1590612143565b60405180910390fd5b600060036000815480929190610b3390612163565b919050559050866000808381526020019081526020016000206000019081610b5b91906123b7565b50856000808381526020019081526020016000206001019081610b7e91906123b7565b5084600080838152602001908152602001600020600201819055503360008083815260200190815260200160002060030160006101000a81548173ffffffffffffffffffffffffffffffffffffffff021916908373ffffffffffffffffffffffffffffffffffffffff160217905550600082511160008083815260200190815260200160002060060160006101000a81548160ff0219169083151502179055508360008083815260200190815260200160002060060160016101000a81548160ff02191690831515021790555060005b8351811015610ce95760016000808481526020019081526020016000206004016000868481518110610c8357610c82612489565b5b602002602001015173ffffffffffffffffffffffffffffffffffffffff1673ffffffffffffffffffffffffffffffffffffffff16815260200190815260200160002060006101000a81548160ff0219169083151502179055508080600101915050610c4e565b5060005b8251811015610d885760016000808481526020019081526020016000206005016000858481518110610d2257610d21612489565b5b602002602001015173ffffffffffffffffffffffffffffffffffffffff1673ffffffffffffffffffffffffffffffffffffffff16815260200190815260200160002060006101000a81548160ff0219169083151502179055508080600101915050610ced565b507fc0c54fed07481d0998e1446b2c13759606bf4f26b78306307413ac4c4309aa82818833604051610dbc939291906124f1565b60405180910390a150505050505050565b60008173ffffffffffffffffffffffffffffffffffffffff1660008085815260200190815260200160002060030160009054906101000a900473ffffffffffffffffffffffffffffffffffffffff1673ffffffffffffffffffffffffffffffffffffffff1603610e405760019050610ea3565b60008084815260200190815260200160002060040160008373ffffffffffffffffffffffffffffffffffffffff1673ffffffffffffffffffffffffffffffffffffffff16815260200190815260200160002060009054906101000a900460ff1690505b92915050565b82600181610eb79190611d40565b6003541015610efb576040517f08c379a0000000000000000000000000000000000000000000000000000000008152600401610ef290611dd1565b60405180910390fd5b83610f068133610dcd565b610f45576040517f08c379a0000000000000000000000000000000000000000000000000000000008152600401610f3c90612042565b60405180910390fd5b84846000801b6001600084815260200190815260200160002060008373ffffffffffffffffffffffffffffffffffffffff1673ffffffffffffffffffffffffffffffffffffffff1681526020019081526020016000206000015403610fdf576040517f08c379a0000000000000000000000000000000000000000000000000000000008152600401610fd6906120ae565b60405180910390fd5b60648560ff161115611026576040517f08c379a000000000000000000000000000000000000000000000000000000000815260040161101d9061257b565b60405180910390fd5b60006001600089815260200190815260200160002060008873ffffffffffffffffffffffffffffffffffffffff1673ffffffffffffffffffffffffffffffffffffffff16815260200190815260200160002090506110eb81604051806080016040529081600082015481526020016001820160009054906101000a900460ff161515151581526020016001820160019054906101000a900460ff161515151581526020016001820160029054906101000a900460ff1660ff1660ff1681525050611411565b60018160010160006101000a81548160ff021916908315150217905550858160010160026101000a81548160ff021916908360ff16021790555085600260008360000154815260200190815260200160002060006101000a81548160ff021916908360ff1602179055507fc6cf4ce30052affe12edae63dae941869d52153a95733272c5364d954336042d888883600001548960405161118e949392919061259b565b60405180910390a15050505050505050565b6111a86114d0565b816001816111b69190611d40565b60035410156111fa576040517f08c379a00000000000000000000000000000000000000000000000000000000081526004016111f190611dd1565b60405180910390fd5b6040518060c001604052806000808681526020019081526020016000206000018054611225906121da565b80601f0160208091040260200160405190810160405280929190818152602001828054611251906121da565b801561129e5780601f106112735761010080835404028352916020019161129e565b820191906000526020600020905b81548152906001019060200180831161128157829003601f168201915b5050505050815260200160008086815260200190815260200160002060010180546112c8906121da565b80601f01602080910402602001604051908101604052809291908181526020018280546112f4906121da565b80156113415780601f1061131657610100808354040283529160200191611341565b820191906000526020600020905b81548152906001019060200180831161132457829003601f168201915b5050505050815260200160008086815260200190815260200160002060020154815260200160008086815260200190815260200160002060030160009054906101000a900473ffffffffffffffffffffffffffffffffffffffff1673ffffffffffffffffffffffffffffffffffffffff16815260200160008086815260200190815260200160002060060160009054906101000a900460ff161515815260200160008086815260200190815260200160002060060160019054906101000a900460ff161515815250915050919050565b806020015115611456576040517f08c379a000000000000000000000000000000000000000000000000000000000815260040161144d90611f81565b60405180910390fd5b80604001511561149b576040517f08c379a00000000000000000000000000000000000000000000000000000000081526004016114929061262c565b60405180910390fd5b50565b604051806080016040528060008019168152602001600015158152602001600015158152602001600060ff1681525090565b6040518060c00160405280606081526020016060815260200160008152602001600073ffffffffffffffffffffffffffffffffffffffff1681526020016000151581526020016000151581525090565b6000604051905090565b600080fd5b600080fd5b6000819050919050565b61154781611534565b811461155257600080fd5b50565b6000813590506115648161153e565b92915050565b6000819050919050565b61157d8161156a565b811461158857600080fd5b50565b60008135905061159a81611574565b92915050565b600080604083850312156115b7576115b661152a565b5b60006115c585828601611555565b92505060206115d68582860161158b565b9150509250929050565b600073ffffffffffffffffffffffffffffffffffffffff82169050919050565b600061160b826115e0565b9050919050565b61161b81611600565b811461162657600080fd5b50565b60008135905061163881611612565b92915050565b600080604083850312156116555761165461152a565b5b600061166385828601611555565b925050602061167485828601611629565b9150509250929050565b60008115159050919050565b6116938161167e565b82525050565b60006020820190506116ae600083018461168a565b92915050565b6116bd81611534565b82525050565b60006020820190506116d860008301846116b4565b92915050565b6116e78161156a565b82525050565b6116f68161167e565b82525050565b600060ff82169050919050565b611712816116fc565b82525050565b60808201600082015161172e60008501826116de565b50602082015161174160208501826116ed565b50604082015161175460408501826116ed565b5060608201516117676060850182611709565b50505050565b60006080820190506117826000830184611718565b92915050565b60006020828403121561179e5761179d61152a565b5b60006117ac8482850161158b565b91505092915050565b6117be816116fc565b82525050565b60006020820190506117d960008301846117b5565b92915050565b600080fd5b600080fd5b6000601f19601f8301169050919050565b7f4e487b7100000000000000000000000000000000000000000000000000000000600052604160045260246000fd5b611832826117e9565b810181811067ffffffffffffffff82111715611851576118506117fa565b5b80604052505050565b6000611864611520565b90506118708282611829565b919050565b600067ffffffffffffffff8211156118905761188f6117fa565b5b611899826117e9565b9050602081019050919050565b82818337600083830152505050565b60006118c86118c384611875565b61185a565b9050828152602081018484840111156118e4576118e36117e4565b5b6118ef8482856118a6565b509392505050565b600082601f83011261190c5761190b6117df565b5b813561191c8482602086016118b5565b91505092915050565b61192e8161167e565b811461193957600080fd5b50565b60008135905061194b81611925565b92915050565b600067ffffffffffffffff82111561196c5761196b6117fa565b5b602082029050602081019050919050565b600080fd5b600061199561199084611951565b61185a565b905080838252602082019050602084028301858111156119b8576119b761197d565b5b835b818110156119e157806119cd8882611629565b8452602084019350506020810190506119ba565b5050509392505050565b600082601f830112611a00576119ff6117df565b5b8135611a10848260208601611982565b91505092915050565b60008060008060008060c08789031215611a3657611a3561152a565b5b600087013567ffffffffffffffff811115611a5457611a5361152f565b5b611a6089828a016118f7565b965050602087013567ffffffffffffffff811115611a8157611a8061152f565b5b611a8d89828a016118f7565b9550506040611a9e89828a01611555565b9450506060611aaf89828a0161193c565b935050608087013567ffffffffffffffff811115611ad057611acf61152f565b5b611adc89828a016119eb565b92505060a087013567ffffffffffffffff811115611afd57611afc61152f565b5b611b0989828a016119eb565b9150509295509295509295565b611b1f816116fc565b8114611b2a57600080fd5b50565b600081359050611b3c81611b16565b92915050565b600080600060608486031215611b5b57611b5a61152a565b5b6000611b6986828701611555565b9350506020611b7a86828701611629565b9250506040611b8b86828701611b2d565b9150509250925092565b600060208284031215611bab57611baa61152a565b5b6000611bb984828501611555565b91505092915050565b600081519050919050565b600082825260208201905092915050565b60005b83811015611bfc578082015181840152602081019050611be1565b60008484015250505050565b6000611c1382611bc2565b611c1d8185611bcd565b9350611c2d818560208601611bde565b611c36816117e9565b840191505092915050565b611c4a81611534565b82525050565b611c5981611600565b82525050565b600060c0830160008301518482036000860152611c7c8282611c08565b91505060208301518482036020860152611c968282611c08565b9150506040830151611cab6040860182611c41565b506060830151611cbe6060860182611c50565b506080830151611cd160808601826116ed565b5060a0830151611ce460a08601826116ed565b508091505092915050565b60006020820190508181036000830152611d098184611c5f565b905092915050565b7f4e487b7100000000000000000000000000000000000000000000000000000000600052601160045260246000fd5b6000611d4b82611534565b9150611d5683611534565b9250828201905080821115611d6e57611d6d611d11565b5b92915050565b600082825260208201905092915050565b7f50726f6a65637420646f6573206e6f7420657869737473000000000000000000600082015250565b6000611dbb601783611d74565b9150611dc682611d85565b602082019050919050565b60006020820190508181036000830152611dea81611dae565b9050919050565b7f4e6f7420616c6c6f77656420746f207375626d69740000000000000000000000600082015250565b6000611e27601583611d74565b9150611e3282611df1565b602082019050919050565b60006020820190508181036000830152611e5681611e1a565b9050919050565b7f446561646c696e65207061737365640000000000000000000000000000000000600082015250565b6000611e93600f83611d74565b9150611e9e82611e5d565b602082019050919050565b60006020820190508181036000830152611ec281611e86565b9050919050565b7f52657375626d697373696f6e206e6f7420616c6c6f7765640000000000000000600082015250565b6000611eff601883611d74565b9150611f0a82611ec9565b602082019050919050565b60006020820190508181036000830152611f2e81611ef2565b9050919050565b7f5461736b20616c72656164792076657269666965640000000000000000000000600082015250565b6000611f6b601583611d74565b9150611f7682611f35565b602082019050919050565b60006020820190508181036000830152611f9a81611f5e565b9050919050565b611faa81611600565b82525050565b611fb98161156a565b82525050565b6000606082019050611fd460008301866116b4565b611fe16020830185611fa1565b611fee6040830184611fb0565b949350505050565b7f4e6f742061207665726966696572000000000000000000000000000000000000600082015250565b600061202c600e83611d74565b915061203782611ff6565b602082019050919050565b6000602082019050818103600083015261205b8161201f565b9050919050565b7f5375626d697373696f6e20646f6573206e6f7420657869737400000000000000600082015250565b6000612098601983611d74565b91506120a382612062565b602082019050919050565b600060208201905081810360008301526120c78161208b565b9050919050565b60006040820190506120e360008301856116b4565b6120f06020830184611fa1565b9392505050565b7f496e76616c696420646561646c696e6500000000000000000000000000000000600082015250565b600061212d601083611d74565b9150612138826120f7565b602082019050919050565b6000602082019050818103600083015261215c81612120565b9050919050565b600061216e82611534565b91507fffffffffffffffffffffffffffffffffffffffffffffffffffffffffffffffff82036121a05761219f611d11565b5b600182019050919050565b7f4e487b7100000000000000000000000000000000000000000000000000000000600052602260045260246000fd5b600060028204905060018216806121f257607f821691505b602082108103612205576122046121ab565b5b50919050565b60008190508160005260206000209050919050565b60006020601f8301049050919050565b600082821b905092915050565b60006008830261226d7fffffffffffffffffffffffffffffffffffffffffffffffffffffffffffffffff82612230565b6122778683612230565b95508019841693508086168417925050509392505050565b6000819050919050565b60006122b46122af6122aa84611534565b61228f565b611534565b9050919050565b6000819050919050565b6122ce83612299565b6122e26122da826122bb565b84845461223d565b825550505050565b600090565b6122f76122ea565b6123028184846122c5565b505050565b5b818110156123265761231b6000826122ef565b600181019050612308565b5050565b601f82111561236b5761233c8161220b565b61234584612220565b81016020851015612354578190505b61236861236085612220565b830182612307565b50505b505050565b600082821c905092915050565b600061238e60001984600802612370565b1980831691505092915050565b60006123a7838361237d565b9150826002028217905092915050565b6123c082611bc2565b67ffffffffffffffff8111156123d9576123d86117fa565b5b6123e382546121da565b6123ee82828561232a565b600060209050601f831160018114612421576000841561240f578287015190505b612419858261239b565b865550612481565b601f19841661242f8661220b565b60005b8281101561245757848901518255600182019150602085019450602081019050612432565b868310156124745784890151612470601f89168261237d565b8355505b6001600288020188555050505b505050505050565b7f4e487b7100000000000000000000000000000000000000000000000000000000600052603260045260246000fd5b60006124c382611bc2565b6124cd8185611d74565b93506124dd818560208601611bde565b6124e6816117e9565b840191505092915050565b600060608201905061250660008301866116b4565b818103602083015261251881856124b8565b90506125276040830184611fa1565b949350505050565b7f496e76616c696420677261646500000000000000000000000000000000000000600082015250565b6000612565600d83611d74565b91506125708261252f565b602082019050919050565b6000602082019050818103600083015261259481612558565b9050919050565b60006080820190506125b060008301876116b4565b6125bd6020830186611fa1565b6125ca6040830185611fb0565b6125d760608301846117b5565b95945050505050565b7f5461736b20616c72656164792072656a65637465640000000000000000000000600082015250565b6000612616601583611d74565b9150612621826125e0565b602082019050919050565b6000602082019050818103600083015261264581612609565b905091905056fea2646970667358221220eb74e9c797dcf598bf738469e679f368fe4f5bd443e55db9c379357de6d1434264736f6c634300081c0033",
  "linkReferences": {},
  "deployedLinkReferences": {}
}