{
  "_format": "hh-sol-artifact-1",
  "contractName": "DEDUAssess",
  "sourceName": "contracts/DEDUAssess.sol",
  "abi": [
    {
      "anonymous": false,
      "inputs": [
        {
          "indexed": false,
          "internalType": "uint256",
          "name": "projectId",
          "type": "uint256"
        },
        {
          "indexed": false,
          "internalType": "string",
          "name": "name",
          "type": "string"
        },
        {
          "indexed": false,
          "internalType": "address",
          "name": "mentor",
          "type": "address"
        }
      ],
      "name": "ProjectCreated",
      "type": "event"
    },
    {
      "anonymous": false,
      "inputs": [
        {
          "indexed": false,
          "internalType": "uint256",
          "name": "projectId",
          "type": "uint256"
        },
        {
          "indexed": false,
          "internalType": "uint256",
          "name": "submissionId",
          "type": "uint256"
        },
        {
          "indexed": false,
          "internalType": "address",
          "name": "student",
          "type": "address"
        }
      ],
      "name": "TaskRejected",
      "type": "event"
    },
    {
      "anonymous": false,
      "inputs": [
        {
          "indexed": false,
          "internalType": "uint256",
          "name": "projectId",
          "type": "uint256"
        },
        {
          "indexed": false,
          "internalType": "uint256",
          "name": "submissionId",
          "type": "uint256"
        },
        {
          "indexed": false,
          "internalType": "address",
          "name": "student",
          "type": "address"
        },
        {
          "indexed": false,
          "internalType": "bytes32",
          "name": "taskHash",
          "type": "bytes32"
        }
      ],
      "name": "TaskSubmitted",
      "type": "event"
    },
    {
      "anonymous": false,
      "inputs": [
        {
          "indexed": false,
          "internalType": "uint256",
          "name": "projectId",
          "type": "uint256"
        },
        {
          "indexed": false,
          "internalType": "uint256",
          "name": "submissionId",
          "type": "uint256"
        },
        {
          "indexed": false,
          "internalType": "address",
          "name": "student",
          "type": "address"
        },
        {
          "indexed": false,
          "internalType": "bytes32",
          "name": "taskHash",
          "type": "bytes32"
        },
        {
          "indexed": false,
          "internalType": "uint8",
          "name": "grade",
          "type": "uint8"
        }
      ],
      "name": "TaskVerified",
      "type": "event"
    },
    {
      "inputs": [
        {
          "internalType": "string",
          "name": "name",
          "type": "string"
        },
        {
          "internalType": "string",
          "name": "description",
          "type": "string"
        },
        {
          "internalType": "uint256",
          "name": "deadline",
          "type": "uint256"
        },
        {
          "internalType": "bool",
          "name": "allowResubmission",
          "type": "bool"
        },
        {
          "internalType": "address[]",
          "name": "verifiers",
          "type": "address[]"
        },
        {
          "internalType": "address[]",
          "name": "allowedStudents",
          "type": "address[]"
        }
      ],
      "name": "createProject",
      "outputs": [],
      "stateMutability": "nonpayable",
      "type": "function"
    },
    {
      "inputs": [
        {
          "internalType": "uint256",
          "name": "projectId",
          "type": "uint256"
        }
      ],
      "name": "getProject",
      "outputs": [
        {
          "components": [
            {
              "internalType": "string",
              "name": "name",
              "type": "string"
            },
            {
              "internalType": "string",
              "name": "description",
              "type": "string"
            },
            {
              "internalType": "uint256",
              "name": "deadline",
              "type": "uint256"
            },
            {
              "internalType": "address",
              "name": "mentor",
              "type": "address"
            },
            {
              "internalType": "bool",
              "name": "isRestricted",
              "type": "bool"
            },
            {
              "internalType": "bool",
              "name": "allowResubmission",
              "type": "bool"
            },
            {
              "internalType": "uint256",
              "name": "submissionCount",
              "type": "uint256"
            }
          ],
          "internalType": "struct DEDUAssess.ProjectView",
          "name": "",
          "type": "tuple"
        }
      ],
      "stateMutability": "view",
      "type": "function"
    },
    {
      "inputs": [
        {
          "internalType": "uint256",
          "name": "projectId",
          "type": "uint256"
        },
        {
          "internalType": "address",
          "name": "student",
          "type": "address"
        }
      ],
      "name": "getSubmission",
      "outputs": [
        {
          "components": [
            {
              "internalType": "uint256",
              "name": "id",
              "type": "uint256"
            },
            {
              "internalType": "bytes32",
              "name": "taskHash",
              "type": "bytes32"
            },
            {
              "internalType": "bool",
              "name": "isVerified",
              "type": "bool"
            },
            {
              "internalType": "bool",
              "name": "isRejected",
              "type": "bool"
            },
            {
              "internalType": "uint8",
              "name": "grade",
              "type": "uint8"
            }
          ],
          "internalType": "struct DEDUAssess.Submission",
          "name": "",
          "type": "tuple"
        }
      ],
      "stateMutability": "view",
      "type": "function"
    },
    {
      "inputs": [
        {
          "internalType": "uint256",
          "name": "projectId",
          "type": "uint256"
        },
        {
          "internalType": "address",
          "name": "user",
          "type": "address"
        }
      ],
      "name": "isAllowedStudent",
      "outputs": [
        {
          "internalType": "bool",
          "name": "",
          "type": "bool"
        }
      ],
      "stateMutability": "view",
      "type": "function"
    },
    {
      "inputs": [
        {
          "internalType": "uint256",
          "name": "projectId",
          "type": "uint256"
        },
        {
          "internalType": "address",
          "name": "user",
          "type": "address"
        }
      ],
      "name": "isVerifier",
      "outputs": [
        {
          "internalType": "bool",
          "name": "",
          "type": "bool"
        }
      ],
      "stateMutability": "view",
      "type": "function"
    },
    {
      "inputs": [],
      "name": "projectCount",
      "outputs": [
        {
          "internalType": "uint256",
          "name": "",
          "type": "uint256"
        }
      ],
      "stateMutability": "view",
      "type": "function"
    },
    {
      "inputs": [
        {
          "internalType": "uint256",
          "name": "projectId",
          "type": "uint256"
        },
        {
          "internalType": "address",
          "name": "student",
          "type": "address"
        }
      ],
      "name": "rejectTask",
      "outputs": [],
      "stateMutability": "nonpayable",
      "type": "function"
    },
    {
      "inputs": [
        {
          "internalType": "uint256",
          "name": "projectId",
          "type": "uint256"
        },
        {
          "internalType": "bytes32",
          "name": "taskHash",
          "type": "bytes32"
        }
      ],
      "name": "submitTask",
      "outputs": [],
      "stateMutability": "nonpayable",
      "type": "function"
    },
    {
      "inputs": [
        {
          "internalType": "uint256",
          "name": "projectId",
          "type": "uint256"
        },
        {
          "internalType": "address",
          "name": "student",
          "type": "address"
        },
        {
          "internalType": "uint8",
          "name": "grade",
          "type": "uint8"
        }
      ],
      "name": "verifyTask",
      "outputs": [],
      "stateMutability": "nonpayable",
      "type": "function"
    }
  ],
  "bytecode": "0x6080604052348015600f57600080fd5b506127cc8061001f6000396000f3fe608060405234801561001057600080fd5b50600436106100935760003560e01c806355f0e2211161006657806355f0e2211461011e5780637b6ffbca1461014e578063a3dc85d81461016a578063ecdc73d81461019a578063f0f3f2c8146101b657610093565b80632df145e21461009857806330709953146100b457806336fbad26146100e457806354a18c8114610102575b600080fd5b6100b260048036038101906100ad9190611676565b6101e6565b005b6100ce60048036038101906100c99190611714565b610640565b6040516100db919061176f565b60405180910390f35b6100ec61070f565b6040516100f99190611799565b60405180910390f35b61011c60048036038101906101179190611714565b610715565b005b61013860048036038101906101339190611714565b6109cd565b6040516101459190611865565b60405180910390f35b61016860048036038101906101639190611aba565b610b8e565b005b610184600480360381019061017f9190611714565b610e9a565b604051610191919061176f565b60405180910390f35b6101b460048036038101906101af9190611be3565b610f76565b005b6101d060048036038101906101cb9190611c36565b61124d565b6040516101dd9190611d94565b60405180910390f35b816001816101f49190611de5565b6002541015610238576040517f08c379a000000000000000000000000000000000000000000000000000000000815260040161022f90611e76565b60405180910390fd5b826102438133610640565b610282576040517f08c379a000000000000000000000000000000000000000000000000000000000815260040161027990611ee2565b60405180910390fd5b600080858152602001908152602001600020600201544211156102da576040517f08c379a00000000000000000000000000000000000000000000000000000000081526004016102d190611f4e565b60405180910390fd5b6001600085815260200190815260200160002060003373ffffffffffffffffffffffffffffffffffffffff1673ffffffffffffffffffffffffffffffffffffffff16815260200190815260200160002060020160009054906101000a900460ff161561037b576040517f08c379a000000000000000000000000000000000000000000000000000000000815260040161037290611fba565b60405180910390fd5b60008085815260200190815260200160002060060160019054906101000a900460ff1661043f576000801b6001600086815260200190815260200160002060003373ffffffffffffffffffffffffffffffffffffffff1673ffffffffffffffffffffffffffffffffffffffff168152602001908152602001600020600101541461043a576040517f08c379a000000000000000000000000000000000000000000000000000000000815260040161043190612026565b60405180910390fd5b6104d5565b826001600086815260200190815260200160002060003373ffffffffffffffffffffffffffffffffffffffff1673ffffffffffffffffffffffffffffffffffffffff16815260200190815260200160002060010154036104d4576040517f08c379a00000000000000000000000000000000000000000000000000000000081526004016104cb90612092565b60405180910390fd5b5b600080600086815260200190815260200160002060070160008154809291906104fd906120b2565b9190505590506040518060a00160405280828152602001858152602001600015158152602001600015158152602001600060ff168152506001600087815260200190815260200160002060003373ffffffffffffffffffffffffffffffffffffffff1673ffffffffffffffffffffffffffffffffffffffff168152602001908152602001600020600082015181600001556020820151816001015560408201518160020160006101000a81548160ff02191690831515021790555060608201518160020160016101000a81548160ff02191690831515021790555060808201518160020160026101000a81548160ff021916908360ff1602179055509050507f37c17ac112a186d36fadfd145683f55ff56b191fd0dde1ff0055f43dea766f34858233876040516106319493929190612118565b60405180910390a15050505050565b600061064c8383610e9a565b1561065a5760009050610709565b6001836106679190611de5565b60025410158015610698575060008084815260200190815260200160002060060160009054906101000a900460ff16155b156106a65760019050610709565b60008084815260200190815260200160002060050160008373ffffffffffffffffffffffffffffffffffffffff1673ffffffffffffffffffffffffffffffffffffffff16815260200190815260200160002060009054906101000a900460ff1690505b92915050565b60025481565b816001816107239190611de5565b6002541015610767576040517f08c379a000000000000000000000000000000000000000000000000000000000815260040161075e90611e76565b60405180910390fd5b826107728133610e9a565b6107b1576040517f08c379a00000000000000000000000000000000000000000000000000000000081526004016107a8906121a9565b60405180910390fd5b83836000801b6001600084815260200190815260200160002060008373ffffffffffffffffffffffffffffffffffffffff1673ffffffffffffffffffffffffffffffffffffffff168152602001908152602001600020600101540361084b576040517f08c379a000000000000000000000000000000000000000000000000000000000815260040161084290612215565b60405180910390fd5b60006001600088815260200190815260200160002060008773ffffffffffffffffffffffffffffffffffffffff1673ffffffffffffffffffffffffffffffffffffffff168152602001908152602001600020905061091a816040518060a001604052908160008201548152602001600182015481526020016002820160009054906101000a900460ff161515151581526020016002820160019054906101000a900460ff161515151581526020016002820160029054906101000a900460ff1660ff1660ff16815250506114d9565b600180600089815260200190815260200160002060008873ffffffffffffffffffffffffffffffffffffffff1673ffffffffffffffffffffffffffffffffffffffff16815260200190815260200160002060020160016101000a81548160ff0219169083151502179055507f3d27ba10c6ed26d1a102467a393130aba6e182b96c82edfd3f7fc826d7fba0ed878260000154886040516109bc93929190612235565b60405180910390a150505050505050565b6109d5611566565b826001816109e39190611de5565b6002541015610a27576040517f08c379a0000000000000000000000000000000000000000000000000000000008152600401610a1e90611e76565b60405180910390fd5b83836000801b6001600084815260200190815260200160002060008373ffffffffffffffffffffffffffffffffffffffff1673ffffffffffffffffffffffffffffffffffffffff1681526020019081526020016000206001015403610ac1576040517f08c379a0000000000000000000000000000000000000000000000000000000008152600401610ab890612215565b60405180910390fd5b6001600087815260200190815260200160002060008673ffffffffffffffffffffffffffffffffffffffff1673ffffffffffffffffffffffffffffffffffffffff1681526020019081526020016000206040518060a001604052908160008201548152602001600182015481526020016002820160009054906101000a900460ff161515151581526020016002820160019054906101000a900460ff161515151581526020016002820160029054906101000a900460ff1660ff1660ff1681525050935050505092915050565b834210610bd0576040517f08c379a0000000000000000000000000000000000000000000000000000000008152600401610bc7906122b8565b60405180910390fd5b600060026000815480929190610be5906120b2565b919050559050866000808381526020019081526020016000206000019081610c0d91906124e4565b50856000808381526020019081526020016000206001019081610c3091906124e4565b5084600080838152602001908152602001600020600201819055503360008083815260200190815260200160002060030160006101000a81548173ffffffffffffffffffffffffffffffffffffffff021916908373ffffffffffffffffffffffffffffffffffffffff160217905550600082511160008083815260200190815260200160002060060160006101000a81548160ff0219169083151502179055508360008083815260200190815260200160002060060160016101000a81548160ff02191690831515021790555060008060008381526020019081526020016000206007018190555060005b8351811015610db65760016000808481526020019081526020016000206004016000868481518110610d5057610d4f6125b6565b5b602002602001015173ffffffffffffffffffffffffffffffffffffffff1673ffffffffffffffffffffffffffffffffffffffff16815260200190815260200160002060006101000a81548160ff0219169083151502179055508080600101915050610d1b565b5060005b8251811015610e555760016000808481526020019081526020016000206005016000858481518110610def57610dee6125b6565b5b602002602001015173ffffffffffffffffffffffffffffffffffffffff1673ffffffffffffffffffffffffffffffffffffffff16815260200190815260200160002060006101000a81548160ff0219169083151502179055508080600101915050610dba565b507fc0c54fed07481d0998e1446b2c13759606bf4f26b78306307413ac4c4309aa82818833604051610e899392919061261e565b60405180910390a150505050505050565b60008173ffffffffffffffffffffffffffffffffffffffff1660008085815260200190815260200160002060030160009054906101000a900473ffffffffffffffffffffffffffffffffffffffff1673ffffffffffffffffffffffffffffffffffffffff1603610f0d5760019050610f70565b60008084815260200190815260200160002060040160008373ffffffffffffffffffffffffffffffffffffffff1673ffffffffffffffffffffffffffffffffffffffff16815260200190815260200160002060009054906101000a900460ff1690505b92915050565b82600181610f849190611de5565b6002541015610fc8576040517f08c379a0000000000000000000000000000000000000000000000000000000008152600401610fbf90611e76565b60405180910390fd5b83610fd38133610e9a565b611012576040517f08c379a0000000000000000000000000000000000000000000000000000000008152600401611009906121a9565b60405180910390fd5b84846000801b6001600084815260200190815260200160002060008373ffffffffffffffffffffffffffffffffffffffff1673ffffffffffffffffffffffffffffffffffffffff16815260200190815260200160002060010154036110ac576040517f08c379a00000000000000000000000000000000000000000000000000000000081526004016110a390612215565b60405180910390fd5b60648560ff1611156110f3576040517f08c379a00000000000000000000000000000000000000000000000000000000081526004016110ea906126a8565b60405180910390fd5b60006001600089815260200190815260200160002060008873ffffffffffffffffffffffffffffffffffffffff1673ffffffffffffffffffffffffffffffffffffffff16815260200190815260200160002090506111c2816040518060a001604052908160008201548152602001600182015481526020016002820160009054906101000a900460ff161515151581526020016002820160019054906101000a900460ff161515151581526020016002820160029054906101000a900460ff1660ff1660ff16815250506114d9565b60018160020160006101000a81548160ff021916908315150217905550858160020160026101000a81548160ff021916908360ff1602179055507f0e472fd0901010e937df16663b71cdfc497c27ecce26b301cb5a496dd1b7f90e8882600001548984600101548a60405161123b9594939291906126d7565b60405180910390a15050505050505050565b61125561159f565b816001816112639190611de5565b60025410156112a7576040517f08c379a000000000000000000000000000000000000000000000000000000000815260040161129e90611e76565b60405180910390fd5b6040518060e0016040528060008086815260200190815260200160002060000180546112d290612307565b80601f01602080910402602001604051908101604052809291908181526020018280546112fe90612307565b801561134b5780601f106113205761010080835404028352916020019161134b565b820191906000526020600020905b81548152906001019060200180831161132e57829003601f168201915b50505050508152602001600080868152602001908152602001600020600101805461137590612307565b80601f01602080910402602001604051908101604052809291908181526020018280546113a190612307565b80156113ee5780601f106113c3576101008083540402835291602001916113ee565b820191906000526020600020905b8154815290600101906020018083116113d157829003601f168201915b5050505050815260200160008086815260200190815260200160002060020154815260200160008086815260200190815260200160002060030160009054906101000a900473ffffffffffffffffffffffffffffffffffffffff1673ffffffffffffffffffffffffffffffffffffffff16815260200160008086815260200190815260200160002060060160009054906101000a900460ff161515815260200160008086815260200190815260200160002060060160019054906101000a900460ff161515815260200160008086815260200190815260200160002060070154815250915050919050565b80604001511561151e576040517f08c379a000000000000000000000000000000000000000000000000000000000815260040161151590611fba565b60405180910390fd5b806060015115611563576040517f08c379a000000000000000000000000000000000000000000000000000000000815260040161155a90612776565b60405180910390fd5b50565b6040518060a001604052806000815260200160008019168152602001600015158152602001600015158152602001600060ff1681525090565b6040518060e00160405280606081526020016060815260200160008152602001600073ffffffffffffffffffffffffffffffffffffffff168152602001600015158152602001600015158152602001600081525090565b6000604051905090565b600080fd5b600080fd5b6000819050919050565b61161d8161160a565b811461162857600080fd5b50565b60008135905061163a81611614565b92915050565b6000819050919050565b61165381611640565b811461165e57600080fd5b50565b6000813590506116708161164a565b92915050565b6000806040838503121561168d5761168c611600565b5b600061169b8582860161162b565b92505060206116ac85828601611661565b9150509250929050565b600073ffffffffffffffffffffffffffffffffffffffff82169050919050565b60006116e1826116b6565b9050919050565b6116f1816116d6565b81146116fc57600080fd5b50565b60008135905061170e816116e8565b92915050565b6000806040838503121561172b5761172a611600565b5b60006117398582860161162b565b925050602061174a858286016116ff565b9150509250929050565b60008115159050919050565b61176981611754565b82525050565b60006020820190506117846000830184611760565b92915050565b6117938161160a565b82525050565b60006020820190506117ae600083018461178a565b92915050565b6117bd8161160a565b82525050565b6117cc81611640565b82525050565b6117db81611754565b82525050565b600060ff82169050919050565b6117f7816117e1565b82525050565b60a08201600082015161181360008501826117b4565b50602082015161182660208501826117c3565b50604082015161183960408501826117d2565b50606082015161184c60608501826117d2565b50608082015161185f60808501826117ee565b50505050565b600060a08201905061187a60008301846117fd565b92915050565b600080fd5b600080fd5b6000601f19601f8301169050919050565b7f4e487b7100000000000000000000000000000000000000000000000000000000600052604160045260246000fd5b6118d38261188a565b810181811067ffffffffffffffff821117156118f2576118f161189b565b5b80604052505050565b60006119056115f6565b905061191182826118ca565b919050565b600067ffffffffffffffff8211156119315761193061189b565b5b61193a8261188a565b9050602081019050919050565b82818337600083830152505050565b600061196961196484611916565b6118fb565b90508281526020810184848401111561198557611984611885565b5b611990848285611947565b509392505050565b600082601f8301126119ad576119ac611880565b5b81356119bd848260208601611956565b91505092915050565b6119cf81611754565b81146119da57600080fd5b50565b6000813590506119ec816119c6565b92915050565b600067ffffffffffffffff821115611a0d57611a0c61189b565b5b602082029050602081019050919050565b600080fd5b6000611a36611a31846119f2565b6118fb565b90508083825260208201905060208402830185811115611a5957611a58611a1e565b5b835b81811015611a825780611a6e88826116ff565b845260208401935050602081019050611a5b565b5050509392505050565b600082601f830112611aa157611aa0611880565b5b8135611ab1848260208601611a23565b91505092915050565b60008060008060008060c08789031215611ad757611ad6611600565b5b600087013567ffffffffffffffff811115611af557611af4611605565b5b611b0189828a01611998565b965050602087013567ffffffffffffffff811115611b2257611b21611605565b5b611b2e89828a01611998565b9550506040611b3f89828a0161162b565b9450506060611b5089828a016119dd565b935050608087013567ffffffffffffffff811115611b7157611b70611605565b5b611b7d89828a01611a8c565b92505060a087013567ffffffffffffffff811115611b9e57611b9d611605565b5b611baa89828a01611a8c565b9150509295509295509295565b611bc0816117e1565b8114611bcb57600080fd5b50565b600081359050611bdd81611bb7565b92915050565b600080600060608486031215611bfc57611bfb611600565b5b6000611c0a8682870161162b565b9350506020611c1b868287016116ff565b9250506040611c2c86828701611bce565b9150509250925092565b600060208284031215611c4c57611c4b611600565b5b6000611c5a8482850161162b565b91505092915050565b600081519050919050565b600082825260208201905092915050565b60005b83811015611c9d578082015181840152602081019050611c82565b60008484015250505050565b6000611cb482611c63565b611cbe8185611c6e565b9350611cce818560208601611c7f565b611cd78161188a565b840191505092915050565b611ceb816116d6565b82525050565b600060e0830160008301518482036000860152611d0e8282611ca9565b91505060208301518482036020860152611d288282611ca9565b9150506040830151611d3d60408601826117b4565b506060830151611d506060860182611ce2565b506080830151611d6360808601826117d2565b5060a0830151611d7660a08601826117d2565b5060c0830151611d8960c08601826117b4565b508091505092915050565b60006020820190508181036000830152611dae8184611cf1565b905092915050565b7f4e487b7100000000000000000000000000000000000000000000000000000000600052601160045260246000fd5b6000611df08261160a565b9150611dfb8361160a565b9250828201905080821115611e1357611e12611db6565b5b92915050565b600082825260208201905092915050565b7f50726f6a65637420646f6573206e6f7420657869737473000000000000000000600082015250565b6000611e60601783611e19565b9150611e6b82611e2a565b602082019050919050565b60006020820190508181036000830152611e8f81611e53565b9050919050565b7f4e6f7420616c6c6f77656420746f207375626d69740000000000000000000000600082015250565b6000611ecc601583611e19565b9150611ed782611e96565b602082019050919050565b60006020820190508181036000830152611efb81611ebf565b9050919050565b7f446561646c696e65207061737365640000000000000000000000000000000000600082015250565b6000611f38600f83611e19565b9150611f4382611f02565b602082019050919050565b60006020820190508181036000830152611f6781611f2b565b9050919050565b7f5461736b20616c72656164792076657269666965640000000000000000000000600082015250565b6000611fa4601583611e19565b9150611faf82611f6e565b602082019050919050565b60006020820190508181036000830152611fd381611f97565b9050919050565b7f52657375626d697373696f6e206e6f7420616c6c6f7765640000000000000000600082015250565b6000612010601883611e19565b915061201b82611fda565b602082019050919050565b6000602082019050818103600083015261203f81612003565b9050919050565b7f5468652073616d65207461736b20616c7265616479207375626d697474656400600082015250565b600061207c601f83611e19565b915061208782612046565b602082019050919050565b600060208201905081810360008301526120ab8161206f565b9050919050565b60006120bd8261160a565b91507fffffffffffffffffffffffffffffffffffffffffffffffffffffffffffffffff82036120ef576120ee611db6565b5b600182019050919050565b612103816116d6565b82525050565b61211281611640565b82525050565b600060808201905061212d600083018761178a565b61213a602083018661178a565b61214760408301856120fa565b6121546060830184612109565b95945050505050565b7f4e6f742061207665726966696572000000000000000000000000000000000000600082015250565b6000612193600e83611e19565b915061219e8261215d565b602082019050919050565b600060208201905081810360008301526121c281612186565b9050919050565b7f5375626d697373696f6e20646f6573206e6f7420657869737400000000000000600082015250565b60006121ff601983611e19565b915061220a826121c9565b602082019050919050565b6000602082019050818103600083015261222e816121f2565b9050919050565b600060608201905061224a600083018661178a565b612257602083018561178a565b61226460408301846120fa565b949350505050565b7f496e76616c696420646561646c696e6500000000000000000000000000000000600082015250565b60006122a2601083611e19565b91506122ad8261226c565b602082019050919050565b600060208201905081810360008301526122d181612295565b9050919050565b7f4e487b7100000000000000000000000000000000000000000000000000000000600052602260045260246000fd5b6000600282049050600182168061231f57607f821691505b602082108103612332576123316122d8565b5b50919050565b60008190508160005260206000209050919050565b60006020601f8301049050919050565b600082821b905092915050565b60006008830261239a7fffffffffffffffffffffffffffffffffffffffffffffffffffffffffffffffff8261235d565b6123a4868361235d565b95508019841693508086168417925050509392505050565b6000819050919050565b60006123e16123dc6123d78461160a565b6123bc565b61160a565b9050919050565b6000819050919050565b6123fb836123c6565b61240f612407826123e8565b84845461236a565b825550505050565b600090565b612424612417565b61242f8184846123f2565b505050565b5b818110156124535761244860008261241c565b600181019050612435565b5050565b601f8211156124985761246981612338565b6124728461234d565b81016020851015612481578190505b61249561248d8561234d565b830182612434565b50505b505050565b600082821c905092915050565b60006124bb6000198460080261249d565b1980831691505092915050565b60006124d483836124aa565b9150826002028217905092915050565b6124ed82611c63565b67ffffffffffffffff8111156125065761250561189b565b5b6125108254612307565b61251b828285612457565b600060209050601f83116001811461254e576000841561253c578287015190505b61254685826124c8565b8655506125ae565b601f19841661255c86612338565b60005b828110156125845784890151825560018201915060208501945060208101905061255f565b868310156125a1578489015161259d601f8916826124aa565b8355505b6001600288020188555050505b505050505050565b7f4e487b7100000000000000000000000000000000000000000000000000000000600052603260045260246000fd5b60006125f082611c63565b6125fa8185611e19565b935061260a818560208601611c7f565b6126138161188a565b840191505092915050565b6000606082019050612633600083018661178a565b818103602083015261264581856125e5565b905061265460408301846120fa565b949350505050565b7f496e76616c696420677261646500000000000000000000000000000000000000600082015250565b6000612692600d83611e19565b915061269d8261265c565b602082019050919050565b600060208201905081810360008301526126c181612685565b9050919050565b6126d1816117e1565b82525050565b600060a0820190506126ec600083018861178a565b6126f9602083018761178a565b61270660408301866120fa565b6127136060830185612109565b61272060808301846126c8565b9695505050505050565b7f5461736b20616c72656164792072656a65637465640000000000000000000000600082015250565b6000612760601583611e19565b915061276b8261272a565b602082019050919050565b6000602082019050818103600083015261278f81612753565b905091905056fea2646970667358221220c534637c31260c63fd63dd785a07be1efb9ea12132505b67ce301a4461e4abad64736f6c634300081c0033",
  "linkReferences": {},
  "deployedLinkReferences": {}
}